:1000000000800020BD010000C9850200818502003A
:1000100081850200818502008185020081850200C0
:10002000818502008185020081850200C985020068
:10003000C985020081850200C98502007185020020
:10004000C9850200C9850200C9850200C985020070
:10005000C9850200C9850200C9850200C985020060
:10006000C9850200C9850200C9850200C985020050
:10007000C9850200C9850200C9850200C985020040
:10008000C9850200C9850200C9850200C985020030
:10009000C9850200C9850200C9850200C985020020
:1000A000C9850200C9850200C9850200C985020010
:1000B000C9850200C9850200C9850200C985020000
:1000C000C9850200C9850200C9850200C9850200F0
:1000D000C9850200C9850200C9850200C9850200E0
:1000E000C9850200C9850200C9850200C9850200D0
:1000F000C9850200C5A50200C985020021AD020024
:10010000C98502009DB20200C9850200C9850200AE
:10011000C9850200C9850200C9850200C98502009F
:10012000C9850200C9850200C9850200C98502008F
:10013000C9850200C9850200C985020085820200C6
:10014000C9850200C9850200C9850200C98502006F
:100150004D9D0200659D02007D9D0200959D02005F
:10016000C9850200398B0200C9850200C9850200D9
:10017000C9850200C9850200C9850200C98502003F
:10018000C9850200C9850200C9850200C98502002F
:10019000C9850200C9850200C9850200C98502001F
:1001A000C9850200C9850200C9850200C98502000F
:1001B000C9850200C9850200C9850200574B4CF26F
:1001C000205210B51A804DF628121A8000BF00BFC9
:1001D00028F0FEF9524B4FF010621A60514A9A60B3
:1001E000514ADA60A3F53043203B1A6812F480725A
:1001F00004D14E490A604FF4A8521A604C4B1A7849
:10020000110703D51A7842F008021A70494B4A4C7C
:100210004A482A221A704A4A00239918A14203D256
:10022000195899500433F8E7464B474900228B424E
:1002300002D243F8042BFAE74448454900235A58B0
:100240001A500433B3F5DE7FF9D1424B424A802184
:1002500003F8011B9342FBD1404B3C4A1A60404BD0
:100260008A221A70A3F5805324225A70A0221A7091
:100270009A799207FCD59A79D406FCD4394A9379B5
:1002800003F00C03082B374BF9D103221A714622D5
:100290005A719A799006FCD5324A9179314B4906C8
:1002A000FBD5314A4FF08271116009215160202243
:1002B0001A709A7902F00C020C2AFAD12B4B2C4AB4
:1002C0001A602C4B2C4A1A6000225A60072243F80D
:1002D000042C2A4AC3F80C2D62B628F0E9FA134B15
:1002E0001B68DA0705D5264828F086FA254B264AEA
:1002F0001A60264B1B785B0609D5224C224A2368DC
:10030000934204D11E4828F077FA002323602DF091
:10031000E5FD28F063F929F081FDFEE70E20054098
:1003200030800440823F04000100002B14D00340C1
:1003300002D0074000E00740E4A9FF1F5CDA030099
:100340008088FF1FE8A9FF1F646F00200082FF1F45
:100350000000000000E400E05FE400E008ED00E0E1
:1003600000500640004006404480044004800440A1
:10037000C010050014E000E0BFD401000000202000
:100380003BF077631CE00340A5C3945A00F007409C
:10039000FFFFFFFFFFFFFFFFFFFFFFFFFFFFFFFF6D
:1003A000FFFFFFFFFFFFFFFFFFFFFFFFFFFFFFFF5D
:1003B000FFFFFFFFFFFFFFFFFFFFFFFFFFFFFFFF4D
:1003C000FFFFFFFFFFFFFFFFFFFFFFFFFFFFFFFF3D
:1003D000FFFFFFFFFFFFFFFFFFFFFFFFFFFFFFFF2D
:1003E000FFFFFFFFFFFFFFFFFFFFFFFFFFFFFFFF1D
:1003F000FFFFFFFFFFFFFFFFFFFFFFFFFFFFFFFF0D
:10040000FFFFFFFFFFFFFFFFFFFFFFFFDEF9FFFF23
:1004100010B5054C237833B9044B13B10448AFF33E
:1004200000800123237010BDE8A9FF1F0000000019
:1004300054DA030008B5064B1BB106480649AFF372
:1004400000800648036813B1054B03B1984708BD07
:100450000000000054DA0300ECA9FF1FE4A9FF1F0D
:100460000000000038B5002105464FF0FF32234858
:1004700027F0B8FD214810214FF0FF3227F0BCFDD6
:100480001E4804214FF0FF3227F0C0FD1B48032116
:100490004FF0FF3227F0C4FD4FF0FF321748102114
:1004A00027F0C8FD15484FF0FF3127F0D7FD13485E
:1004B0004FF0FF3127F0C8FD10484FF0FF3127F013
:1004C000D7FD0F4B0D48002413214FF0FF321C6065
:1004D00027F0D8FD0B4B0C4A1D602146A2F11003FA
:1004E00043F8041B9342FBD1084A0021A2F11003F8
:1004F00043F8041B9342FBD138BD00BF18AAFF1F6D
:1005000004AAFF1F7CABFF1F18AAFF1F90ABFF1FA1
:10051000884207DA044B081A1B684FF4400191FB2C
:10052000F0F11981704700BF7CABFF1F014827F035
:100530002BBD00BF18AAFF1F30B400EB4004E4003D
:10054000094A0A4900EB8005002300EB4500A3544B
:1005500001EB40001444E218C15A51800233162BBB
:10056000F9D130BC704700BFECABFF1FDCB0FF1F00
:10057000032810B5044606D800EB4002D2000C4B0D
:10058000D15CFF2900D010BD0121D15400F0B8FA90
:10059000084B04EB84021B6804EB420403EB4404A5
:1005A0000023C2185288E2520233162BF9D110BD33
:1005B000ECABFF1FE8ABFF1F10B50024204600F096
:1005C0009FFA0378E0B22BB9FFF7B6FF0134042C91
:1005D000F4D110BDFF2BF9D1E0B2FFF7C9FFF5E769
:1005E000054B10B4010C040A020E5C70187099706F
:1005F000DA705DF8044B704790ABFF1F10B4002316
:10060000064C1846E15CDA00013301FA02F2042BD1
:1006100040EA0200F6D15DF8044B704790ABFF1F33
:1006200070B42B4C2378C0F57F40FF301904002BA9
:100630003AD041F00043274A43F010035363D36A92
:1006400003F47043B3F5405FF9D8D1B180B240F004
:100650008050204A01435163D36A03F47043B3F5D9
:10066000405FF9D81B49CB6A1A4A13F0F00FFAD051
:10067000936BD36A174913F0F00FFAD08B6B70BCF1
:100680007047154C134B226880B240F0C0504FF0B9
:1006900080551170DD621A465863D36ADB00FCD5C1
:1006A000236801221A70DDE70B4A0A4B12684FF0EB
:1006B000805610251170DE621A465D63D36A03F41A
:1006C0007043B3F5405FF9D821780904BDE700BF56
:1006D000086D002000C00240046D002070B42B4C57
:1006E0002378C0F57F40FF301904002B3AD041F049
:1006F0000043274A43F012035363D36A03F4704361
:10070000B3F5405FF9D8D1B180B240F08050204AB3
:1007100001435163D36A03F47043B3F5405FF9D8E2
:100720001B49CB6A1A4A13F0F00FFAD0936BD36AC5
:10073000174913F0F00FFAD08B6B70BC7047154C53
:10074000134B226880B240F0C0504FF080551170BA
:10075000DD621A465863D36ADB00FCD523680122A8
:100760001A70DDE70B4A0A4B12684FF080561225CB
:100770001170DE621A465D63D36A03F47043B3F509
:10078000405FF9D821780904BDE700BF086D00205B
:1007900000C00240046D002070B42B4C2378C0F5DB
:1007A0007F40FF301904002B3AD041F00043274A24
:1007B00043F014035363D36A03F47043B3F5405F0B
:1007C000F9D8D1B180B240F08050204A0143516342
:1007D000D36A03F47043B3F5405FF9D81B49CB6A81
:1007E0001A4A13F0F00FFAD0936BD36A174913F03B
:1007F000F00FFAD08B6B70BC7047154C134B22680E
:1008000080B240F0C0504FF080551170DD621A4642
:100810005863D36ADB00FCD5236801221A70DDE738
:100820000B4A0A4B12684FF0805614251170DE6295
:100830001A465D63D36A03F47043B3F5405FF9D899
:1008400021780904BDE700BF086D002000C0024008
:10085000046D002070B42B4C2378C0F57F40FF302E
:100860001904002B3AD041F00043274A43F0160305
:100870005363D36A03F47043B3F5405FF9D8D1B141
:1008800080B240F08050204A01435163D36A03F4A0
:100890007043B3F5405FF9D81B49CB6A1A4A13F08D
:1008A000F00FFAD0936BD36A174913F0F00FFAD018
:1008B0008B6B70BC7047154C134B226880B240F0B4
:1008C000C0504FF080551170DD621A465863D36AEC
:1008D000DB00FCD5236801221A70DDE70B4A0A4BC6
:1008E00012684FF0805616251170DE621A465D635D
:1008F000D36A03F47043B3F5405FF9D82178090453
:10090000BDE700BF086D002000C00240046D00205C
:10091000434A444B2DE9F0470121002410600A208E
:100920001C705C709C70DC7027F07EFF0920012138
:1009300027F07AFF3C4D3D4EDFF820910920012140
:1009400027F06CFF2146402239482C602DF0F2FD43
:10095000384A394B1168DFF808E13848384C41F41F
:10096000805A4FF038484FF400714FF0784C01270F
:10097000C2F800A0C3F80090C3F80C80C3F810C000
:10098000CEF8001037701C600378D8075BBF02F503
:100990003F521C322B4A4FF4107111609A0754BF1A
:1009A000294A2A4A4FF400715B07116032D4284B60
:1009B0004FF410721A60274C4FF6FF7383F3100345
:1009C000184623606360A360E360FFF729FE606858
:1009D000FFF784FEA068FFF7DFFEE068FFF73AFF4D
:1009E00094E802102B68124AA66822F81310E068F7
:1009F00003F1080703F1100403F11801013303F0B8
:100A0000070322F817C02B6022F8146022F81100A7
:100A1000BDE8F087104B4FF400721A60CBE700BFBF
:100A2000E8ABFF1F90ABFF1FD4ABFF1F086D00208A
:100A300094ABFF1F3C80044000C00240006D0020CA
:100A4000000C1F8008C004401CB004400CC00440CF
:100A500014B00440D8ABFF1F04C0044001401F8005
:100A600010B004401549164B164870B40E68164D68
:100A7000164C4FF4107246F480560E602A602260C5
:100A800018601A6842F440621A601A6851040DD462
:100A900042F480414FF0384441F001014FF078407A
:100AA0001960DC60186170BC1A6070474FF0384103
:100AB0004FF07842D96070BC1A6170473C800440A6
:100AC00000C0024000001F8018B0044014B0044071
:100AD00027F0BCBCF0B4084F0026084C0FCCBD1961
:100AE000B851696003CC1836602EAA60EB602861AB
:100AF0006961F2D1F0BC7047ECABFF1F2C20030002
:100B0000024B00EB400003EBC0007047ECABFF1F53
:100B1000F0B5264C2649274D83B04FF47A73022650
:100B200000930C27204678229E23A760666026F05B
:100B3000B7FD214966601623A3600B68A3FB05235C
:100B40004A68A2FB05028968A1FB05171B480097AC
:100B5000642101FB03F1A0FB0171C9090191204649
:100B6000174926F09DFD174966602023A3604A6857
:100B7000A2FB05320B68A3FB05038968A1FB0550A6
:100B800011490090204626F08BFD104A104B126848
:100B90001B68104966602A252046A56026F080FD66
:100BA00034236660A36003B0F0BD00BF746B002007
:100BB00068200300222222026CACFF1FA97464CFBC
:100BC000782003005CACFF1F9020030058ACFF1F8F
:100BD00068ACFF1FA02003002DE9F041DFF8AC80D6
:100BE000234F244ED8F80030234C18883A683368D5
:100BF00022490225A0EB12224FF00C0E20461B0AC0
:100C0000C4F808E0656026F04BFDD8F800307A683B
:100C1000588873681A4965604FF0160EA0EB1222CF
:100C20001B0A2046C4F808E026F03AFDD8F8003048
:100C3000BA689888B368134965604FF0200EA0EB3E
:100C400012221B0A2046C4F808E026F029FDD8F835
:100C50000030FA68D888F36865602A25A0EB122274
:100C6000A560204608491B0ABDE8F04126F018BDE2
:100C700080ABFF1F08AAFF1F746B0020B020030089
:100C8000BC200300C8200300D42003007CABFF1F5E
:100C900030B5144C83B000214023204600930A460F
:100CA000802326F01FFA00220C2320460E496260A2
:100CB000A36026F0C3FC0D480D49426802251623A7
:100CC0006560A360A2FB01320368A3FB0153806847
:100CD000A0FB011007490090204626F0E1FC03B07C
:100CE00030BD00BF746B0020E02003004CACFF1F40
:100CF00022222202E42003000D4A116808B541F0C7
:100D000080710C4B11601A6842F001021A601820C1
:100D1000012127F089FD1920012127F085FD0649D1
:100D2000064B20204FF4002208601A6008BD00BF67
:100D3000FCED00E0001000E008F00F4048F00F402C
:100D40002DE9F043374FDFF8E88083B004463D4695
:100D50004646D8F80828D8F80C38D31A022B2AD0DF
:100D6000D6F8083803F0010303F5007356F8231092
:100D700009B3DFF8C0900122484626F049F8EA1B83
:100D8000D2104FF0020E0132032348462649C9F81B
:100D900004E0C9F808E026F083FC4846296826F0FC
:100DA0004DFC6B689847484626F040F8D6F808385E
:100DB0000133C6F80838002004F16001D4F8E020BF
:100DC000D4F8E4309A4219D0D4F8E43003F00F029A
:100DD00001EBC20201335288C4F8E430082A1DD066
:100DE000042AEBD1AB68DBB1EB68CBB1D4F8E020DF
:100DF000D4F8E4309A4205F10805E5D10028A8D0DE
:100E000000230A4AC4F8E430C4F8E03013680193C0
:100E1000019BC4F8EC3003B0BDE8F0830120CDE7BE
:100E2000004DCBE718210300F8200300C46B00201D
:100E300064630020746B002010B40948094C0A4A0E
:100E400000234FF0FF312360A360616003604160C5
:100E500083605160136093605DF8044B704700BF7E
:100E60005CACFF1F6CACFF1F4CACFF1FF8B50E4C09
:100E700004F12007257866682846022127F0D4FC73
:100E8000083428463146022227F034FCBC42F1D116
:100E9000064B074A00211960A2F1100343F8041B16
:100EA0009342FBD1F8BD00BF3821030078ACFF1F8F
:100EB0008CACFF1F08B50320022127F0B5FC0320EE
:100EC00002490222BDE8084027F014BC7189FF1FC7
:100ED000104B196810B411B100221A600121586832
:100EE0000C4A10B10020506002209A68094C01435E
:100EF00012B10022A2600422DB6806480A4313B143
:100F00000023C3600823044C134323605DF8044BA3
:100F1000704700BF7CACFF1F78ACFF1FFFFFFFFFD7
:100F20002DE9F84F26A7D7E90067DFF8A8A0DFF87A
:100F3000A8B0254D4FF00A094FF000084FF0FF34DC
:100F400014E02CF03DFD21492CF08EFD2CF0F8F83A
:100F500004460D462AF014FC06460F462046294654
:100F60002AF0DAFC09F1010904460D460022184B6B
:100F7000304639462CF038F92CF018FC2CF03AFFAA
:100F80000022134B4AF80800294620462CF02CF981
:100F90002CF00CFC2CF02EFF8BFB09234FEAE9729E
:100FA000C2EB63030AEB080208F1080803EB4303F2
:100FB000B8F1600F5060A9EB8300C2D1BDE8F88F93
:100FC000ADB161B9C59B493EFFFFEFBF920A063F35
:100FD00000003C408CACFF1FABAAAA2AAFF30080F4
:100FE000F0B4084F0026084D0FCDBC190FC40FCD2B
:100FF0000FC495E803002836A02E84E80300F2D140
:10100000F0BC7047ECADFF1F802103000328D2BF66
:10101000034B044B043800EB800003EBC000704727
:10102000ECADFF1F58210300704700BF2DE9F041D0
:101030002F4B304E1B6882B0002146F2A81201935C
:1010400080E80600019BC0F8EC300446054606F136
:101050001008FF2756F8040FC0B2A860022127F03D
:10106000E3FB46452F7305F10805F3D104F128038E
:1010700004F13801002243F8042B99424FF0000597
:10108000F9D12587658784F83C5084F83D501020BD
:101090000221FF2627F0C8FB0F20022127F0C4FB06
:1010A00084F8405084F841506564A56484F84D602C
:1010B00084F84C601620022127F0B6FB152002218F
:1010C00027F0B2FBC4F8E85084F85D60C4F8E4503F
:1010D00084F85C6084F8505084F851506565A565CB
:1010E000C4F8E050C4F8EC5002B0BDE8F08100BF95
:1010F000C46B00209048030001F00103C1F34001DC
:1011000080F8413080F85110704700BF094B82B021
:101110001B6801934FF47A7202FB01F1B1F5FA6F8B
:10112000019BC0F8EC3038BF4FF4FA61416002B067
:10113000704700BFC46B00202DE9F043DFF8D88072
:1011400083B0044689466E460127D4F8E020D4F8DF
:10115000E4309A4225D0D4F8E430658F03F00F02D2
:1011600004EBC202603292E8030086E80300BDF897
:10117000022001331542C4F8E43094F83C3024D105
:1011800043BB9DF80000022828D003282FD0012857
:1011900028D0D4F8E020D4F8E430C8F800709A429F
:1011A000D9D11C4BD4F8EC201B68009300996368DC
:1011B0008A1AC3EB0313B2EB830F24D9012384F8FB
:1011C0003C30002003B0BDE8F08325EA02026287CC
:1011D000002BBAD0002384F83C30B6E7012A0BD0AC
:1011E000082AEFD0D9F8283068469847D1E7D9F8CF
:1011F0002C3068469847CCE794F83D30002BC8D196
:1012000084F83C20C5E794F83C0080F0010003B06E
:10121000BDE8F083C46B0020B49AFF1F2DE9F04FA6
:10122000DFF8B8802B4DD8F8003083B00446009327
:10123000DDF800A08946AB46238FD8F80020019244
:1012400013F0040F14BF0326012603F0030213F06A
:10125000080F18BF0226033A53425341019F89F8F1
:101260000030D5F80828D5F80C38D31A022BF8D05E
:10127000DBF8083803F0010303F500735BF8231073
:101280000029EED00122144825F0C2FDD4F8E02058
:10129000D4F8E4309A420AD0D4F8E4300133C4F8E8
:1012A000E430D4F8E020D4F8E4309A42F4D10A488B
:1012B00025F0BCFDD5F80838CAEB07070133632FCA
:1012C000C5F80838B8D9238F6387304603B0BDE826
:1012D000F08F00BF64630020746B0020C46B00209B
:1012E00008B527F0B3F803480349044ABDE80840AD
:1012F0002CF0DEBD8CAEFF1F29100000A892FF1F4E
:10130000431C30B4994200F1FF34C8BFD9B204EB9A
:10131000441421440B4D55F821107AB192FBF3F59A
:101320004FF0FF3403FB152204FA00F09B1A21EA68
:10133000000020FA03F100FA02F21143084630BC23
:10134000704700BFA4480300002301220270C0F8C8
:101350002431C0F82831C0F82C31C0F8303100F108
:1013600020026FF03F03D9010133402B22F8021F06
:10137000F9D170472DE9F0030478002C00F0A0802B
:1013800090F83641891AA1F5406C002C00F0868057
:1013900000F128057B260FFA8CF8002E11DD741061
:1013A00005EB440735F91410414505DC70E035F9CB
:1013B000116046456EDD0C46611005EB4107002CBF
:1013C000F5D100F12209C9EB05094FEA6909A9F134
:1013D000020189B20FFA89F90CB2A14577DB4FF609
:1013E000FF774FF4804500EB44040FFA85F8B4F919
:1013F0002260C6EB0C06002EB8BF7642B6B234B2FD
:10140000444501F10104B8BF0F46A1B20CB2B8BF08
:101410003546A145E7DA39B2BEB24C1C4F1E00EB8F
:10142000410100EB4404498CB4F9225000EB47071A
:101430000CB2B7F8228005EBC5054FF00709C4EBE5
:10144000C4044FF0090C1E4411FB095118FB0C4455
:1014500036B209112411002EC0F83011C0F82C4109
:1014600032DD7E2EB4BF31467E2189B28CB209B204
:1014700000EB4101A0F83441B1F92210C0F8241169
:10148000C0F82831114401F54060BDE8F003704711
:1014900021463446611A4E1EBD1C7EE7D0F82C1141
:1014A0008C45FFF675AFD0F830118C453FF770AF23
:1014B000D0F8281199427FF46BAFD0F82411E1E7FE
:1014C0000846BDE8F003704701210C46D0E74FF60F
:1014D000FF7600246FF001074FF0FF319FE700BF58
:1014E000002908DB7F29D6BF00EB4101B0F92001BC
:1014F000B1F922007047B0F922007047012380F84B
:1015000036317047704700BF002070470020704799
:1015100000207047012803D1024B00229A71DA7132
:10152000704700BF2C550020704700BF08B5084821
:101530000268002342F6E061126841624360436141
:1015400083608361C360C36103610362904708BD28
:1015500030B6FF1F014B1868704700BF50B1FF1F26
:10156000704700BF10B5044C236820469B6898471D
:10157000024B1B68A36210BD30B6FF1F9C180020F1
:10158000704700BF014B1868704700BF9CB0FF1F39
:10159000704700BF704700BF014B1868704700BF1D
:1015A000C4C5FF1F704700BF10B5054C204650F85A
:1015B000083F9B689847034B1B68236310BD00BF1F
:1015C00084EAFF1F9C180020704700BF002303F02F
:1015D00003020133102BC0F85C2700F10400F6D1A0
:1015E000704700BF08B508480268002342F6E06172
:1015F000126841624360436183608361C360C36179
:1016000003610362904708BD50F6FF1F014B186845
:10161000704700BF28290020704700BF10B5044C58
:10162000236820469B689847024B1B68A36210BD45
:1016300050F6FF1F9C180020704700BF0020704725
:101640000020704700207047084B03F1080007C8CE
:1016500010B45C680138013C0139013A5C60986063
:10166000D9601A615DF8044B704700BFA0B0FF1F3E
:10167000704700BF704700BF704700BF08B50848FB
:101680000268002342F6E0611268416243604361F0
:1016900083608361C360C36103610362904708BDD7
:1016A0003C4B00200020704700207047002070470E
:1016B000704700BF10B5044C236820469B689847CC
:1016C000024B1B68A36210BD3C4B00209C180020FD
:1016D000704700BF704700BF704700BF704700BF32
:1016E00008B508480268002342F6E06112684162CA
:1016F0004360436183608361C360C36103610362CC
:10170000904708BD405A00200020704700207047D5
:1017100000207047704700BF704700BF10B5044CF1
:10172000236820469B689847024B1B68A36210BD44
:10173000405A00209C180020704700BF704700BF2F
:1017400008B508480268002342F6E0611268416269
:101750004360436183608361C360C361036103626B
:10176000904708BD540A0020014B1868704700BF1D
:1017700010530020704700BF10B5044C236820466A
:101780009B689847024B1B68A36210BD540A002057
:101790009C180020704700BF70B51A4D2B78FC2BA9
:1017A0002CD0194A174B118932F8044BA980012615
:1017B00000212C8014886C80FF222C81A97103F1F8
:1017C0007204E9722973EE716E73AA729973DA73F7
:1017D0000233A342FAD10268322364254AF6E03488
:1017E0000021D268C0F8FC51C0F80042C0F80432B1
:1017F000C0F80832C0F88C10904770BD6B78E22BAF
:10180000CFD1E8E7905200208060030008B5084877
:101810000268002342F6E06112684162436043615E
:1018200083608361C360C36103610362904708BD45
:101830004C2D00200020704700207047002070478A
:10184000704700BF10B5044C236820469B6898473A
:10185000024B1B68A36210BD4C2D00209C18002079
:10186000704700BF00487047E06903000022322340
:10187000C2660267C0F88830C0F88C30704700BF7D
:1018800010B40549054C064A064B8460C1600261EC
:1018900043615DF8044B7047FC690300E86903008D
:1018A0000C6A03001C6A0300044B00EBC00003EB4E
:1018B0000010436FC3F101034367704700B4FF1F7B
:1018C000214B00EBC00003EB001070B4436FFBB979
:1018D000D0F888201D4D1E4C114481F308018B0364
:1018E00085FB03621A44DB17C3EBE21348F235228F
:1018F00002FB03F39A1384FB0252DB17C3EBE203F0
:10190000C0F888108367134B1B68C36770BC7047AF
:10191000D0F88C200D4D0E4C114481F308018B033F
:1019200085FB03621A44DB17C3EBE21348F235224E
:1019300002FB03F39A1384FB0252DB17C3EBE203AF
:10194000C0F88C108367DEE700B4FF1F81808080C1
:10195000797878789C180020044B00EBC00003EBEA
:101960000010C36DC3F10103C365704700B4FF1FCE
:10197000054B00EBC00003EB0013D3F88C00D3F849
:10198000883043EA0020704700B4FF1F064B00EB8D
:10199000C00003EB0013CAB2C1F30721C3F88820CB
:1019A000C3F88C10704700BF00B4FF1F0048704799
:1019B0002C6A030070B4002314261E2578244FF0EF
:1019C000FF321921066745678467C167C366C0F89F
:1019D000903080F89830C0F8943080F89930C0F892
:1019E0008820C0F88C2070BC704700BF10B4054937
:1019F000054C064A064B8460C160026143615DF894
:101A0000044B7047486A0300346A0300586A0300B5
:101A1000686A0300054BA42202FB0030C36E013349
:101A2000042BA8BF0023C366704700BFC05A002024
:101A300070B4154BA42202FB003085B0C36E026F58
:101A400000929B0004AAC46F466F856F01961A44EA
:101A50000295039452F8104C2144002942F8101CBE
:101A600010DDFF29A8BFFF2104AA134443F8101C6E
:101A700001A90EC9009C046741678267C36705B06E
:101A800070BC70470121EFE7C05A0020044BA4222C
:101A900002FB0030C36DC3F10103C365704700BF93
:101AA000C05A0020074BA42202FB0030836F416F15
:101AB000026FC06F1B0443EA0123134343EA006033
:101AC000704700BFC05A0020A4220A4B02FB00F25C
:101AD000981870B5C1F30726C1F307450C0EC9B2BB
:101AE00046678567C467016711B99B585B6898476B
:101AF00070BD00BFC05A002000487047706A0300E4
:101B000010B40549054C064A064B8460C160026169
:101B100043615DF8044B70478C6A0300786A0300E8
:101B2000A06A0300A86A0300054B4FF4DA7202FBB7
:101B30000030C36E0133022BA8BF0023C366704779
:101B4000D4320020044B4FF4DA7202FB0030C36D34
:101B5000C3F10103C3657047D4320020064B4FF434
:101B6000DA7202FB0030036FD0F8AC0193F8013455
:101B700043EA0020704700BFD4320020064B4FF4E8
:101B8000DA7202FB0030C1F30722036F83F80114FD
:101B9000C0F8AC21704700BFD43200200048704725
:101BA000B46A030010B40549054C064A064B84602C
:101BB000C160026143615DF8044B7047D06A030065
:101BC000C06A0300E46A0300F86A0300084B094A8C
:101BD0004FF48A7101FB0030036FC0F8002101331C
:101BE000032BC8BF0023036742F6E063836470479A
:101BF0005CE8FF1F10090500044B4FF48A7202FBDA
:101C00000030C36DC3F10103C36570475CE8FF1F7B
:101C10000B4B4FF48A7202FB0030D0F80811D0F859
:101C20000C31D0F80421D0F8100101390902013B30
:101C300041EA0313013A1343013843EA0030704785
:101C40005CE8FF1F004870470C6B03003F230367ED
:101C50004367704710B40549054C064A064B84603B
:101C6000C160026143615DF8044B7047186B03006B
:101C7000BC7B0300286B0300346B0300064B03EBB3
:101C8000C010C36E0133032BC8BF0023C36642F6E6
:101C9000E0638364704700BF2C540020114B03EBBA
:101CA000C01010B4C36E03EBD3725210D2B233F033
:101CB000020400EB820007D0036F5DF8044B194467
:101CC00081F3060101677047836F5DF8044B194487
:101CD0006FF03B023C29A8BF3C219142ACBF816719
:101CE000826770472C540020034B03EBC010C36D78
:101CF000C3F10103C36570472C540020084B03EB6C
:101D0000C01000F170010EC9C06F03F5807343EA83
:101D1000C14343EA426300F5807043EA8020704784
:101D20002C5400200B4B10B403EBC010C1F308027D
:101D3000C1F38824A4F58074C1F3C543A2F5807271
:101D4000C1F34561C4678267036741675DF8044B6F
:101D5000704700BF2C54002000487047486B0300B8
:101D600010B40549054C064A064B8460C160026107
:101D700043615DF8044B7047606B0300546B0300D4
:101D8000746B0300846B0300054B4FF4B67202FBC7
:101D90000030C36E0133052BA8BF0023C366704714
:101DA000E01D0020044B4FF4B67202FB0030C36DFF
:101DB000C3F10103C3657047E01D00200B4B4FF4D6
:101DC000B67202FB003000F5AC7110B41AC91B03E7
:101DD000D0F8642190F9680143EA84130B4343EA85
:101DE000824343EA00605DF8044B7047E01D002029
:101DF00030B40D4B4FF4B67202FB003001F03F05DA
:101E0000C1F38514C1F30532C1F38543C1F3056104
:101E100080F86811C0F85851C0F86041C0F85C21E2
:101E2000C0F8643130BC7047E01D002000487047A6
:101E3000906B030032220023C2660367704700BF25
:101E400010B40549054C064A064B8460C160026126
:101E500043615DF8044B7047AC6B03009C6B03005F
:101E6000B46B0300C46B0300044B742202FB00300C
:101E7000036FC3F101030367704700BF3C070020F5
:101E8000064B742202FB0030C36E19446429A8BFBC
:101E9000642121EAE171C166704700BF3C07002060
:101EA000044B742202FB0030C36DC3F10103C36510
:101EB000704700BF3C070020024B742202FB003039
:101EC000C06E70473C070020034B742202FB0030B9
:101ED00001F07F01C16670473C0700200048704751
:101EE000CC6B0300002310B4012104243222C0F87B
:101EF0008440C0F88C10C0F88820C366436780F81F
:101F00007830C0F880305DF8044B704710B4054954
:101F1000054C064A064B8460C160026143615DF86E
:101F2000044B7047E46B0300D46B0300F86B0300B1
:101F3000086C0300084B00EBC00003EB0010C36EFD
:101F40000133022BC36605DC03D190F8783003B966
:101F5000C36670470023FBE77CAFFF1F284B00EBF5
:101F6000C00003EB0010C36E53B9D0F8843019449D
:101F7000002941DD0C29A8BF0C21C0F8841070474E
:101F8000012B0BD1D0F888301944072929DC08210E
:101F90000023C0F8881080F878307047022B1BD1DE
:101FA000D0F88C300B44082B17DC13F1080F04DA3F
:101FB0006FF00703C0F88C307047C0F88C3033B92D
:101FC0000029D4BF6FF001030123C0F88C30013326
:101FD00004BF0123C0F88C3070470823C0F88C3050
:101FE0007047B1F5FA7FA8BF4FF4FA710023C0F82B
:101FF000881080F8783070470121C0F8841070474D
:102000007CAFFF1F044B00EBC00003EB0010C36D5F
:10201000C3F10103C36570477CAFFF1F084B00EBA2
:10202000C00003EB0010D0F88820D0F88430D0F83E
:102030008C0043EA0223083043EA0040704700BFA7
:102040007CAFFF1F084B00EBC00003EB0013C1F394
:102050000742C8B2083AC1F30721C3F88400C3F8A5
:102060008810C3F88C2070477CAFFF1F0048704772
:10207000246C0300002380F86D3080F86C30036717
:10208000704700BF10B40549054C064A064B8460F2
:10209000C160026143615DF8044B7047BC7B030083
:1020A0001C6C03002C6C03003C6C0300064B742278
:1020B00002FB0030012290F86D3080F86C20534014
:1020C00080F86D30704700BFF81C0020704700BFDB
:1020D000044B742202FB0030C36DC3F10103C365DE
:1020E000704700BFF81C002000207047704700BFF9
:1020F000004870474C6C030010B40549054C064A73
:10210000064B8460C160026143615DF8044B704717
:10211000546C0300C06A0300686C03007C6C03000D
:10212000114B40F2FC6202FB0030C36E032B07D060
:102130000133032BC36610DC42F6E063836470470F
:10214000D0F8F036002BC5BFB0F8F436B0F8F6265C
:102150000023C3EB0203A0F8FA360023C36642F65D
:10216000E0638364704700BF6CD7FF1F304B40F2C1
:10217000FC6202FB003030B4C36EDBB9B0F9F42668
:10218000B0F8F6568C1805D42BB2013B9C42B8BF70
:1021900023469BB21CB2A242A0F8F43605D0B0F898
:1021A000FA3613B1591AA0F8FA1642F6E0638364BE
:1021B00030BC7047012B19D1B0F9F636B0F9F426CE
:1021C000CC18013294421EDA92B214B2A342A0F8A3
:1021D000F626EAD0B0F8FA36002BE6D0194442F6DB
:1021E000E063A0F8FA16836430BC7047022B10D16C
:1021F0000029D4BF0021012142F6E06380F8EC16EB
:10220000836430BC704740F27F129442B8BF2246CC
:10221000DAE7032BC9D1D0F8F0360B4483F302037D
:10222000C0F8F03642F6E063836430BC704700BF0C
:102230006CD7FF1F044B40F2FC6202FB0030C36D01
:10224000C3F10103C36570476CD7FF1F074B40F212
:10225000FC6202FB003090F8EC16B0F9F626B0F9FB
:10226000F436880440EA4220184370476CD7FF1FB9
:10227000084B40F2FC6202FB0030C1F30802C1F3DC
:102280004823C1F38041A0F8F426A0F8F63680F880
:10229000EC1670476CD7FF1F8842A8BF08467047EE
:1022A0008842B8BF0846704701440548B1F5F05F61
:1022B000A8BF4FF4F0518142A8BF0846704700BF45
:1022C00000EEFFFF884206DC8842B4BF03460B469F
:1022D0000846C01A70470B46C01A7047084400EB06
:1022E000D0704010704700BF00487047906C0300EA
:1022F000F0B4174C07460FCC8EB06D460FC594E86E
:1023000007000C3485E807000FCC07AE35460FC533
:1023100094E80700002385E807000122C7F8B020F1
:10232000C7F8B430C7F8AC3087F8B830384687F80B
:10233000B9305DF80310F258C16604331C2BC0F8A5
:10234000882000F10400F4D10EB0F0BC704700BF4B
:102350008C60030010B40549054C064A064B8460A6
:10236000C160026143615DF8044B7047B06C0300CB
:102370009C6C0300BC6C0300D06C0300064BBC22B9
:1023800002FB003042F6E062D0F8B4308264C3F160
:102390000103C0F8B4307047085C00200C4BBC222D
:1023A00002FB003030B4D0F8B42000EB82031044BC
:1023B000D3F8AC4021440629B4BF0C4606240025BE
:1023C00024EAE474C3F8AC4080F8B85030BC7047DD
:1023D000085C0020044BBC2202FB0030C36DC3F13B
:1023E0000103C365704700BF085C0020054BBC2299
:1023F00002FB0033D3F8B000D3F8AC3043EA00203E
:10240000704700BF085C0020054BBC2202FB003077
:10241000CBB2C1F30721C0F8AC30C0F8B0107047A0
:10242000085C002000487047DC6C030010B40549CC
:10243000054C064A064B8460C160026143615DF849
:10244000044B7047E86C0300C06A0300F06C0300A3
:10245000046D0300294BA82202FB00302DE9F00394
:10246000C66E012E19D00136022E0FDD0023C36681
:1024700042F6E0638364BDE8F00370474FF4FA73FB
:10248000C0F89880C0F8A420C0F8A03042F6E063FD
:10249000C6668364BDE8F0037047D0F89480D0F836
:1024A0009830984527D0164FC8EB081C07EB8C03D3
:1024B00000225D6BC26601460BE0D9F8044003EBD5
:1024C000430304EB8303102AA1F8723001F10201E7
:1024D000D4D00C4B92FBF5F405FB14292340E144C6
:1024E000002B07EB890902F10102E6DA013B63F0F8
:1024F00003030133E1E70223C366B9E7382700206D
:10250000EC990300030000801F4BA82202FB00305F
:10251000C36E93B990F8703000EB4303B3F87220A8
:10252000114409B211F1180F14DA4FF6E871A3F84B
:102530007210012380F892307047012B0FD1D0F830
:10254000943019443629A8BF362121EAE171C0F838
:10255000941070473C29A8BF3C2189B2E7E7022BC1
:10256000E7D1D0F89C3019441829A8BF18216FF082
:1025700017039942ACBFC0F89C10C0F89C300123EF
:1025800080F89230704700BF38270020044BA82203
:1025900002FB0030C36DC3F10103C365704700BF88
:1025A00038270020064BA82202FB0030D0F89C20E0
:1025B000D0F8983002F1180043EA0020704700BFBD
:1025C000382700202DE9F0035FFA81F81E4F1F4BDA
:1025D000C8EB081C07EB8C04A82202FB0030666BDA
:1025E000002204460BE0D9F8045003EB430305EB4B
:1025F0008303102AA4F8723004F1020411D0144BA2
:1026000092FBF6F506FB15292B40E144002B07EB66
:10261000890902F10102E6DA013B63F003030133A9
:10262000E1E7C1F3072118394FF4FA73C0F8988035
:10263000C0F89480C0F89C10C0F8A420C0F8A03066
:10264000BDE8F003704700BFEC9903003827002075
:102650000300008000487047186D0300002301212B
:102660000222C16602674367C3678367C0F8803090
:10267000C0F88830C0F88430704700BF10B40549F6
:10268000054C064A064B8460C160026143615DF8F7
:10269000044B7047246D0300C06A0300386D0300CB
:1026A000486D0300064B8C2202FB003042F6E062CC
:1026B000D0F884308264C3F10103C0F884307047DD
:1026C00014530020134B8C2202FB0030D0F88430CE
:1026D00000EB8300C36E0B44082B04DD0823C366A4
:1026E00000234367704713F1080F05DA6FF0070303
:1026F000C366002343677047C3662BB90029D4BF64
:102700006FF001030123C366013304BF0123C366D5
:10271000E6E700BF14530020044B8C2202FB00307C
:10272000C36DC3F10103C365704700BF145300209C
:10273000054B8C2202FB0030C36E026F203302F186
:10274000200043EA002070471453002000487047DF
:10275000546D0300704700BF704700BF024B836099
:10276000C360036143617047BC7B0300054B742267
:1027700002FB0030C36E0133032BA8BF0023C366E6
:10278000704700BF4CB2FF1F1E4B742202FB00308B
:10279000C36E33B9036F1A7C82B100221A745A7463
:1027A0007047012B12D1036FDA89114489B20929CC
:1027B0001AD8154A1A600A21D98170475A7C002A12
:1027C000EBD101215A75197459747047022BFCD151
:1027D000036F9A7C114449B2002910DD1829A8BF63
:1027E0001821C9B299747047084AB1F5967F28BF7D
:1027F0004FF4967192FBF1F21A60D9817047012172
:10280000997470474CB2FF1FA086010040420F0030
:10281000044B742202FB0030C36DC3F10103C36596
:10282000704700BF4CB2FF1F084B742202FB003000
:10283000036F1A7C587C0AB100B90120D98993F939
:1028400012204B0043EA8223184370474CB2FF1F0B
:102850001C4B742202FB003010B411F00104036F12
:102860001CD001221A745A74C1F348020020092AAC
:10287000587519D91448B2F5967F28BF4FF496724F
:1028800090FBF2F0C1F384211860DA81A1B118291C
:10289000A8BF182199745DF8044B7047C1F3480232
:1028A000092A1C745C74E5D8084818600A22C1F330
:1028B0008421DA810029EAD1012199745DF8044B61
:1028C000704700BF4CB2FF1F40420F00A0860100BE
:1028D00000487047606D0300002364214B22A0F87C
:1028E0006C10A0F86E20036743677047034B0449E0
:1028F000044AC16042618360036170476C6D0300EC
:102900007C6D0300C46B0300054BC0EB401003EB70
:10291000800090F87830C3F1010380F87830704778
:10292000805D00200C4BC0EB401003EB800090F862
:10293000783000EB4300B0F86C30194409B200293C
:1029400006DB6429A8BF642189B2A0F86C10704727
:102950000021A0F86C107047805D0020044BC0EB94
:10296000401003EB8000C36DC3F10103C3657047E2
:10297000805D0020054BC0EB401003EB8003B3F9F2
:102980006E00B3F96C3043EAC0107047805D0020E0
:10299000064BC0EB401003EB800001F07F03C1F356
:1029A000C611A0F86C30A0F86E107047805D002052
:1029B000004870478C6D030080220023C2660367C5
:1029C000704700BF10B40549054C064A064B8460A9
:1029D000C160026143615DF8044B7047946D030070
:1029E000BC7B0300A86D0300BC6D0300704700BFF3
:1029F000054BC0EB001003EBC000C36E194481F31C
:102A00000803C366704700BFC0500020044BC0EBF2
:102A1000001003EBC000C36DC3F10103C365704731
:102A2000C0500020034BC0EB001003EBC003D86E76
:102A3000704700BFC0500020034BC0EB001003EBF9
:102A4000C003C9B2D9667047C05000200048704723
:102A5000C86D0300704700BF10B40549054C064A15
:102A6000064B8460C160026143615DF8044B7047AE
:102A7000E06D0300D46D0300E86D0300F86D030002
:102A8000064BC0EB401003EB800042F6E062C36EE1
:102A90008264C3F10103C366704700BF54B1FF1FD6
:102AA000184BC0EB401003EB800010B4C36E3BB971
:102AB000036F5DF8044B5B1A83F3030303677047EE
:102AC000436F1944002919DD0D29A8BF0D21416765
:102AD000C1F10D0400231A4601335200DBB292B259
:102AE000994242F00102F7DAA2406FEA82426FEAAD
:102AF0009242A0F87A205DF8044B704701214167AB
:102B00000C24E7E754B1FF1F044BC0EB401003EB6C
:102B10008000C36DC3F10103C365704754B1FF1F4B
:102B2000044BC0EB401003EB8003586F1B6F43EA6C
:102B3000C000704754B1FF1F0F4BC0EB401003EBB8
:102B4000800001F007020023C1F3C301026741675F
:102B50001A4601335200DBB292B2994242F00102AE
:102B6000F7DAC1F10D018A406FEA82426FEA9242C0
:102B7000A0F87A20704700BF54B1FF1F004870478B
:102B8000046E030010B40549054C064A064B8460E8
:102B9000C160026143615DF8044B7047246E03001D
:102BA000106E0300346E0300486E0300084B4FF4B0
:102BB0003E7202FB0030D0F8E8320133032BC8BF6D
:102BC0000023C0F8E83242F6E0638364704700BF38
:102BD000700D0020044B4FF43E7202FB0030C36DB9
:102BE000C3F10103C3657047700D0020094B4FF41A
:102BF0003E7202FB003090F8F432D0F8F012D0F8B8
:102C0000EC2290F8F5021B0443EA0123134343EA44
:102C100000507047700D002000487047546E03004C
:102C200010B40549054C064A064B8460C160026138
:102C300043615DF8044B7047686E0300606E0300EB
:102C4000287403007C6E0300054B4FF4437202FBB3
:102C50000030C36E0133042BA8BF0023C366704746
:102C600000FEFF1F044B4FF4437202FB0030C36DA4
:102C7000C3F10103C365704700FEFF1F094B4FF40A
:102C8000437202FB003090F8013390F8B91190F9CB
:102C9000712090F80403DB0243EAC113134343EAB3
:102CA000C030704700FEFF1F004870478C6E030065
:102CB000002310B40A220124A62180F88F4080F856
:102CC0007810036780F88E30436780F88C2080F896
:102CD0008D205DF8044B704710B40549054C064A39
:102CE000064B8460C160026143615DF8044B70472C
:102CF000986E0300BC7B0300A46E0300B06E03005B
:102D0000084B00EBC00003EB001090F86C3001336F
:102D1000DBB2032B88BF002380F86C3042F6E063FF
:102D200083647047805E0020134B00EBC00003EB10
:102D3000001090F86C30012B0BD9023B034493F840
:102D40008E2082F0010283F88E2042F6E0638364D5
:102D50007047034493F88C201144002909DD1F2992
:102D6000A8BF1F21C9B283F88C1042F6E0638364C8
:102D700070470121F7E700BF805E0020044B00EBA5
:102D8000C00003EB0010C36DC3F10103C3657047BE
:102D9000805E0020094B00EBC00003EB001090F8B0
:102DA0008E3090F88D1090F88C2090F88F009B0258
:102DB00043EA4113134343EAC0207047805E00207A
:102DC0000C4B00EBC00003EB001010B4C1F3441235
:102DD00001F01F04C1F3802380F88C40C1F3C021AF
:102DE00080F88D2080F88E3080F88F105DF8044BCD
:102DF000704700BF805E002000487047BC6E030033
:102E000010B400231946C2180433B3F5807FD1668D
:102E10004FF00002F7D14FF47A741346A0F87422F1
:102E2000C0F878221146C0F86C42C2180433B3F5DA
:102E3000807FC2F86C114FF00002F6D14FF47A7324
:102E4000A0F87622C0F87C2280F88022A0F88222A6
:102E5000C0F870325DF8044B704700BF10B40549EC
:102E6000054C064A064B8460C160026143615DF80F
:102E7000044B7047D46E0300C86E0300E86E030075
:102E8000F46E0300054B4FF4217202FB003090F802
:102E90008032C3F1010380F880327047B8200020EF
:102EA000104B4FF4217202FB003090F8803200EB9F
:102EB0008300D0F86C32642B09DDB3F5FA7F4FEA5A
:102EC000410104DD4900B3F57A7FC8BF49000B44D6
:102ED000B3F5FA6FA8BF4FF4FA6323EAE373C0F8BF
:102EE0006C327047B8200020044B4FF4217202FB73
:102EF0000030C36DC3F10103C3657047B8200020E3
:102F0000054B4FF4217202FB0033D3F87002D3F863
:102F10006C3243EAC0207047B8200020114B70B4D7
:102F200001224FF4217404FB00301646134606FAC2
:102F300003F501330B2B42EA0502F8D101240A40C4
:102F4000C0F86C222346254605FA03F201330B2B09
:102F500044EA0204F8D104EAD124C0F8704270BCFB
:102F6000704700BFB820002000487047006F030082
:102F70000023C3660367704710B40549054C064A31
:102F8000064B8460C160026143615DF8044B704789
:102F9000206F03000C6F0300346F0300486F0300C1
:102FA000704700BF0D4A0E4B10B4742404FB002080
:102FB000C26E11446429A8BF642121EAE1718A0329
:102FC00083FB0243D217C2EB6313C3EB031343F338
:102FD0005113C16603675DF8044B7047B4170020B6
:102FE0001F85EB51044B742202FB0030C36DC3F10B
:102FF0000103C365704700BFB4170020002070476D
:10300000704700BF00487047586F03000823C0F89E
:1030100074387F210023C2180133B3F5006F82F8A2
:103020006C10F8D1704700BF10B40549054C064A32
:10303000064B8460C160026143615DF8044B7047D8
:10304000786F0300646F0300886F03009C6F0300B8
:10305000084B40F67C0202FB0030002390F86C28FD
:1030600080F86E3882F0010280F86C28C0F8703861
:10307000704700BF443A00200B4B40F67C0202FB35
:103080000030D0F8783803EB41111F2907DDB1F586
:10309000006FA8BF4FF40061C0F878187047202176
:1030A000C0F87818704700BF443A0020044B40F63F
:1030B0007C0202FB0030C36DC3F10103C36570479E
:1030C000443A002000207047704700BF0840704716
:1030D0000843704748407047084080F0010070473F
:1030E000084380F001007047431A58425841704726
:1030F0000020704700487047AC6F0300F0B4154CD7
:1031000007460FCC8EB06D460FC594E807000C340F
:1031100085E807000FCC07AE35460FC594E80700D9
:10312000002385E807000222C7F8A820C7F8B830B6
:10313000C7F8A43038465DF80310F258C16604336E
:103140001C2BC0F8882000F10400F4D10EB0F0BCB4
:10315000704700BFC460030010B40549054C064A1F
:10316000064B8460C160026143615DF8044B7047A7
:10317000C46F0300B46F0300BC6C0300D06C030089
:10318000064BBC2202FB003042F6E062D0F8B830B9
:103190008264C3F10103C0F8B8307047C025002035
:1031A0000C4BBC2202FB0030D0F8B83000EB83009F
:1031B000D0F8A4301944072907D00029B6BF062348
:1031C000C0F8A410C0F8A43070470023C0F8A430A1
:1031D000704700BFC0250020044BBC2202FB00301A
:1031E000C36DC3F10103C365704700BFC025002054
:1031F000054BBC2202FB0033D3F8A800D3F8A4305F
:1032000043EA0020704700BFC0250020054BBC22C8
:1032100002FB0030CBB2C1F30721C0F8A430C0F8E4
:10322000A8107047C025002000487047D86F0300E1
:103230008022402302674367704700BF10B40549EE
:10324000054C064A064B8460C160026143615DF82B
:10325000044B7047F86F0300E46F0300087003002D
:1032600010700300044BC0EB401003EB8000836F31
:10327000C3F101038367704764E5FF1F0C4BC0EB8C
:10328000401003EB8000836F2BB9036F0B4483F373
:10329000080303677047012B05D1436F19440329C5
:1032A00002DC0421416770477F29A8BF7F21F9E72D
:1032B00064E5FF1F044BC0EB401003EB8000C36DBF
:1032C000C3F10103C365704764E5FF1F054BC0EB05
:1032D000401003EB800393F8740093F8703043EAD6
:1032E0000020704764E5FF1F054BC0EB401003EB67
:1032F0008003CAB2C1F307211A675967704700BF3C
:1033000064E5FF1F004870471C700300704700BF52
:10331000034B0449044A016142618360C360704702
:10332000BC7B0300287003003C700300704700BFA3
:103330000C4B742202FB0030036FDA8911448AB20D
:10334000092A0AD90849B2F5967F28BF4FF4967228
:1033500091FBF2F11960DA817047044919600A2281
:10336000DA817047E84D002040420F00A08601003E
:10337000044B742202FB0030C36DC3F10103C3652B
:10338000704700BFE84D0020054B742202FB00305F
:10339000036F93F91200DB89013843EA004070475C
:1033A000E84D002000487047447003007F23036706
:1033B000704700BF10B40549054C064A064B8460AF
:1033C000C160026143615DF8044B704750700300B7
:1033D000BC7B03005C70030070700300704700BF8B
:1033E000044B742202FB0030036F194481F308037D
:1033F0000367704734550020044B742202FB0030F1
:10340000C36DC3F10103C365704700BF345500208D
:10341000024B742202FB0030006F704734550020CD
:10342000034B742202FB0030C9B20167704700BF32
:1034300034550020004870477870030000221021A6
:10344000C0F8C010134680F8BC20C0F8AC2011466C
:10345000C2180433402BD166FAD1704710B4054925
:10346000054C064A064B8460C160026143615DF809
:10347000044B70479470030084700300A87003002D
:10348000BC700300074BCC2202FB0030D0F8B830F0
:103490000133022BC8BF0023C0F8B83042F6E06306
:1034A00083647047180400201A4BCC2202FB0030C2
:1034B000D0F8B8306BB9D0F8C43019446429A8BF2B
:1034C000642121EAE171C0F8C41042F6E06383642C
:1034D0007047012B0DD1D0F8C830591A6429A8BF04
:1034E000642121EAE17142F6E063C0F8C810836408
:1034F0007047022BE9D1D0F8C0201144012903DD27
:103500001029B4BF0B461023C0F8C03042F6E06368
:103510008364704718040020044BCC2202FB003067
:10352000C36DC3F10103C365704700BF18040020D9
:10353000074BCC2202FB0030D0F8C820D0F8C430B2
:10354000D0F8C00043EAC213013843EA8030704724
:10355000180400200A4B10B4CC2404FB0030C1F343
:10356000833201F07F030132C1F3C611C0F8C020DD
:10357000C0F8C430C0F8C8105DF8044B704700BFF5
:103580001804002000487047D07003004FF44063D7
:10359000A0F86E30704700BF10B40549054C064ACC
:1035A000064B8460C160026143615DF8044B704763
:1035B000DC700300786A0300E8700300F870030011
:1035C000704700BF0C4BC0EBC00003EB0010B0F81D
:1035D0006E3003EBC11189B2B1F5C06F07DBB1F5F5
:1035E000F05FA8BF4FF4F051A0F86E1070474FF491
:1035F000C061A0F86E107047B0510020044BC0EBC2
:10360000C00003EB0010C36DC3F10103C365704735
:10361000B0510020034BC0EBC00003EB0013B3F824
:103620006E007047B05100200A4B0122C0EBC00071
:1036300030B403EB00151446134604FA03F00133CB
:10364000102B42EA0002F8D10A40A5F86E2030BCE7
:10365000704700BFB051002000487047047103005C
:1036600010B40549054C064A064B8460C1600261EE
:1036700043615DF8044B704724710300107103002F
:103680002C710300347103000B4B4FF4D87202FB12
:10369000003090F8A8311BB9B1F1FF3253425341C9
:1036A0001944C9B21729A8BF172142F6E06380F870
:1036B000A8118364704700BF64130020044B4FF4CB
:1036C000D87202FB0030C36DC3F10103C3657047BC
:1036D00064130020054B4FF4D87202FB0033B3F89B
:1036E000A601B3F8A43143EA003070476413002008
:1036F000004870474471030000234FF448614FF4C1
:103700007862A0F87810A0F87A20C3664367704703
:1037100010B40549054C064A064B8460C16002613D
:1037200043615DF8044B7047186B0300BC7B0300DA
:103730005071030060710300054BC0EB401003EBB8
:103740008000C36E0133032B08BF0023C36670479C
:1037500074D6FF1F1A4BC0EB401003EB8000C36E02
:10376000012B17D0022B11D1B0F87A20B0F87830A5
:1037700002EB811189B240338B4205DCB1F5F05F79
:10378000B4BF0B464FF4F053A0F87A3042F6E06332
:1037900083647047B0F87830B0F87A2003EB811179
:1037A00089B23F2906DC402142F6E063A0F8781098
:1037B00083647047403A9142A8BF114689B2F3E74B
:1037C00074D6FF1F044BC0EB401003EB8000C36DA9
:1037D000C3F10103C365704774D6FF1F054BC0EBEF
:1037E000401003EB8003B3F87A00B3F8783043EA73
:1037F0000040704774D6FF1F114B0122C0EB4010F0
:1038000070B403EB80061546134605FA03F4013342
:10381000102B42EA0402F8D101200A40A6F87820D1
:103820000346044604FA03F20133102B40EA020077
:10383000F8D100EA1141A6F87A1070BC704700BFB9
:1038400074D6FF1F0048704770710300064B1B6859
:10385000C3664FF4A0720023C0F8BC20036780F851
:103860007830C0F8CC3070479C18002010B405495F
:10387000054C064A064B8460C160026143615DF8F5
:10388000044B7047B06C0300787103008C71030027
:1038900098710300054BD02202FB003090F878307D
:1038A00083F0010380F87830704700BF40F1FF1FBC
:1038B0000E4BD02202FB0030D0F8BC301F2BCABF09
:1038C00001EB81015B1803EB4103012B0BDDB3F529
:1038D0007A4FA8BF4FF47A43054AC0F8BC3013684A
:1038E000C0F8C83070470223F6E700BF40F1FF1F61
:1038F0009C180020044BD02202FB0030C36DC3F1A2
:103900000103C365704700BF40F1FF1F00207047EF
:10391000704700BF00487047AC71030010B4054900
:10392000054C064A064B8460C160026143615DF844
:10393000044B7047B8710300C06A0300C4710300F0
:10394000D8710300054B00EBC00003EB0010C36E01
:103950000133052B08BF0023C3667047B019002050
:10396000194B00EBC00003EB001010B4C26E00EB6B
:1039700082035C6F091914D459671E29B4BF0C4621
:103980001E245C6790F87030012101FA02F223EAEC
:10399000020280F87020012380F88C305DF8044B1F
:1039A0007047002A0DDD90F87030012101FA02F213
:1039B0001A4380F87020012380F88C305DF8044BA6
:1039C000704759670024DCE7B0190020044B00EB76
:1039D000C00003EB0010C36DC3F10103C365704762
:1039E000B019002010B40C4B00EBC00003EB00102A
:1039F000002302461946546F9C400533192B41EAB7
:103A0000040102F10402F6D190F870005DF8044B55
:103A100041EA4060704700BFB01900200C4B00EB3A
:103A2000C00010B403EB00142246002321FA03F077
:103A3000053300F01F00192B506702F10402F5D185
:103A4000C1F3446184F870105DF8044B704700BF07
:103A5000B019002000487047E071030010B4054918
:103A6000054C064A064B8460C160026143615DF803
:103A7000044B7047EC710300786A03000072030086
:103A800014720300054BC0EB001003EBC000C36EC3
:103A90000133042BA8BF0023C3667047D04E00201B
:103AA000154BC0EB001003EBC000C36E012B1BDDF8
:103AB000023BDBB2012263B9104490F9743019441F
:103AC000002914DD1029A8BF1021C9B280F8741094
:103AD0007047012B07D1104490F8763083F0010332
:103AE00080F8763070477047DBB20022E3E70121AF
:103AF00080F87410704700BFD04E0020044BC0EB1C
:103B0000001003EBC000C36DC3F10103C365704730
:103B1000D04E00200E4B10B4C0EB001003EBC000E1
:103B200090F8763090F87740B0F8701090F97420E3
:103B300090F975001B0243EA442343EA0143013A2A
:103B40001343013843EA00105DF8044B704700BF8F
:103B5000D04E0020134BC0EB001070B403EBC00537
:103B600001F00F06C1F303140134C1F34023012215
:103B70000136C1F3002085F8754085F8773085F867
:103B8000746085F876001346144604FA03F0013396
:103B9000102B42EA0002F8D102EA1142A5F8702087
:103BA00070BC7047D04E0020004870472072030060
:103BB00000230122C266A0F88030A0F8823080F88D
:103BC00070304367704700BF10B40549054C064A82
:103BD000064B8460C160026143615DF8044B70472D
:103BE00028720300C06A03003C72030044720300A1
:103BF000044B00EB401003EB8000C36EC3F10103E4
:103C0000C3667047680C00200C4B00EB401003EBC0
:103C10008000C36E00EB4300B0F88030194409B255
:103C2000002906DB6329A8BF632189B2A0F88010B0
:103C300070470021A0F88010704700BF680C00207A
:103C4000044B00EB401003EB8000C36DC3F1010394
:103C5000C3657047680C0020054B00EB401003EB78
:103C60008003B3F98200B3F9803043EAC010704793
:103C7000680C0020064B00EB401003EB800001F0C5
:103C80007F03C1F3C611A0F88030A0F882107047FE
:103C9000680C002000487047547203003D22002346
:103CA000C266026743678367704700BF10B4054967
:103CB000054C064A064B8460C160026143615DF8B1
:103CC000044B704768720300607203007C7203004B
:103CD0008C720300044B00EB401003EB8000436F39
:103CE000C3F1010343677047C8C5FF1F0C4B00EBCE
:103CF000401003EB8000436F43B9C36E1944782929
:103D0000A8BF782121EAE171C1667047036F1944A9
:103D10007829A8BF782121EAE1710167704700BFC7
:103D2000C8C5FF1F044B00EB401003EB8000C36DC0
:103D3000C3F10103C3657047C8C5FF1F044B00EB07
:103D4000401003EB8003D86E1B6F43EA00207047DE
:103D5000C8C5FF1F054B00EB401003EB8003CAB240
:103D6000C1F307211A67D966704700BFC8C5FF1F96
:103D7000004870479872030000223223426782672E
:103D8000C3660367704700BF10B40549054C064A77
:103D9000064B8460C160026143615DF8044B70476B
:103DA000B4720300A0720300C8720300D87203004B
:103DB000044B00EB001003EBC000C36FC3F1010321
:103DC000C3677047A0180020234B00EB001003EBE3
:103DD000C00030B4C36F0BBBC46E204B204D2144D8
:103DE000C829A8BFC82121EAE1718A0383FB0243E5
:103DF000D217C2EBA3124FF47A4303FB02F39A13D8
:103E000085FB0242DB17C3EBE203C166C0F88030DA
:103E1000144B1B68C0F8843030BC7047046F0F4BE4
:103E20000F4D2144C829A8BFC82121EAE1718A03A6
:103E300083FB0243D217C2EBA3124FF47A4303FB76
:103E400002F39A1385FB0242DB17C3EBE20301671F
:103E5000C0F88030DCE700BFA01800201F85EB51C0
:103E6000797878789C180020044B00EB001003EB65
:103E7000C000C36DC3F10103C3657047A0180020E3
:103E8000044B00EB001003EBC003186FDB6E43EA3A
:103E900000207047A0180020054B00EB001003EB3A
:103EA000C003CAB2C1F30721DA661967704700BFC1
:103EB000A018002000487047E472030010B40549C0
:103EC000054C064A064B8460C160026143615DF89F
:103ED000044B704700730300EC720300147303007B
:103EE00024730300054B4FF4DE7202FB0030C36EF7
:103EF0000133032BA8BF0023C36670475C2F00204B
:103F0000044B4FF4DE7202FB0030C36DC3F10103BA
:103F1000C36570475C2F0020094B4FF4DE7202FB33
:103F20000030B0F9BA21B0F9B811D0F8B43130325C
:103F3000120401F1300042EA00201843704700BF2C
:103F40005C2F002000487047307303000123036793
:103F50004367704710B40549054C064A064B846018
:103F6000C160026143615DF8044B70474873030010
:103F70003873030050730300BC7B0300704700BF1D
:103F8000704700BF044BC0EB001003EBC000C36DD3
:103F9000C3F10103C3657047C416002000207047B9
:103FA000704700BF00487047647303000023C36676
:103FB000704700BF10B40549054C064A064B8460A3
:103FC000C160026143615DF8044B70478473030074
:103FD0007073030090730300A0730300064B8C22E0
:103FE00002FB0030C36E0133032BC8BF0023C3663E
:103FF00042F6E0638364704774D1FF1F104B8C223C
:1040000002FB0030C36E022B0DDC00EB83006FF06F
:104010000802036F19440929A8BF09219142ACBFC6
:10402000016702677047C36F19441B29A8BF1B2192
:104030006FF01A039942ACBFC167C367704700BFF6
:1040400074D1FF1F044B8C2202FB0030C36DC3F1FF
:104050000103C365704700BF74D1FF1F094B8C2259
:1040600002FB0030816F436F026FC06F093189021C
:10407000093341EA4313093213431B3043EAC0308A
:10408000704700BF74D1FF1F0B4B10B48C2404FB8E
:10409000003001F01F02C1F34414C1F38423C1F3C3
:1040A000C531093C093A093B1B39446702678367FC
:1040B000C1675DF8044B704774D1FF1F004870471B
:1040C000B073030010B40549054C064A064B8460E2
:1040D000C160026143615DF8044B7047D073030017
:1040E000BC730300E4730300F8730300054B4FF443
:1040F000DC7202FB0030036F0133032BA8BF0023E7
:1041000003677047E0F2FF1F044B4FF4DC7202FBC1
:104110000030C36DC3F10103C3657047E0F2FF1FB8
:10412000094B4FF4DC7202FB003090F9B431D0F847
:10413000B011B0F8AC21C06EDB0643EA0143134373
:10414000013843EAC0507047E0F2FF1F0048704753
:104150000C74030000230121282280F89910C0F874
:104160009C2080F89830C0F88C3080F89630C0F8E9
:10417000903080F89730C0F88830704710B4054907
:10418000054C064A064B8460C160026143615DF8DC
:10419000044B704718740300BC7B030024740300B5
:1041A00034740300074B00EB800003EB4010C36E38
:1041B0000133022BC8BF0023C36642F6E063836469
:1041C000704700BFC0B2FF1F124B00EB800003EB33
:1041D0004010C36E012B0EDDD0F89C30194403292A
:1041E00003DC0421C0F89C1070477C29A8BF7C2107
:1041F000C0F89C1070471844012290F8983080F85D
:10420000942019440529A8BF052121EAE17180F80D
:1042100098107047C0B2FF1F044B00EB800003EB07
:104220004010C36DC3F10103C3657047C0B2FF1FE7
:10423000074B00EB800003EB4010D0F89C1090F887
:10424000992090F89830080240EA0210184370470D
:10425000C0B2FF1F084B00EB800003EB4013C1F31B
:10426000031201F00F00C1F3072183F8980083F8CF
:104270009920C3F89C107047C0B2FF1F00487047D8
:104280004874030010B40549054C064A064B846087
:10429000C160026143615DF8044B704750740300D4
:1042A000C06A030060740300A0730300084B00EBB6
:1042B000401003EB8000D0F880300133052BC8BFDD
:1042C0000023C0F8803042F6E0638364704700BF8B
:1042D00034060020184B00EB401003EB800030B494
:1042E000D0F88020022AD4BF002301239C001D1B8C
:1042F0002A44022A18D00344940093F8740040FA28
:1043000004F4214401F00F013AB100F00F0000EB7A
:10431000011183F8741030BC704720F00F00014485
:1043200083F8741030BC7047204430BC836F0B445A
:1043300083F303038367704734060020044B00EBCC
:10434000401003EB8000C36DC3F10103C3657047E8
:1043500034060020084B00EB401003EB8000836F15
:1043600090F8751090F87420C06F1B0443EA012385
:10437000134343EAC0407047340600200A4B00EB69
:10438000401003EB800310B4C1F30724C1F30240D3
:10439000C1F3C24283F8741083F875409867DA67F6
:1043A0005DF8044B704700BF34060020004870479A
:1043B0007074030010B40549054C064A064B84602E
:1043C000C160026143615DF8044B704750740300A3
:1043D000C06A03007C740300A0730300074BC0EBAA
:1043E000401003EB8000836F0133042BC8BF002310
:1043F000836742F6E0638364704700BF1C56002069
:10440000184BC0EB401003EB800010B4836F042BFB
:1044100020D0012BD4BF002201221044A3EB420381
:1044200090F870209C0042FA04F4214401F00F013E
:1044300043B102F00F0202EB011180F870105DF839
:10444000044B704722F00F02114480F870105DF8A1
:10445000044B7047436F5DF8044B0B4483F3040334
:10446000436770471C560020044BC0EB401003EB21
:104470008000C36DC3F10103C36570471C56002063
:10448000074BC0EB401003EB8000416F90F87120A8
:1044900090F87030080440EA02201843704700BFCB
:1044A0001C560020074BC0EB401003EB8003C1F308
:1044B0000342C1F3072083F8701083F871005A6734
:1044C000704700BF1C560020004870478C740300E2
:1044D00000EB001008B5C000024B1A58184453688E
:1044E000984708BD20B5FF1F0B4B00EB001003EBF6
:1044F000C000D0F884301944B1F5C87F07DBB1F5AE
:10450000FA7FA8BF4FF4FA71C0F8841070474FF4D7
:10451000C871C0F88410704720B5FF1F044B00EB32
:10452000001003EBC000C36DC3F10103C365704706
:1045300020B5FF1F034B00EB001003EBC003D3F8C3
:104540008400704720B5FF1F0A4B012200EB0010CA
:1045500030B403EBC0051446134604FA03F00133EC
:10456000102B42EA0002F8D10A40C5F8842030BC82
:10457000704700BF20B5FF1F0048704794740300C8
:1045800010B40549054C064A064B8460C1600261BF
:1045900043615DF8044B7047BC7B0300A0740300CB
:1045A000AC740300B4740300054B4FF48A7202FB31
:1045B0000030C36E0133042BA8BF0023C3667047CD
:1045C000D01A0020044B4FF48A7202FB0030C36DF6
:1045D000C3F10103C3657047D01A00200A4B4FF4A2
:1045E0008A7202FB0030D0F80811D0F80421D0F80C
:1045F0000C31D0F8100142EA8112C3F3090342EAF8
:10460000033343EA80507047D01A002000487047B7
:10461000C474030010B40549054C064A064B846077
:10462000C160026143615DF8044B7047DC740300B4
:10463000D0740300F0740300B4740300054B00EB66
:10464000001003EB0010C36E0133042BA8BF00233E
:10465000C36670472C290020044B00EB001003EBCD
:104660000010C36DC3F10103C36570472C290020FE
:104670000A4B00EB001003EB0010D0F80411D0F847
:104680000021D0F80831D0F80C0142EA8112C3F3BE
:10469000090342EA033343EA805070472C29002083
:1046A000004870470075030010B40549054C064AE0
:1046B000064B8460C160026143615DF8044B704742
:1046C000187503000C750300AC740300B474030088
:1046D000054B00EB001003EB0010C36E0133042BFD
:1046E000A8BF0023C36670472C080020044B00EBD2
:1046F000001003EB0010C36DC3F10103C3657047E5
:104700002C0800200A4B00EB001003EB0010D0F83F
:104710000411D0F80021D0F80831D0F80C0142EA99
:104720008112C3F3090342EA033343EA805070471E
:104730002C080020004870472475030010B4054978
:10474000054C064A064B8460C160026143615DF816
:10475000044B704730750300BC7B0300AC7403004E
:104760003C750300054B4FF48E7202FB0030C36EA4
:104770000133042BA8BF0023C36670473CCFFF1F43
:10478000044B4FF48E7202FB0030C36DC3F1010382
:10479000C36570473CCFFF1F0D4B4FF48E7202FB79
:1047A000003010B4D0F81031D0F80C41D0F8081116
:1047B000D0F8142190F818011B0343EA84130B432B
:1047C00043EA425343EA80705DF8044B704700BFF0
:1047D0003CCFFF1F004870474C75030000233C216D
:1047E0006FF023024167826780F87C3080F87D306B
:1047F000704700BF10B40549054C064A064B84605B
:10480000C160026143615DF8044B7047BC7B0300EB
:1048100054750300607503006C750300064B03EBD1
:10482000C010C36E0133032BC8BF0023C36642F61A
:10483000E0638364704700BFC04F0020134B03EB5D
:10484000C01010B4C36E03EBD37233F002044FEA0E
:1048500062020AD050FA82F05DF8044B90F87C3086
:1048600083F0010380F87C307047D2B200EB820005
:104870006FF02302436F5DF8044B19443C29A8BF35
:104880003C219142ACBF416742677047C04F002056
:10489000034B03EBC010C36DC3F10103C365704745
:1048A000C04F0020094B03EBC010436F90F87C1001
:1048B00090F87D20806F03F5807343EAC14343EA9B
:1048C000025300F5807043EA80207047C04F0020FB
:1048D0000C4B10B403EBC010C1F30802C1F38824E1
:1048E000A4F58074C1F3C043A2F58072C1F30051F6
:1048F0008467426780F87C3080F87D105DF8044B57
:10490000704700BFC04F0020004870477C7503000F
:10491000034B0449044A016142618360C3607047EC
:10492000BC7B03002874030084750300064B03EB73
:104930000020836F0133032BC8BF0023836742F637
:10494000E0638364704700BF5CE6FF1F0F4B03EB1F
:10495000002010B4836F032B0ED083B1013B00EB1A
:10496000830300241A6F0A4482F303021A6780F853
:10497000A44042F6E06383645DF8044B7047C36E65
:104980000B4483F30403C366F3E700BF5CE6FF1F39
:10499000034B03EB0020C36DC3F10103C3657047F4
:1049A0005CE6FF1F054B03EB0020416F026FC36EF7
:1049B000C80240EA02201843704700BF5CE6FF1FB0
:1049C000054B03EB0020CAB2C1F30223C1F3C2219D
:1049D000C2660367416770475CE6FF1F0048704787
:1049E0009875030030B4104B04460FCB84B004AD6F
:1049F00005E90F0001A807C80123009DA367002354
:104A0000C4F89850C4F89C00C4F8A010C4F8A420BE
:104A1000E366C4F88830236784F88C306367C4F891
:104A2000FC3004B030BC7047FC60030010B4054992
:104A3000054C064A064B8460C160026143615DF823
:104A4000044B7047A8750300A0750300BC7B0300EE
:104A5000BC750300064B03EB0020C36F0133042B2E
:104A6000C8BF0023C36742F6E0638364704700BF9A
:104A70004C2B00201A4B03EB0020C36F43B9C36ECD
:104A80000B4483F30403C36642F6E0638364704718
:104A9000012B0ED1436F19441829A8BF18216FF0BC
:104AA00017039942ACBF4167436742F6E0638364F2
:104AB0007047022B08D1036F0B4483F30203036793
:104AC00042F6E06383647047032BDDD10029D4BF35
:104AD0000021012142F6E06381678364704700BFD3
:104AE0004C2B0020034B03EB0020C36DC3F10103EB
:104AF000C36570474C2B0020054B03EB0020816FF2
:104B0000026FC36EC80140EA02101843704700BF2D
:104B10004C2B0020064B03EB002001F00F02C1F3E9
:104B20000213C1F3C011C26603678167704700BFFB
:104B30004C2B00202DE9F001294B2A4E0025A6F828
:104B4000E052AC4606F18801044603F561671A7D20
:104B5000062A0FD8DFE802F0321D1D0404282800C1
:104B60001DB104F8015BA6F8E0C20A6824F8022B24
:104B7000B6F8E0521833BB4201F10401E7D125B188
:104B8000002304F8015BA6F8E032201ABDE8F0012A
:104B900070471DB104F8015BA6F8E0C20A6804F88A
:104BA000012BB6F8E052E5E71DB104F8015BA6F869
:104BB000E0C20A6844F8042B0025DBE70A6845B127
:104BC00002F00F02154304F8015B0025A6F8E0C2CD
:104BD000D0E71501EDB245F47045A6F8E052C9E7FB
:104BE0003C89030030B6FF1F2DE9F001294B2A4E06
:104BF0000025A6F80C53AC4606F18801044603F6DE
:104C000018771A7D062A0FD8DFE802F0321D1D043E
:104C1000042828001DB104F8015BA6F80CC30A683B
:104C200024F8022BB6F80C531833BB4201F10401EF
:104C3000E7D125B1002304F8015BA6F80C33201A54
:104C4000BDE8F00170471DB104F8015BA6F80CC384
:104C50000A6804F8012BB6F80C53E5E71DB104F817
:104C6000015BA6F80CC30A6844F8042B0025DBE7B7
:104C70000A6845B102F00F02154304F8015B0025F4
:104C8000A6F80CC3D0E71501EDB245F47045A6F8BF
:104C90000C53C9E768BD030084EAFF1F2DE9F0014A
:104CA000294B2A4E0025A6F8E853AC4606F18801A8
:104CB000044603F5A2571A7D062A0FD8DFE802F052
:104CC000321D1D04042828001DB104F8015BA6F85C
:104CD000E8C30A6824F8022BB6F8E8531833BB423D
:104CE00001F10401E7D125B1002304F8015BA6F826
:104CF000E833201ABDE8F00170471DB104F8015BEC
:104D0000A6F8E8C30A6804F8012BB6F8E853E5E70B
:104D10001DB104F8015BA6F8E8C30A6844F8042B47
:104D20000025DBE70A6845B102F00F02154304F8DD
:104D3000015B0025A6F8E8C3D0E71501EDB245F404
:104D40007045A6F8E853C9E720A9030050F6FF1FF5
:104D50002DE9F001294B2A4E0025A6F8A850AC46B3
:104D600006F18801044603F1C0071A7D062A0FD810
:104D7000DFE802F0321D1D04042828001DB104F8EC
:104D8000015BA6F8A8C00A6824F8022BB6F8A85060
:104D90001833BB4201F10401E7D125B1002304F827
:104DA000015BA6F8A830201ABDE8F00170471DB1DC
:104DB00004F8015BA6F8A8C00A6804F8012BB6F84D
:104DC000A850E5E71DB104F8015BA6F8A8C00A6881
:104DD00044F8042B0025DBE70A6845B102F00F0216
:104DE000154304F8015B0025A6F8A8C0D0E715011B
:104DF000EDB245F47045A6F8A850C9E76C9EFF1FB8
:104E0000540A0020034A026002F12001C0F8801019
:104E1000704700BFB8580300024A026002F1200147
:104E200081607047F8580300034A026002F12001D4
:104E3000C0F88010704700BF60590300034A026049
:104E400002F12001C0F88010704700BFA85903008C
:104E5000024B034AC3F8B4211A607047D4320020D1
:104E6000485A0300024B034AC3F8F8221A607047FD
:104E7000700D0020285C0300024B034AC3F80C238A
:104E80001A60704700FEFF1F485C0300024B034A94
:104E9000C3F8B0211A60704764130020A85D0300B6
:104EA000024B034AC3F8BC211A6070475C2F0020F4
:104EB000A85E0300024B034AC3F8B8211A6070478A
:104EC000E0F2FF1F085F0300F0B5364C364D83B0AB
:104ED0000A222046009200217F2322F011FA0C22A0
:104EE0000092204600217F2322F00AFA00260123A7
:104EF00020462E49A360666022F0A0FBAB79666075
:104F00000F22A2608BB1EB792046002B40D02849BC
:104F100022F094FBEB7908220433009231465B00C7
:104F20002046212221F086FF06E0EB792046002B67
:104F30002AD1204922F082FBAB791A4D1A4F002268
:104F400037266260A660284633BB1B4922F076FBF9
:104F50004E2328466B601949AE6022F06FFB062293
:104F6000232328466A60AB60154922F067FB7979F4
:104F7000144A154B284600290CBF1146194603B0A8
:104F8000BDE8F04022F05ABB104922F057FBD3E7AE
:104F90000F4922F053FBCFE70E4903B0BDE8F040C4
:104FA00022F04CBB746B00202C550020E4750300EC
:104FB000F875030020760300407603004C7603006A
:104FC00058760300DC750300D075030018760300E3
:104FD000087603003476030038B505460024002027
:104FE0001E2124F011FF2B190434142C5867F6D11C
:104FF000012385F88C3038BD70B5002504260446A1
:1050000080F8746080F876504FF6FF71284624F0DF
:10501000FBFE0123A4F8700084F87560284684F82C
:1050200077304FF6FF7124F0EFFEA4F8720070BDE8
:1050300070B5FF210446012024F0E6FE0025072676
:1050400084F87400A667E5660120FF2124F0DCFEE9
:1050500084F87500E6672567C4F8805070BD00BF0E
:1050600010B5FF210446012024F0CEFEFF2184F874
:105070007000012024F0C8FE00230F2284F8710084
:105080006267E366A36710BD2DE9F0433A4C94F8DC
:10509000543883B0002B41D1D4F85838002B1FDA94
:1050A000DFF8E480354F0125A14604EB850305F0C8
:1050B0000100D3F84438304E03EB830304EBC30301
:1050C00080F001009B6B9847012D3FD0022D23D12A
:1050D000D6F8501849B3012930D003B0BDE8F083A9
:1050E00003F212230CBF0020012054F8233003EBFD
:1050F000830304EBC304A36B984703B0BDE8F083BC
:105100005A7C5ABB5B7D3BB11D4B00931D48382137
:105110000122082322F00CF80135C6E7D4F8303814
:105120000020984703B0BDE8F08340230A4600936F
:10513000144821F0D7FFD6F85018CCE74023194681
:1051400000931048002221F0CDFFC6E7D9F8683857
:105150001A7C002AD4D05A7C002AD1D1DB7C0948A1
:10516000002B0CBF43463B46009338210122082305
:1051700021F0DEFFD0E700BFD0C6FF1F2C9903004F
:1051800014990300746B00202499030003794FF4F1
:10519000DC7210B5C0F8842004460BB122F0CEFFBB
:1051A000002384F8553010BD10B5044624F0B8FD36
:1051B000204610BD037910B453B90A4C0A490B4A72
:1051C0000B4B8460C160026143615DF8044B704722
:1051D000084B0949094A8160C360036142615DF877
:1051E000044B70477C7603008C760300A0760300A6
:1051F000B4760300BC7B0300647603006C76030086
:10520000F0B5037985B006466BB9244AD6F88030EC
:10521000126801920199224ACB1A934201D90023C4
:10522000F36705B0F0BD22F0E1FF0028EDD0D6E92C
:105230001C4522F0EBFF27F061FF184F02460B469A
:105240002046294627F01EFE3B680393039AD6F8B2
:1052500080300446B06FD31A40F2EE220D46013082
:105260009342C6E91C45B067DBD927F047FF0246E9
:105270000B462046294628F0E1F828F077FA22F07C
:10528000E3FF3B6802930299F067002200230020AD
:10529000C6F88010C6E91C23B067C2E7C46B0020C3
:1052A000A0860100044B9A7922B95979DA7181F00C
:1052B00001025A71704700BF2C550020F8B54FF419
:1052C000DC75134E05FB00F57419002387014100BE
:1052D00042F6E0622071A761E161A2642364236267
:1052E000A362E36463646362E3622365E36550B9C8
:1052F00094F8553033B9735901225B6884F855200E
:1053000020469847F8BD22F0A9FFFBF7D3FDEFE751
:10531000E0F2FF1F4388102B10B404D0202B18D0CC
:105320005DF8044B7047574BB0F90410D3F8EC23E9
:105330000A44062AA8BF0622002183F8EA1322EABB
:10534000E27242F6E061C3F8EC2359624388202BF5
:10535000E6D14C4BB0F90420D3F8EC13052915DD48
:10536000D3F8F01393F8EA035DF8044B00EB8101E6
:10537000C9B201F5EB7103EB810359680A44052AB0
:10538000A8BF052222EAE2725A607047D3F8F043C0
:1053900093F8EA0304EB440401EB4401C9B201EBC6
:1053A000C10103EB810303F57F7103F57E73C0B97F
:1053B0004C6814440B2CA8BF0B2424EAE4744C6002
:1053C00018710B2CACD1062823D1CB691A44092AB9
:1053D000A8BF09226FF008039A42ACBFCA61CB6133
:1053E0009EE7012808D14C68002CEADD8B68134445
:1053F00083F304038B60E4E702284B6817D1012B89
:1054000004DDCC68144484F30404CC600B2B87D1F6
:10541000D9E7072884D10B6A1A441B2AA8BF1B228C
:105420006FF01A039A42ACBF0A620B6278E7032856
:1054300008D1012B7FF774AF0C69144484F3040482
:105440000C61E3E70B2B7FF46BAF04280DD005282C
:10545000B9D18B691A44092AA8BF09226FF0080341
:105460009A42ACBF8A618B615AE74B691A44092A98
:10547000A8BF09226FF008039A42ACBF4A614B6192
:105480004EE700BF50F6FF1F2DE9F04F4388042B75
:1054900083B0044622D0082B1AD0012B34D0022B23
:1054A00019D12378012B53D0022B14D1714BD3F88F
:1054B000F02393F8F5130132032A81F00101C8BFEC
:1054C000002283F8F513C3F8F82303B0BDE8F08F8A
:1054D0000378012B4FD003B0BDE8F08F0378022B87
:1054E000644B1DD093F8F5232AB1002283F8F523ED
:1054F00003B0BDE8F08F93F8F42382F0010283F843
:10550000F42303B0BDE8F08F5A4B93F8F52372B142
:10551000D3F8F823013282F30202C3F8F823DAE762
:1055200093F8F62382F0010283F8F623D3E7D3F849
:10553000F003D3F8EC1383F8EA23013080F3020080
:105540000529C3F8F003D8BFC3F8EC236388A6E7A6
:10555000484D95F8F53333B1D5F8F833013B83F373
:105560000203C5F8F833D5F8F033013B83F30203A7
:10557000C5F8F033AFE73F4D95F8F5334BBB95F8E1
:10558000EA33D5F8EC233B490133DBB2052A85F831
:10559000EA331BDCD1F8F00300EB400002EB4002E1
:1055A000D2B202EBC20201EB8201D1F800240B2A35
:1055B0009ABF31498A5C0322934202D3002385F8C3
:1055C000EA3342F6E0636B62638866E7032BF5D843
:1055D000F7E7D5F8F003D5F8F8B30190834544D048
:1055E00001990BEB4B0301EB41024FEA031A110146
:1055F0000AEB430A01EB420205F57F7303EB8A0ACB
:1056000003EB8209002109EB010303F120000AEBFF
:105610000102D3F800C05F689E68D3F80C80C2F81E
:105620000C8010338342C2F800C05760966002F1CC
:105630001002EED124311B681360D829E3D1019BFD
:1056400005EB0B1105EB031001F5EB610023C2180C
:105650000433D2F85C274A60102B064AF7D1C2F80F
:10566000F0B3002385F8F53389E72B6828461B69DA
:105670009847F6E750F6FF1FE4880300F0B53B4D6E
:105680003B4C83B037230093284680230021092216
:1056900021F028FD6669A76901236B60AB600EB934
:1056A000002F59DC3148334921F0C8FF31462F48DB
:1056B00022F050F8636A226A29682C48DE1002EB57
:1056C000C61203F007068F5C012303FA06F63E4379
:1056D0008E54666A276A29681E441F44F21007EB3D
:1056E000C21206F007068F5C03FA06F63E438E549C
:1056F000666A276A29681F44F21007EBC21206F097
:1057000007068F5C03FA06F63E438E54666A2968E4
:10571000226AF518EE1002EBC61205F007058E5C42
:10572000AB4033438B5404F130010EC90093032383
:1057300021F080FB626A083A0A2A0BDD2D2AA8BFF5
:105740002D221023009309486F21032321F072FBBF
:1057500003B0F0BD0B22F4E72846074921F06EFFA5
:105760002846394621F0F6FFA4E700BF746B0020FD
:10577000A0B0FF1FD8760300C87603004388042B2F
:1057800070B506461ED0082B11D0012B07D0022B76
:1057900004D13378012B3FD0022B2CD070BD2E4B7F
:1057A00093F8AB2082F0010283F8AB2070BD337810
:1057B000012BF3D1284B93F8AD2082F0010283F83E
:1057C000AD2070BD0378022B2ED0234B93F8E82137
:1057D0000132D2B2062A83F8E82108D812B11F4A52
:1057E000C3F8EC2142F6E0625A627388CBE70022EC
:1057F00083F8E821F6E70023194C19461A460133CD
:10580000202B24F81210F9D100211A460133402B25
:1058100024F81210F9D1C1E70F4B93F8AC2082F0B5
:10582000010283F8AC2070BD0D4C002500204FF420
:10583000F05124F0E9FA24F815000135202DF5D1B6
:1058400000204FF4F05124F0DFFA24F81500013560
:10585000402DF5D1C9E700BF540A00200B8B020090
:10586000ECACFF1F074B10B48C2404FB0030CAB211
:10587000C1F30721203A2039C26601675DF8044B65
:10588000704700BF14530020144B742202FB0030F9
:1058900030B40122056F1346144604FA03F00133B5
:1058A000102B42EA0002F8D10A4092B2092A12D91A
:1058B0000B48B2F5967F28BF4FF4967290FBF2F03A
:1058C000C1F304430133182BA8BF1823AB7428601D
:1058D000EA8130BC704703480A22F1E7E84D002016
:1058E00040420F00A0860100F0B400F1A80100F1D1
:1058F000B407002200E01946BB180C321D685C6832
:105900009E688E60482A0D604C60F4D1D0F8FC305F
:10591000013BC0F8FC30F0BC704700BF0B4B10B42B
:10592000182404FB01346368934203DCA3689A42A1
:10593000B8BF134650F821205DF8044B9A4216BFB9
:1059400040F8213000200120704700BF3488030058
:10595000002390F8882080F8E831FF2310B480F805
:10596000FC3180F8FD315AB9102405210B220C239B
:10597000C0F88840C0F89010C0F89820C0F89C305B
:105980005DF8044B704700BF0378012B00D07047CF
:105990004388012B09D0022B06D10E4B9A68002AAE
:1059A0000EDD00229A60704770470A4B9A68002A01
:1059B000F7DC5A6B013A0A2AD8BF0B225A63F0E788
:1059C0005A6B996B0132C1F13D018A425A63C8BFDB
:1059D0005963E6E7A0B0FF1F83881A0407D4F3B128
:1059E000104B9A68002A0DDD00229A6070470D4B1B
:1059F0009A68002AF8DC5A6B013A0A2AD8BF0B22AF
:105A00005A63F1E75A6B996B0132C1F13D015A6358
:105A10008A424FF00002C8BF59639A607047014B39
:105A2000E2E700BFA0B0FF1F38B5134C00252022CD
:105A30004FF4C8733B210D20226223606360E56050
:105A40002561A561A5606561E56124F0DDF90123AB
:105A5000606264212846A36224F0D6F932284FF010
:105A60001003D4BF4FF0FF3101210C22E1626263C9
:105A70002363A36338BD00BFA0B0FF1F03462DE919
:105A8000F00F0622002403250426072101274FF0EA
:105A9000020C4FF005094FF0080B4FF0090ADFF830
:105AA000B48183F8CB400A2083F8714083F87340B7
:105AB00083F8754083F8774083F870C083F87EC020
:105AC00083F884C083F8797083F87B7083F88270E0
:105AD00083F8725083F8785083F8805083F88650AA
