:0200000460009A
:100000004643464200000156000000000103030081
:1000100000000000000000000000000000000000E0
:1000200000000000000000000000000000000000D0
:1000300000000000000000000000000000000000C0
:1000400000000000010408000000000000000000A3
:100050000000800000000000000000000000000020
:100060000000000000000000000000000000000090
:100070000000000000000000000000000000000080
:10008000EB04180A063204260000000000000000FD
:10009000050404240000000000000000000000002F
:1000A0000000000000000000000000000000000050
:1000B0000604000000000000000000000000000036
:1000C0000000000000000000000000000000000030
:1000D00020041808000000000000000000000000DC
:1000E0000000000000000000000000000000000010
:1000F0000000000000000000000000000000000000
:10010000D8041808000000000000000000000000F3
:100110000204180804200000000000000000000095
:1001200000000000000000000000000000000000CF
:10013000600400000000000000000000000000005B
:1001400000000000000000000000000000000000AF
:10015000000000000000000000000000000000009F
:10016000000000000000000000000000000000008F
:10017000000000000000000000000000000000007F
:10018000000000000000000000000000000000006F
:10019000000000000000000000000000000000005F
:1001A000000000000000000000000000000000004F
:1001B000000000000000000000000000000000003F
:1001C000000100000010000001000000000000001D
:1001D000000001000000000000000000000000001E
:1001E000000000000000000000000000000000000F
:1001F00000000000000000000000000000000000FF
:10020000FFFFFFFFFFFFFFFFFFFFFFFFFFFFFFFFFE
:10021000FFFFFFFFFFFFFFFFFFFFFFFFFFFFFFFFEE
:10100000D100204335160060000000000000000001
:10101000201000600010006000400660000000002A
:1010200000000060004C060000000000FFFFFFFF12
:10103000FFFFFFFFFFFFFFFFFFFFFFFFFFFFFFFFC0
:10104000FFFFFFFFFFFFFFFFFFFFFFFFFFFFFFFFB0
:10105000FFFFFFFFFFFFFFFFFFFFFFFFFFFFFFFFA0
:10106000FFFFFFFFFFFFFFFFFFFFFFFFFFFFFFFF90
:10140000814205D051F8043B40F8043B8242F9D8B0
:101410007047044A04494FF0000342F8043B9142EC
:10142000FBD87047C09A012020E8022080B5BFF3A6
:101430004F8F00BF00BF00BF00BF01F0B9FA654B7E
:101440000822C3F8542100BF00BF00BF00BF00BF87
:1014500000BF00BF00BF00BF00BF00BF00BF00BF94
:1014600000BF00BF00BF5C4A5C495D48FFF7C8FF92
:101470005C4A5D495D48FFF7C3FF5D4DFFF7C9FF5B
:101480004FF0E0234FF47002C3F8882D0023594A2F
:1014900045F823200133B02BFAD1574B8021574A0E
:1014A00003F8011B9342FBD14FF0E020494C4FF071
:1014B0008037DFF87891DFF878814FF0FF32C0F89D
:1014C000085DC4F80471C4F80091C4F8F470C4F85D
:1014D000F080D0F8243D4A4E43F4E023C0F8243D88
:1014E000F36923F07F0343F04003F361736A23F051
:1014F0007F0343F040037362424B9A66DA661A67D1
:101500005A6701F05AFA404BAB63404BEB636323DD
:10151000002543610323856103613D4BC0F8203DF5
:10152000D0F8FC3D43F08073C0F8FC3D394B1A689D
:1015300042F001021A605A68374B1A6001F000FC51
:10154000C4F804713548C4F80091C4F8F470C4F8C4
:10155000F08001F061FDF36E43F44053F366304BCD
:101560001D60C3F80851C3F81851C3F82851C3F8D7
:10157000385103F5A0239A6BD20708D4294A5A653B
:1015800042F615621A659A6B42F001029A639A68F4
:10159000254C42F001129A6001F098FA01F0BAF974
:1015A00001F046FD01F0FAFB01F003FA2368132B6A
:1015B000FCD901F089FC2368B3F5967FFBD301F0D9
:1015C000FAF901F0F7F901F0C7FD01F08DFD30BF28
:1015D000FDE700BF00800D40506E0400F83400604D
:1015E00000000000C09A01204CA30460000000200D
:1015F00000980120412D040000E400E0A0E400E098
:1016000000C00F4000C00A405117040055170400E5
:1016100000002020001000E008D902200046C3236B
:10162000004008400000C0560CD902201B101820B2
:101630000C0D1113054B064A5A64064A1A644FF4FE
:101640002A029A63044B9D46FFF7F0FE00C00A4051
:10165000FFFFABAA07002000008003200F49104ABB
:10166000486838B50F4B1B68B3FBF2F30A225343AB
:101670004A68121A9342FBD832250024292001F02F
:10168000EFFC013D0444F9D107EE904A9FED060AB4
:10169000F8EE677A27EE800A38BD00BF001000E040
:1016A00040420F0038850120D54C873808B502210B
:1016B00029202DED028B01F01FFDFFF7CFFF032145
:1016C0002920B0EE408A01F017FDFFF7C7FFF0EECA
:1016D000408A0521292001F00FFDF0EE047A38EE52
:1016E000680AB4EEE70AF1EE10FA04DCBDEC028BF6
:1016F000BDE80840B2E7BDEC028B9FED010A08BDD2
:1017000000000000F8B53B4C4FF4006501210920B2
:1017100001F0F2FC01210820C4F8845001F0ECFC37
:101720004FF4803302210C20C4F8883001F0E4FC2F
:1017300040F28A2001F080FCC4F888502E496422CF
:101740002E4C486823681B0C534343F69A32B3FB74
:10175000F2F34A68121A9342FBD84FF48061264A8A
:10176000192643F69A3723484FF48035D2F804E01F
:1017700023681B0C7343B3FBF7F3D2F804C0ACEB44
:101780000E0C6345F9D8C0F88450D2F804E0236801
:101790001B0C7343B3FBF7F3D2F804C0ACEB0E0C95
:1017A0006345F9D80139C0F88850DFD1144D0520C0
:1017B00001F042FC40F2ED262F680C2001F0B8FC4D
:1017C00018B92B68DB1BB342F7D90B496422486870
:1017D00023681B0C534343F69A32B3FBF2F34A6877
:1017E000121A9342FBD8034B4FF40062C3F88420D3
:1017F000F8BD00BF00400042001000E03885012025
:101800000CD902200B49D4220B4838B501F054FC06
:1018100041F21A35084900200A460A231488013B80
:101820002C4422F8024BF9D1013016310828F3D1AB
:1018300038BD00BF34590020F0810220F0B5294C9A
:10184000B9B0FFF7DFFF4FF0FF352046E02200215F
:101850006E4640F8045B01F087FCA5600025284631
:10186000013501F011FC6946E02D06F8010BF6D1B7
:101870001D48009B834230D1BDF80820D42A2CD1CA
:10188000BDF80A6003AD0023013A21D2DB439BB2CD
:101890009E4222D10023E0221448236001F00CFC78
:1018A000D4221349134801F007FC0123124A137094
:1018B000104BB3F8C0201AB94FF47052A3F8C020EF
:1018C00093F8CC2012B9192283F8CC2039B0F0BD9E
:1018D00015F8017B3B449BB2D6E7D4236060A3811B
:1018E0000023E3E74CAE2020014C414350AE2020C2
:1018F0005CAE2020F0810220B1E50220F8B5404A1C
:10190000D42340480021013B0AD291B93E4E3F4CBE
:1019100037683F4D336807F57A729A422CD8F8BD84
:1019200010F8014B12F8015FA5421CBF0121147091
:10193000E9E7384AD421936802F11000013393603B
:101940000023013913D2DB430024334DD3811460CB
:1019500015F8016B204601F097FB864203D0314613
:10196000204601F0F5FB0134E02CF1D1CEE710F870
:10197000014B23449BB2E4E7D4F8082CD4F80C3C88
:101980009B1A0233F8D0D4F8083C03F0010303F5A6
:10199000407354F823100029EED001221C4801F0B6
:1019A000CFFB0D2212231D491948C5E9012301F07F
:1019B0009FFB1B231F211648C5E90113184901F09D
:1019C00097FB134801F030FB94F8103C93B10023CF
:1019D0004FF48062134884F8103CD4F8083C03F0BC
:1019E000010303F5407354F8231001F065FB012354
:1019F00084F8113CD4F8083C0133C4F8083C89E76A
:101A00005BAE2020F08102200CD90220D08402207D
:101A1000CCB402204CAE202050AE2020636A0120BE
:101A2000F9470120D08C0220D0E9012110B5136ABA
:101A30000446994201DAA36002E0536A9942FADC53
:101A4000137D062B21D8DFE803F033042D35373919
:101A5000410013782189472B18DC3D2B18DC332BF0
:101A600018DC292B18DC1F2B18DC152B18DC0B2B92
:101A7000D4BF0023012390690B24C21C04FB032361
:101A8000164A22F8131001F0F7FA10BD0723F2E707
:101A90000623F0E70523EEE70423ECE70323EAE758
:101AA0000223E8E79369A16858330C4A22F813101F
:101AB0000020E8E70120E6E70320E4E7207A074B6F
:101AC00083F8C400BDE8104001F0FEBA002001F028
:101AD000D3FAA268014B83F8CC20D6E7F08102202C
:101AE0002DE9F74344680646744D01F02DFB61680B
:101AF000284601F0FDFA11230222C5E90123237DC6
:101B0000013B052B00F2BE80DFE803F003689A9AE0
:101B10007C03A1686227694801F0EAFA11230522D3
:101B2000B168C5E90173654801F0BEFA636AB2683D
:101B30000F2100933846236A01F072FA0F2702231F
:101B4000E1686B6007F10E03AB6011B15B4801F017
:101B5000CFFA23780BB15D2B12D102231A375849E3
:101B600056486B60AF6001F0C3FA564B564AD3F843
:101B7000C830524803F0030352F8231001F0B8FABA
:101B8000524F6A25DFF86081DFF8309157F8043B47
:101B90001B0F03339A0809D023F0030302222946BE
:101BA000484643440093042301F0B2FA05357E2DE4
:101BB000ECD1236935220121404801F06DFA3378D8
:101BC0004FF4B07200213D48534302221B0A009299
:101BD0003E2201F07DFA03B0BDE8F083A1686227E0
:101BE000364801F085FA1123394AC5E901731268B4
:101BF000237E32F81310374A52F823300522A1EB26
:101C0000132190E7A16862272C4801F071FA112393
:101C1000B16802222948C5E9017301F0A1FA636A9B
:101C2000B268384600930F21236A01F0F9F9402386
:101C30000022224800938023114601F041FA7DE7FB
:101C4000A1681E4801F054FA02221D231B48C5E971
:101C500001231F4B1B6819881E4B1B68A1EB132126
:101C600001F022FA338A13B1237D032B04D0738A47
:101C700033B1237D042B03D11749104801F038FA02
:101C80001B275CE723785D2B0ED0A1680B4801F081
:101C90002FFAE369002B3FF451AFB268074853F8BD
:101CA000221001F025FA49E70C4B1B781BB1337D5C
:101CB0000BB10B49EAE70B49E8E700BFCCB40220BF
:101CC000906A0120F081022058560020C88202202C
:101CD000EC83022010840220756A0120B1E5022005
:101CE0007D6A0120896A0120C01C0120F8B5314FAE
:101CF0000221314D3878314C01F0FEF9304E02218D
:101D0000287801F0F9F92078022101F0F5F930780E
:101D1000022101F0F1F93A782A4B10012A4903EB2C
:101D200002171A580A602A78100103EB02151A5894
:101D30004A602278100103EB02141A588A60327844
:101D4000160103EB0210214A9B590326CB60FB6866
:101D500002271360EB685360E36800249360C36854
:101D6000D36052F8045B51F8040B95FAA5F3B3FA6B
:101D700083F30F2B10DC5B00D0F80CC006FA03FED7
:101D800007FA03F32CEA0E0C4CEA0303C360013498
:101D90008561042CE5D1F8BD103BD0F810C05B0084
:101DA00006FA03FE07FA03F32CEA0E0C4CEA0303CF
:101DB0000361ECE7A9E30220469301204793012049
:101DC0004893012014F00020D0810220E0810220FD
:101DD00008B52DED028BFFF769FCDFED3F7A4FF47C
:101DE0007A71B0EE408A60EE277A3C48FBFE677A53
:101DF000FDEEE77A17EE903A93FBF1F201FB123316
:101E0000374901F07DF9DFED377AB4EEE78AF1EE7C
:101E100010FA5DDBDFED347AB4EEE78AF1EE10FA0A
:101E200056D5FF22314B002117201A70304B1A7003
:101E3000304B1A70304B1A70304B197001233049F7
:101E40000B703049087016202F4908701D202F494B
:101E500008701C202E4908700E202E4908700F2093
:101E60002D49087014202D49087027202C490B702B
:101E70002C49087026202C49087028202B4908700E
:101E80002B490B702B490A702B490A7024212B4ACD
:101E9000117025212A4A117019212A4A11701E2118
:101EA000294A11701F21294A11701821284A1170DE
:101EB0001021284A11701121274A1170274A1370E6
:101EC000274A1370274A1370274A1370274A137042
:101ED000BDEC028B08BD00BF00007A44E085012004
:101EE0001F710120CDCC4C3D9A99193E2E930120B3
:101EF0002F9301203093012031930120A9E3022088
:101F00004693012047930120489301201595012015
:101F1000169501201295012013950120149501209A
:101F2000A8E3022037930120389301203693012043
:101F3000A3E3022032930120339301202C9501204A
:101F40002D950120119501202A9501202B95012026
:101F5000109501203493012035930120A2E3022043
:101F6000A5E30220A6E30220A4E30220A7E30220C7
:101F700016292DE9F041044600F0E48005D8E1B1CE
:101F8000012900F0B680BDE8F0811729FBD1964BFE
:101F90001121964A0360012383809060944A8260F5
:101FA000A2F59072C2F82011C2F898349423914A95
:101FB000C371914BC3F8902226E0904B0122904DC3
:101FC0005921036040F203138380884B1860AB698A
:101FD00023F00053AB618B4B8360C83B1120C3F8E7
:101FE000C800C3F82C26884A136F43F440031367D4
:101FF00001F05EF8AB69854A43F00803AB618523C5
:10200000E3717D4BC3F854220126237994F807C06D
:1020100006FA03F065790CF1604C216887B20CF583
:10202000644C1AB2002D40F0A480B1F88CE107F0A6
:102030000F074FEA00181FFA8EFE5FFA88F84EEA83
:10204000003E02EB42021FFA8EFE01EB4212A1F8A3
:102050008CE10002B1F88EE100F470601FFA8EFE90
:102060004EEA070EA1F88EE1B1F888E11FFA8EFE64
:102070004EEA080EA1F888E14FF4005EA2F804E0F1
:102080004FF4806EA2F806E04FF6FF7E5580602286
:1020900002FB03135D81A3F80EE05D82DD825D83A8
:1020A000DD83B1F888319BB21F4330233843A1F858
:1020B00088018CF800302179236802FB01334FF44A
:1020C000A0520921DA8484F83C50E587256484F81D
:1020D0003D5099869A84E279530902F01F0203F178
:1020E000382306FA02F240339B001A600123A371E1
:1020F00049E7474B1122424D5D21036040F2031333
:1021000083803A4B5860AB6923F08053AB61414BFD
:102110008360C43BC3F8C42000221020C3F84C26BF
:10212000394A136F43F44003136700F0C1FFAB69F2
:10213000394A43F08003AB618623E3712E4BC3F829
:10214000582261E7284B1122036000238380274B2C
:10215000D860324B8360A3F58E73C3F81C21012233
:10216000C3F8942493232E4AC371234BC3F88C22C3
:102170004AE7CD8B4FEA421E4FF6FF7801EB421241
:10218000ADB225EA000001EB4315DB01C883002056
:1021900003F4C073A88143F44053688121F80E8092
:1021A00049F6404EA2F802E0D080A882E882288357
:1021B000AB8144F24043EB8184F83C0084F83D005D
:1021C000CB8BE0879BB220643B43CB8330238CF8DE
:1021D0000030E279530902F01F0203F138239640E0
:1021E00040339B001E6081E700803E40987A0220C9
:1021F00020811F4081C503000098012000C01D40C0
:1022000000C00A40C8801F4000C00F4099C50300AD
:1022100000001E40C4801F408DC503001C811F406C
:1022200075C50300837910B5CBB14379C3B9026892
:102230006024017904FB0122D3849386C2790121B1
:10224000530902F01F0203F1382301FA02F260334E
:102250009B001A60152283681A600023837110BDE9
:10226000012BEBD102680479D18BA34089B221EA1A
:102270000303D38302EB441200239381D381DDE770
:1022800010B5134C13B9236F9B0420D400F03F000A
:1022900021F0604122F0604240F489102067C4F8C8
:1022A0008010C4F89020236F23F480532367084BD9
:1022B0001A6F002AFCDAD3F8702122F4000222F40B
:1022C0000042C3F870211A6F22F480321A6710BDE1
:1022D00000800D40B1F5607F28BF4FF46071F0B50C
:1022E00005468DB00E4672B6244B0024702218604D
:1022F0002146234B23481C8000F036FF234621490A
:1023000001249E4228D1002202354FF4827193426B
:102310002ED11D4B1D78E5B9082000F0A9FE8023C1
:102320001A4A0446037102A9194B056008A80093D4
:102330000693029200F08CFE164A06A9204600F091
:10234000F3FE06A800F0ACFE684600F0A9FE00F01F
:102350008BFE62B60DB0F0BD580903F01F020133C9
:1023600051F8207004FA02F23A4341F82020C8E7FD
:1023700001FB02F02A520132C9E700BFE0790220D6
:10238000BED90220E879022094E502200D12040053
:1023900094EF00201B10010070B5104CD4F8803071
:1023A0000B2B18D14FF0FF330D4A0E4E0E4D116816
:1023B00004324B40202103F00100013906FB00F0FC
:1023C00080EA5303F7D1AA42F1D1D4F8A800C31A86
:1023D0005842584170BD0020FCE700BF00FF272095
:1023E00080FF27202083B8EDA8FF2720184A00236C
:1023F00070B5C2E92033C2E92233C2E92433C2E90D
:102400002633C2F8A830BFF34F8F4FF0E02480325C
:10241000C4F8702F2032C4F8702FBFF34F8FBFF372
:102420006F8F0C4A0C4E91680C4D91601C21136308
:102430002846C6F8C03F00F053FEC6F8DC0FBFF3D5
:102440004F8FC4F8685FBFF34F8FBFF36F8F70BDBE
:1024500000FF272000800F4000F02720C0FF27202A
:102460002DE9F0470C46FFF797FF002800F0D081D8
:10247000AD4E2046AD494FF03C0800F04DFED6F879
:10248000A470AB492046B7FBF8F9B9FBF8F5C6F8DC
:10249000A45000F0F5FD18232046B5FBF3F103FB33
:1024A0001151C9B200F03CFEA249204600F0E8FDFF
:1024B00008FB15912046C9B200F032FE9D49204626
:1024C00000F0DEFD08FB19712046C9B200F028FEBD
:1024D000204600F09DFD9849204600F0D1FD1022D5
:1024E000D6F89810204600F027FED6F88850002D28
:1024F00056D09249204600F0C3FD1022D6F888102D
:10250000204600F019FEEA0740F1D2808C492046AF
:1025100000F002FE2A0629D58A49204600F0B0FDC7
:102520001022D6F89010204600F0D6FDD6F8902064
:102530001F2A00F2CE808449204600F0A1FD10221F
:10254000D6F89810204600F0C7FD8049204600F0DC
:1025500097FDD6F898101022204600F0BDFD7C496A
:10256000204600F08DFD204600F052FDEB0540F1C5
:10257000BA807849204600F0CFFD2F0409D576496E
:10258000204600F07DFD1022D6F89410204600F081
:10259000D3FDE80340F1BC807049204600F0BCFD4B
:1025A000D6F88C5085B16E49204600F069FD1022A6
:1025B000D6F88C10204600F0BFFDA80740F123811B
:1025C0006849204600F0A8FD6749204600F058FD04
:1025D00096ED280A02212046B7EEC00A00F058FD09
:1025E0006249204600F04CFD6149204600F048FD5C
:1025F000604B61490A2218680023B0FBF1F12046C4
:1026000000F01EFD5D49204600F03AFD5C4B9D68E0
:10261000AA0708D51A6B20465A4B9A420CBF5A4952
:102620005A4900F079FD6F0703D55949204600F05B
:1026300073FD2E0703D55749204600F06DFDE806CF
:1026400003D55549204600F067FDA90603D5534937
:10265000204600F061FD6A0603D55149204600F08E
:102660005BFD2B0603D54F49204600F055FD15F4C0
:10267000807500F0E6804C49204600F04DFD404A50
:102680004A492046936823F48073936000F044FD28
:102690004749204600F040FD464B07221A64464A4F
:1026A000936B43F040039363BFF34F8F30BFFDE75D
:1026B000AB0701D541492AE72F0701D5404926E755
:1026C000E80601D53F4922E7A9067FF523AF3E4939
:1026D0001DE73E4B9A42FFF446AF20339A42BFF4C7
:1026E00042AF3B493CE7AF0501D53A4942E76805AF
:1026F00001D539493EE7290501D538493AE7EA04C9
:1027000001D5374936E7AB047FF537AF354931E7B7
:10271000A90301D5344940E76A0301D533493CE7B1
:102720002B0367D5324938E700FF2720D97C0120E9
:10273000E67C01206A4701200D7D0120327D0120C9
:102740003B7D0120017E0120237E0120427E01206D
:10275000817E0120E17E01201A8001203C80012041
:1027600018810120218101206481012087810120BD
:102770008D8101203885012040420F00AB8101206E
:1027800000800F40F100AD0B088301205183012030
:1027900092830120BA830120E58301200C8401206B
:1027A00036840120588401207A840120A4840120E9
:1027B000C684012000C00A4000400D40647D012015
:1027C000867D0120B07D0120D67D012020E80220F9
:1027D0009F7E0120027F01202F7F0120747F012036
:1027E000B47F0120E87F01206080012093800120D8
:1027F000BC800120EF0101D53349CEE6AD017FF564
:10280000CFAE3249C9E669007FF5DEAE3049D8E681
:102810003049204600F080FC2F49204600F07CFC27
:102820002E49204600F078FC2D49204600F074FC2B
:102830002C49204600F070FC2B49204600F06CFC2F
:10284000E4E62A4FD7F8C030C3B3D7F8DC601C21C8
:10285000274800F045FC864230D1DFF8A080DFF841
:10286000A090DFF88CA00123D7F8C0202E46AB4003
:102870000135134220D04146204600F001FC294694
:102880000AEB8606204600F0DFFB4946204600F0B2
:10289000F7FB00230A227168204600F0D1FB15499E
:1028A000204600F0EDFB71681022204600F014FC79
:1028B0001149204600F030FC062DD4D1FFF796FDDB
:1028C0000120BDE8F08700BFD3800120FC800120FB
:1028D00048810120B0810120C8810120118201209E
:1028E0005B82012080820120C882012000FF272016
:1028F000C0FF27201885012095210120098501208E
:102900008181012008B5FFF747FD003818BF01207D
:1029100008BD00BF0F4BDA6E42F44032DA66DA6E61
:1029200042F44072DA66A3F5603340F237625A64CB
:10293000A0229A649A6C1206FCD4074A40F23763CC
:102940005364A0239364936C13F08003FBD1034A78
:102950001370704700C00F4000800C4085E60220D5
:10296000074B00040122C3F8A010C3F8A400C3F869
:10297000B0205A69D207FCD501225A61704700BFC6
:1029800000402A40084B094AC3F8A000C3F8A4201D
:102990000122C3F8B0205A69D207FCD5D3F8000150
:1029A000212280B25A61704700402A40040003008F
:1029B00070477047704700BF70474FF0E023002119
:1029C0001022C3F8941DC3F89C2D2E4AC3F8A02DE5
:1029D0001122C3F89C2D2C4AC3F8A02D1222C3F853
:1029E0009C2D2A4AC3F8A02D294AC3F89C2D294AB8
:1029F000C3F8A02D284AC3F89C2D284AC3F8A02D5F
:102A0000274A42F01502C3F89C2D264AC3F8A02D90
:102A100002F181520D32C3F89C2D234AC3F8A02D38
:102A2000224AC3F89C2D224AC3F8A02D214AC3F89C
:102A30009C2D214AC3F8A02D204AC3F89C2D204A82
:102A4000C3F8A02D1F4AC3F89C2D1F4AC3F8A02D20
:102A500000BF00BF00BF00BF00BF0122C3F8942D1C
:102A6000BFF34F8FBFF36F8FC3F8501FBFF34F8F6C
:102A7000BFF36F8FD3F8142D42F44032C3F8142DF6
:102A8000704700BF3F000010250008070900100034
:102A90001300200021000207140000202500081365
:102AA00020E802200900001027000B131700004047
:102AB00033001013180000602F000B07190000707E
:102AC0002F000B131A0000803B000B1373B5864BCD
:102AD000864A8749C3F85C22C3F86012C3F86422AF
:102AE000A2F53042834CC3F8682202F5E042C3F8F5
:102AF0006C22C3F87022C3F87422C3F8782218221B
:102B0000DA661A675A679A67DA67C3F88020C3F8EB
:102B10008420C3F888200122C3F82C27C3F830276B
:102B2000C3F83427C3F83827C3F83C27C3F8502725
:102B3000714A936923F0604323F4407343F02043C8
:102B400043F440739361D2F8843043F00C03C2F82D
:102B500084306A4B1A6842F002021A601968684AA7
:102B600021F4F14121F073010904090C0A4365497C
:102B70001A604FF0FF325A6002F57702886802F55A
:102B800060520240604842F000529A60DA6822F0D7
:102B90007802DA601A6A224002431A621A6A2240F4
:102BA0004FF40054024359485A62594A9A62DA6211
:102BB000D1F8B82022F03F0242F00102C3F8B82059
:102BC000D1F8BC20002122F03F0242F00102C3F8FC
:102BD000BC2040F2056219611C661867C3F88020AA
:102BE0005C665867C3F884201A684A4822F00202DB
:102BF0001A60494A9A610222DA61484A42F8041B83
:102C00008242FBD11A6842F001021A603B4B1C68F9
:102C100014F00104FBD1404A0226214620469A6165
:102C200040F2F562DE61C3F8002240F26642C3F86A
:102C3000102240F29942C3F82022394AC3F83022C8
:102C400042F20142C3F8342240F23542C3F8402236
:102C5000344AC3F85022344AC3F85422334AC3F8E2
:102C6000602242F20122C3F86422FFF779FE0120BC
:102C7000FFF776FE3046FFF773FE2046FFF782FE31
:102C800045F60D530546984227D10420FFF768FE0C
:102C90004FF400012046FFF763FE0120FFF760FEBE
:102CA0003046FFF75DFE0846FFF76CFEA84212D1E2
:102CB0000420FFF755FE10201D491E4B1E4A1870B8
:102CC0000023521A0093012302EB00521B4800F02C
:102CD000C3F902B070BD0820EEE71022174802B019
:102CE000BDE8704000F040BA00801F40F9B001001C
:102CF000F910010000FFF07C00C00F4000402A40A6
:102D00001200FFFF00802A404000008063000200A4
:102D1000FF000F8300432A40F05AF05A00422A4035
:102D20009F041830EB06180A063201263806180AE6
:102D3000000000708FE6022000000070BCB402208A
:102D4000F0B5154B40204FF480314FF480544FF4D0
:102D500000554FF4404643F242071A6912F0020F41
:102D600003D09E6159619F61F7E712F4005F01D1C2
:102D70005D61F2E712F4805F01D15C61EDE7002A4A
:102D8000EBDA12F4803F01D09961E6E7520601D4F4
:102D90005861E2E7F0BD00BF00800D403E4AB3EE4F
:102DA000096A3E48D2F880309FED3D5A23F0010376
:102DB00010B5C2F8803003233A4CC2F890303A4B39
:102DC000D3F8E030D9B2016007EE901AC3F30B20BC
:102DD0001B0DB8EEE77A354907EE900A2060F8EE51
:102DE000E76A07EE903A37EE455A314BF8EEE77A4C
:102DF00037EE466A77EEE67A81ED006A25EE275ACD
:102E0000C3ED007AD2F88030C5EE065A75EEA65AA8
:102E1000FCEEE55A15EE901ADFED265A37EE657A8C
:102E200043EA0153C2F8803027EE277A224B66EE40
:102E3000277AD2F89011C7EE065A35EEA67ABCEE84
:102E4000C77A17EE100A87EE867A03EA00430B432F
:102E5000C2F89031D2F8901177EE267AFCEEE77A3C
:102E600017EE903AC3F30B030B43C2F89031D2F83C
:102E7000803043F00203C2F8803000220F4B83F809
:102E800040200F4B0F4AC3F840214FF0E0230122AE
:102E9000C3F8082110BD00BF00810D40C4D002203E
:102EA0000000AA42C0D0022000441F40C8D0022027
:102EB000CCD002200000B4420000FF0F00E400E08C
:102EC00000980120132F0400304B40F6617210B5BA
:102ED000C3F8202100F018F92D4A2E49D2F880308D
:102EE00043F00303C2F8803040F204422A4BC3F897
:102EF00060212A4A1068084203D1D3F8A8118C0730
:102F00001AD04FF000415163D3F8402142F0020241
:102F1000C3F84021204AD2F840319807FBD44FF043
:102F2000E0234FF400321920C3F88C224FF0004206
:102F30001A4B9A6300F080F8184B00214FF0804242
:102F4000154C9A634FF4207219600A23C4F8A83113
:102F5000134B184600F008F94FF4810240F2431376
:102F600002604FF480020264C4F858010D4AC4F8AC
:102F700048310D4BC3F804224FF0E0234FF40032E8
:102F8000C3F80C210123C4F8403110BD00800D406E
:102F900000C00F40001C1E0000002E4000900D409D
:102FA00000000020D93104000098012008B50F4B23
:102FB0001B6E9B0700D4FBBE72B60D4B0022C3F8FC
:102FC0004021A3F50D130B4A1A64A3F1FF53A3F597
:102FD0002B239D46BFF34F8F0748084B03604FF4E8
:102FE0000013DB699B689847E6E700BF00441F4079
:102FF00000002E400300200000802020000012EB83
:10300000F8B500BFF8BC08BC9E4670470000000041
:103010005FF800F0AF2004005FF800F051230400D7
:103020005FF800F0EDA903005FF800F069CC030041
:103030005FF800F0AD2C04005FF800F0ED2504000F
:103040005FF800F0FF2004005FF800F09D2004000E
:103050005FF800F0912D00005FF800F01B450400C0
:103060005FF800F0C12204005FF800F08915040049
:103070005FF800F0B92B04005FF800F075A10300C1
:103080005FF800F0E91504005FF800F07D27040008
:103090005FF800F0192104005FF800F085D4030008
:1030A0005FF800F01B2F00005FF800F05DD5030013
:1030B0005FF800F00D2D04005FF800F0852A040091
:1030C0005FF800F073CF03005FF800F049CC030015
:1030D0005FF800F06FCC03005FF800F0F915040012
:1030E0005FF800F0291604005FF800F0752A04006C
:1030F0005FF800F095D503005FF800F07D2604002E
:103100005FF800F0E52004005FF800F0C936040025
:103110005FF800F035D303005FF800F001160400FB
:103120005FF800F0F11504005FF800F06D1E040078
:103130005FF800F0592604005FF800F0151604004F
:103140005FF800F04DCC03005FF800F0D5BB020043
:103150005FF800F0712904005FF800F08159040065
:103160005FF800F0D9D503005FF800F0055F0400B8
:10317000C51600003D1C0000592B0000052D000065
:10318000692F00007D370000AD3B0000C9900300AF
:10319000A1A1030025A80300E9B40300A5C503000D
:0C31A0005DE8030001ED0300E91F0400DE
:1031AC000000000000000000002F000000000700DD
:1031BC00070000147F147F1400242A7F2A12002396
:1031CC0013086462003649552250000005030000C4
:1031DC0000001C224100000041221C000014083E8B
:1031EC0008140008083E0808000000A06000000851
:1031FC0008080808000060600000002010080402A5
:10320C00003E5149453E0000427F40000042615162
:10321C004946002141454B31001814127F100027FC
:10322C0045454539003C4A494930000171090503BF
:10323C0000364949493600064949291E00003636F0
:10324C000000000056360000000008142200001494
:10325C001414141400002214080000020151090671
:10326C0000324959513E007C1211127C007F4949B1
:10327C004936003E41414122007F4141221C007FE2
:10328C0049494941007F09090901003E4149497AF0
:10329C00007F0808087F0000417F4100002040416A
:1032AC003F01007F08142241007F40404040007FD6
:1032BC00020C027F007F0408107F003E4141413E1A
:1032CC00007F09090906003E4151215E007F091962
:1032DC0029460046494949310001017F0101003F5F
:1032EC004040403F001F2040201F003F4038403FDF
:1032FC000063140814630007087008070061514943
:10330C00454300007F41410000552A552A550000D5
:10331C0041417F0000040201020400404040404053
:10332C0000000E110E00002054545478007F4844C5
:10333C00443800384444442000384444487F003822
:10334C005454541800087E0901020018A4A4A47C4B
:10335C00007F080404780000447D40000040808415
:10336C007D00007F102844000000417F4000007C5D
:10337C0004180478007C0804047800384444443869
:10338C0000FC242424180018242418FC007C0804B5
:10339C00040800485454542000043F444020003C8E
:1033AC004040207C001C2040201C003C4030403C15
:1033BC00004428102844001CA0A0A07C00446454A5
:1033CC004C441414141414141803540065006500B0
:1033DC006E007300790020004D0049004400490044
:1033EC0018035400650065006E00730079006400DA
:1033FC00750069006E006F00040309040902730074
:10340C00020100C03209040000020103000007247D
:10341C00010001250006240201010006240202021B
:10342C000009240301030102010009240302040121
:10343C0001010009050302400000000005250101FF
:10344C000109058302400000000005250101030964
:10345C0004010002030000000921110100012221D6
:10346C000007058203400001070502032000020942
:10347C00027300020100C0320904000002010300C3
:10348C000007240100012500062402010100062486
:10349C0002020200092403010301020100092403B2
:1034AC0002040101010009050302000200000005ED
:1034BC002501010109058302000200000005250118
:1034CC00010309040100020300000009211101009D
:1034DC000122210007058203400001070502032099
:0C34EC0000020A0600020000004001007F
:1034F80000000000000000000000000000000000C4
:1035080000000000000000000000000000000000B3
:103518000B4B37B50B4D5B680B4C28460193009459
:1035280001F04AFA2B68C3F30A031BB94FF0FF32C4
:10353800C4E90123684602F0E5FE03B030BD00BFD0
:10354800001000E0D8820220848402202F4BF7B5B7
:103558005B682F4F2F4C019300973CF011FC2368B8
:10356800072B09D900232C4AC4E90033A360D2F8F9
:103578000C3C0133C2F80C3C02F0DAFEA568002DC1
:1035880031D0D4E9000607280FD8314601362A463B
:103598003CF0FEFB032E85BF002380356660636028
:1035A80081BF2368A560013323601C4C00F036F905
:1035B8003AF0C6FB236801332360194B1B782BB103
:1035C800184B1B6813B11B6B03B198472368C3F3EF
:1035D8000D031BB94FF0FF32C7E90123684602F01B
:1035E80091FE03B0F0BD0C4AD2F8081CD2F80C3C8E
:1035F8009942DAD0D2F80C3C03F0010303F540738A
:1036080052F82330C4E90055A360CEE7001000E06B
:1036180064840220E4900220D0840220588402208E
:10362800BAE502206C8901202DE9F04F6B4B01228D
:1036380085B00027DFF8D091694C1A70694E33784D
:10364800022B04D1484629F025F901233370DFF80D
:10365800BC81654DD8F80030DFF8B4B1002B37D005
:10366800D4F8082CD4F80C3C9B1A023330D0D4F888
:10367800083C03F0010303F5407354F8231039B3F1
:1036880001225A483CF05AFD3378012B40F09880CB
:10369800C7F30802564B1AB94FF0FF31C3E90112BC
:1036A80002930137534B5B6803932B681B6A984757
:1036B80002A802F027FE00234F4A4C48C8F8003001
:1036C800DBF8003013603CF047FD204602F07EFE38
:1036D8002B68DB699847296848463AF0E1FF327859
:1036E8008246824207D000286ED12A680220926959
:1036F800904786F800A0404ADBF8003012689B1A11
:10370800022B84BF0123C8F8003002F0C9FD05462A
:10371800F8B143F08BFF00281BDD384EDFF8F4A02A
:1037280043F030FF7A2809D133680D2251463348D7
:103738005B6800259847314841F031FF43F076FF38
:103748000028EDDC2DB10123002284F8103C2C4B1D
:103758001A6094F8113C002B3FF470AFD8F8003091
:10376800002B3FF46BAF264E264B3568DFF88C8074
:103778001D44DFF8A4B005F12003019315F801AB4F
:10378800BAF10F0F06D8D8F8003001225946404642
:103798005B689847002310225146404641F027FFB6
:1037A80033680133B3F5806F336013D3134841F0A6
:1037B800F6FE44F06FF80023336084F8113C3DE7CF
:1037C8002B685B6A984776E7002A92D12A6803201B
:1037D80092698DE7019B9D42D0D12FE7BAE502207F
:1037E800D08402204F9501206C890120CCB402209E
:1037F80074840220001000E0286F0220E085012078
:10380800F0900220D08C0220D88202203C85012032
:103818000CD902209F4C012094510120864A13683C
:103828000133022B2DE9F04F8DB003DC13600DB08E
:10383800BDE8F08F0023814F1360814B1B681D6921
:10384800BFF34F8F07F1200307F580744FF0E02294
:103858009C4234BF012408243B46013CC2F85C3F2B
:1038680003F12003F9D1BFF34F8FBFF36F8F754B6F
:10387800ED1B1B780093002B00F08C8025F00F05C2
:10388800714B2D041B682D0C0193EE1A16F0F003F2
:103898000293CCD0C6F303162022214604A845F093
:1038A800A9FDA24605EB0613A646A44620462146D6
:1038B8002246A046A346A1460393039B9D4249D1B5
:1038C800BBF1000F07D0CDE90AEACDE9080CCDE934
:1038D8000621CDE9049804AB1A68013422EAE272A1
:1038E800082C43F8042BF7D104984000B0FBF6F0FD
:1038F80003F03CF905984000B0FBF6F003F046F9F8
:1039080006984000B0FBF6F003F050F90798400025
:10391800B0FBF6F003F05AF908984000B0FBF6F057
:1039280003F064F909984000B0FBF6F003F06EF973
:103938000A984000B0FBF6F003F078F90B984000C5
:10394800B0FBF6F003F082F9DDE9013213443E4A98
:10395800DBB26BE75FFA85FB57FA85F3103537F969
:103968000BB0D944B3F902B0D844B3F904B05A44FF
:10397800B3F906B05944B3F908B05844B3F90AB0DA
:10398800DC44B3F90CB0B3F90E30DE44DDF800B016
:103998009A4492E7DFF8B4A04FEAE50BDAF8006042
:1039A800D6EBE50648BF2036002E3FF440AF002591
:1039B800A846A9462A4614E00BEB020301325942F5
:1039C80003F01F0301F01F0158BF4B4237F83310B3
:1039D80007EBC3030C44598889449988DB888844D9
:1039E8001D449642E8DC24014FEA09194FEA0818F9
:1039F8002D01B4FBF6F4204603F0F8F8B9FBF6F90C
:103A0800484603F003F9B8FBF6F8404603F00EF910
:103A1800B5FBF6F5284603F019F9204603F0A6F899
:103A2800484603F0B3F8404603F0C0F8284603F0D0
:103A3800CDF8CAF800B0FAE61C91022000822020D6
:103A48005C840220A2E30220149102201891022033
:103A5800024808B50EF0C8FC08BD00BF5059022046
:103A6800024808B50EF0C0FC08BD00BFC8580220C7
:103A78002DE9F04FDFF8A0B20146A24887B0BBF8A5
:103A88003420A14E825CA1482BF077FA10F0010295
:103A9800044624D09BF8101006F130001CF002FFF9
:103AA80000228BF89C20DBF80830DBF800A002939A
:103AB800DBF814909DF908509BF81C809BF8247043
:103AC80024B99BF82C20002A40F0A0809BF8042001
:103AD800013A032A1BD8DFE802F0122325279BF8B6
:103AE8009C100029DFD010F00E0FDCD09BF81010CE
:103AF80006F130008BF89C201CF0D4FED3E70020A0
:103B080007F0B8FE0146824807F0EDFC82449BF8B6
:103B18000C20013A032A11D8DFE802F008212427F3
:103B28000120EDE70220EBE70320E9E729F00EFB8F
:103B380000F1FF05029B03EB65256DB2032D6FF0C5
:103B48000202A8BF03259542B8BF15469BF8182066
:103B5800013A032A16D8DFE802F010282B2E29F0A4
:103B680001FBE5E729F00AFBE2E729F013FB029BDA
:103B7800FF3003EB60235DB2E0E729F0E7FAFF309E
:103B880009EB6029B9F1030F6FF00202A8BF4FF0EB
:103B980003099145B8BF91469BF82020013A032AB2
:103BA80013D8DFE802F00B21242729F0DBFAE6E737
:103BB80029F0E4FAE3E729F0EDFAE0E729F0C6FA9C
:103BC800FF3008EB60205FFA80F89BF82820B8F1F6
:103BD800050F02F1FF3228BF4FF00508032A12D85B
:103BE800DFE802F00B22252829F0BCFAE8E729F0E3
:103BF800C5FAE5E729F0CEFAE2E729F0A7FAFF309F
:103C080007EB6020C7B2052F28BF05279BF838208F
:103C1800002A40F08580B8F1050F00F23183DFE813
:103C280008F00C3041525C6629F09CFAE7E729F06D
:103C3800A5FAE4E729F0AEFAE1E7A70703D50121E1
:103C480034481CF03DFE660703D5022131481CF0BC
:103C580037FE200740F1148303212E481CF030FE64
:103C68002D4B4A465146284893F8303000932B464E
:103C78002BF062F8002C00F0B580284B01221A6066
:103C8800B0E0610703D5022122481CF019FE220783
:103C980003D503211F481CF013FEA30740F1F0824F
:103CA8000121DAE7270703D503211A481CF008FE8B
:103CB800A60703D5012117481CF002FE600740F152
:103CC800DF820221C9E7A10703D5012111481CF0B1
:103CD800F7FD2207F2D50321EDE7230703D50321DA
:103CE8000C481CF0EDFD6707D7D50221D2E766071F
:103CF80003D5022107481CF0E3FDA007A9D501213F
:103D0800A4E700BF911C01209CB5022010B6022038
:103D1800C8B50220CCB50220D8B402203C850120C9
:103D2800012A58D1052F00F2AB82DFE807F003140F
:103D38002536404AA10703D50421B3481CF0C0FD2D
:103D4800620703D50521B0481CF0BAFD230740F1EE
:103D58009782062181E7670703D50521AA481CF049
:103D6800AFFD260703D50621A7481CF0A9FDA0072B
:103D780040F18682042170E7210703D50621A24875
:103D88001CF09EFDA20703D504219F481CF098FD56
:103D9800630740F1758205215FE7A70703D5042172
:103DA80099481CF08DFD2607F2D50621EDE720077E
:103DB80003D5062194481CF083FD6107D7D505215A
:103DC800D2E7620703D505218F481CF079FDA307C8
:103DD800BCD50421B7E744B98C4B93F82C30002BA1
:103DE8003FF43EAF07B0BDE8F08FDBF84C2086F813
:103DF800B020DBF8502086F8B120DBF8542086F894
:103E0800B220DBF8582086F8B320DBF85C2086F86F
:103E1800B420DBF8602086F8B520DBF8642086F84B
:103E2800B620DBF8682086F8B720DBF86C2086F827
:103E3800B820DBF8702086F8B920DBF8742086F803
:103E4800BA20DBF8782086F8BB20DBF87C2086F8DF
:103E5800BC20DBF8802086F8BD20DBF8842086F8BB
:103E6800BE20DBF8882086F8BF20DBF88C2086F897
:103E7800C020DBF8902086F8C12029F067F905906A
:103E880029F070F9049029F079F9029029F082F963
:103E9800059A9BF83C107F3203905D4812121CF083
:103EA80027FF049B9BF8401003F17F025848121229
:103EB8001CF01EFF029A9BF844107F3254481212DD
:103EC8001CF016FF039A9BF848107F3250481212D4
:103ED8001CF00EFFD6F8A4300133C6F8A4304C4EBF
:103EE800B8F1050F00F2E880DFE808F003396394C1
:103EF800AFCA96F8B22096F8B11096F8B0003AF02A
:103F08009DFD18B1012140481CF0DAFCD6F8A43018
:103F180096F8B52096F8B41096F8B3003AF08EFDEE
:103F280018B1022138481CF0CBFCD6F8A43096F81A
:103F3800B82096F8B71096F8B6003AF07FFD18B199
:103F4800032131481CF0BCFC052F3FF689AEDFE8A1
:103F580017F0BB00E70013013F015C01790196F8F7
:103F6800B52096F8B41096F8B3003AF067FD18B18A
:103F7800022125481CF0A4FCD6F8A43096F8B820F5
:103F880096F8B71096F8B6003AF058FD18B1032124
:103F98001D481CF095FCD6F8A43096F8B22096F887
:103FA800B11096F8B0003AF049FD0028CCD00121B4
:103FB800C7E796F8B82096F8B71096F8B6003AF022
:103FC8003DFD18B1032110481CF07AFCD6F8A43046
:103FD80096F8B22096F8B11096F8B0003AF02EFD97
:103FE80018B1012108481CF06BFCD6F8A43096F8EB
:103FF800B52096F8B41096F8B3003AF01FFD0028E3
:10400800A2D002219DE700BFCCB50220D8B402207F
:104018009CB5022096F8B22096F8B11096F8B00038
:104028003AF00CFD18B1012197481CF049FCD6F86C
:10403800A43096F8B82096F8B71096F8B6003AF07B
:10404800FDFC0028D1D00321CCE796F8B82096F8DB
:10405800B71096F8B6003AF0F1FC18B103218A4877
:104068001CF02EFCD6F8A43096F8B52096F8B410BB
:1040780096F8B3003AF0E2FC00288CD0022187E7DA
:1040880096F8B52096F8B41096F8B3003AF0D6FC36
:1040980018B102217C481CF013FCD6F8A43096F81D
:1040A800B22096F8B11096F8B0003AF0C7FC002894
:1040B8003FF43BAF012135E7052F00F2E180DFE84F
:1040C80007F0032F5B87A4C1D6F8A43096F8BB206D
:1040D80096F8BA1096F8B9003AF0B0FC18B1042175
:1040E80069481CF0EDFBD6F8A43096F8BE2096F887
:1040F800BD1096F8BC003AF0A1FC18B10521624841
:104108001CF0DEFBD6F8A43096F8C12096F8C01053
:1041180096F8BF003AF092FC00283FF4A1AD18E6EB
:10412800D6F8A43096F8BE2096F8BD1096F8BC00D4
:104138003AF084FC18B1052153481CF0C1FBD6F8AD
:10414800A43096F8C12096F8C01096F8BF003AF04F
:1041580075FC18B106214C481CF0B2FBD6F8A43007
:1041680096F8BB2096F8BA1096F8B9003AF066FCB3
:1041780000283FF475ADFDE5D6F8A43096F8C120C7
:1041880096F8C01096F8BF003AF058FC18B106210E
:104198003D481CF095FBD6F8A43096F8BB2096F85D
:1041A800BA1096F8B9003AF049FC18B1042136481B
:1041B8001CF086FBD6F8A43096F8BE2096F8BD1001
:1041C80096F8BC003AF03AFC00283FF449ADE2E525
:1041D800D6F8A43096F8BB2096F8BA1096F8B9002D
:1041E8003AF02CFC18B1042127481CF069FBD6F8DA
:1041F800A43096F8C12096F8C01096F8BF003AF09F
:104208001DFC0028D6D00621D1E7D6F8A43096F8B0
:10421800C12096F8C01096F8BF003AF00FFC18B10C
:10422800062119481CF04CFBD6F8A43096F8BE209D
:1042380096F8BD1096F8BC003AF000FC00288DD026
:10424800052188E7D6F8A43096F8BE2096F8BD1068
:1042580096F8BC003AF0F2FB18B105210A481CF0A8
:104268002FFBD6F8A43096F8BB2096F8BA1096F82B
:10427800B9003AF0E3FB00283FF444AF04213EE7DD
:10428800002C3FF4A9ADEBE4CCB502202DE9F041B8
:104298001CF02EFE038A804A044600F5247000268E
:1042A800D25C7E4B19782AF068FE0546D4F8D432E1
:1042B800D4F8D8229A420ED1E9074BD5022007F04C
:1042C80089FA00284AD000230126C4E98533C4F8B6
:1042D800803201278DE0D4F8D83203F0030201338D
:1042E80004EB8202D2F8C422C4F8D83222B1012ADF
:1042F800DCD145F00105D9E70126D7E702F17B4279
:1043080058E003F17B4362E021B104F509701CF029
:10431800D7FA9DE037469BE0C4F8803284F8C03273
:10432800AEE0002E40F0AC80032007F053FA0028DE
:1043380040F0A680D4F880320133022B02D8C4F8AA
:1043480080329DE00123C4F88062E7E7BFF32F8F36
:10435800002792E0002EB6D137464AE0002EB2D1AF
:10436800DFF83CE1D4E90012002A1346B8BFD31D98
:10437800504202F0070200F007004FEAE30358BF7B
:104388004242D1F1000CD4F814024FEA03630CF056
:10439800070C5EF8227001F0070258BFCCF100024A
:1043A80000295EF82220B8BF07310244C910000E68
:1043B80002EB0162B2F1A06FA0D2D4F818C2012AB0
:1043C8000CEB070198BF00220B44C4F81422B3F188
:1043D800A06F96D2012B98BF0023B0EB126FC4F8E0
:1043E80018327FF476AF1B0EB3EB1C6F14BF012796
:1043F800002704F53873012153E8002F002AA5D1BE
:1044080043E80012002AF7D1BFF35F8F5FB394F837
:104418001B12142094F8173201EB81021A4403EBA3
:1044280083030B44D4F88C124243D4F81C02DBB249
:1044380000EB020843EA0123C4F88C321EB9815C00
:1044480006297FF661AF217A04F509701CF02AFA73
:10445800D8F804304046C4F88432D8F80830C4F894
:1044680088321CF020FDBFF35F8F0023C4F8E032D0
:104478001FB1227D032A3FF44FAFAA073FF551AF82
:10448800AB0707D039462046D4E9A123BDE8F0415F
:104498002AF0A4BCBDE8F081911C0120AFE5022000
:1044A800B42500200148FFF7F1BE00BF9496022012
:1044B800024808B52EF04AF908BD00BF78AC0220C2
:1044C800024808B52EF0AAF908BD00BFD055022051
:1044D8002DE9F347BB4E0120BB4C94F8008007F050
:1044E80079F907462EF01CF9014606F5A87094F8EC
:1044F80000902EF021F928F0BFFF014606F5AA70BA
:104508002EF01AF928F0C4FF014606F5AC702EF01B
:1045180013F928F08BFF014606F5AE702EF00CF962
:104528003188D6F850310131B6F91440D6F8542103
:1045380009048134091224040139241201EB0311FE
:10454800B6F90430013C01EB4301736A81F31001B1
:10455800A6F85830B368003B18BF012386F8AC3082
:10456800B38901331B041B12013B03EB021383F3D2
:104578001003A6F85A30D6F8583104EB031484F324
:10458800100414F4004FA4B2A4F5004406D104FBAF
:1045980004F3DB13A3EB830323449C1096F84C30FD
:1045A800D6F85C51013B3466052B00F2FF80DFE84A
:1045B80013F00600D900E000E600ED00F300002447
:1045C8002B01A446A646224620462546B6F918A041
:1045D8000AF1800A4FEA0A4A05EB2A25013D85F3CC
:1045E8001005ADB2A5F5004505FB05FA002D4FEA0B
:1045F800EA3AD8BFCAF1000A0AEB4A0AAA44B6F94D
:10460800105080354FEAAA1A2D040AEB8A0A03EBE8
:1046180025236C4D4FEA4A0A013B83F31003A3F5A7
:10462800FF43A6F864A07F3B43F34E03A6F85C3033
:10463800B38B01331B0400EB2320B6F92030013380
:10464800013880F310001B0480B202EB232296F895
:104658002830B066013A82F3100212B2F26696F878
:1046680070209A4295F871201EBF86F87030012399
:1046780086F8793095F82C309A4295F872201EBF4A
:1046880085F87130012385F8793095F830309A42F1
:104698001EBF85F87230012385F8793095F83430DB
:1046A80013B1C3F11003DBB285F8733095F83830D5
:1046B80013B1C3F11003DBB285F8743095F83C30C0
:1046C80013B1C3F11003DBB285F8753095F84030AB
:1046D8003E4A734483F307035B0085F8763095F808
:1046E8004430634483F307035B0085F8773095F81B
:1046F8004830234483F307035B0085F87830344B54
:104708001B78180102EB03131258DB6892681A42EF
:1047180054D04FF0FF33DBB285F84D3157B995F8D7
:104728004C213AB9009308F00102C9F380032948E3
:104738003AF0F2FA284BB5F8A42082F310021A6076
:10474800B5F8A62082F310025A60B5F8A82082F3C3
:1047580010029A60B5F8AA2082F31002DA6002B05B
:10476800BDE8F08700242801A446A6462246234631
:104778002BE700242A01A446A6462046F7E70F3572
:1047880000244FEA651EA4462246F6E70F350024AA
:104798004FEA651CA646F7E74FF0000C0F35E646D2
:1047A8006C1162466046634665460FE700242D019A
:1047B800A446A64622462046234607E795F95030E8
:1047C800A9E700BF90CC0220AFE5022014F000203A
:1047D80048930120E8CC0220388402202DE9F041DA
:1047E800694B0320694C2DED028B86B01F7806F0CB
:1047F800F1FF80462DF094FF014604F1AC002DF046
:104808009BFF28F039FE014604F1B4002DF094FF17
:1048180028F03EFE014604F1B0002DF08DFF28F08F
:1048280005FE014604F1B8002DF086FF2688A2880F
:104838000136D4F8AC300132D4F8B410360412047E
:1048480036121212013E013A06EB0316D4F8B030C4
:1048580086F3100602EB0312238982F31002013358
:1048680005921B041B12013B03EB0113B3F5FE4F2A
:10487800A8BF4FF4FE43B3F5806FB8BF4FF4806311
:1048880083F310031BB25D0307EE905A05F5C025AC
:104898009FED3B8BB8EEE77B37EE087B51EC170BAF
:1048A80044F0AEFAA38901331B04C4E91C011B12AE
:1048B800E917013BC4E92251D4F8B81003EB0113FE
:1048C800B3F5FE4FA8BF4FF4FE43B3F5806FB8BFF2
:1048D8004FF4806383F310031BB25D0307EE905A15
:1048E80005F5C025B8EEE77B37EE087B51EC170BD2
:1048F80044F086FAA36917F0040F059A84F860302B
:10490800E36918BF012784F86130236AC4E91E01EE
:1049180084F862304FEAE571636AC4E9245184F887
:1049280063300ABF07F001033B46C7F34007B8F1FD
:10493800000F0BD194F8A81041B9217D14480291B9
:10494800217CCDE9007131463CF006F9114BB4F8F1
:10495800982082F310021A60B4F89A2082F31002A9
:104968005A60B4F89C2082F310029A60B4F89E2032
:1049780082F31002DA6006B0BDEC028BBDE8F0816C
:10498800000000000000B841AFE5022008580220EE
:104998003858022038840220024808B52DF090FFCC
:1049A80008BD00BF78990220024B1B68C0F810317F
:1049B800704700BF0CD9022003682DE9F74F03F1B7
:1049C8000108724B00260446C0F800804FF0010928
:1049D8001B783546FF2B0CBF04270727B246013644
:1049E80004EBC60039F066FD18B109FA0AF32B4347
:1049F8009DB2B742F2D104F14007002604F10C0B36
:104A08004FF001091BF83630802B0DD109FA06F258
:104A180000230121C7F8008092B20095204639F0A2
:104A280061FD17E01E46EDE77F2B40F093803B6861
:104A380009FA06F220460095A8EB030392B2B3F5F3
:104A4800FA7F4FF0000334BF0221042139F04AFDF8
:104A580000233B60B24506F1010307F10407E1D1E9
:104A680004F1640039F082FE04F1740039F0A6FE06
:104A780094F86400E26E18B112B1103A22EAE272B8
:104A880094F8703094F8711003F0030301F00301F7
:104A9800022B01D100296DD002296FD1002B6DD1D5
:104AA8004FF0FF3394F8651001B15B42002863D0E2
:104AB800A16E994260D1D032B2F5805FA8BF4FF4A1
:104AC80080521112A36601FB0333E2663BB11BB2AD
:104AD8004FF4007205212046009539F003FD94F843
:104AE8007400E26F18B112B1103A22EAE27294F837
:104AF800803094F8811003F0030301F00301022BC6
:104B080001D100293CD002293ED1002B3CD14FF0E5
:104B1800FF3394F8751001B15B4298B3A16F9942C5
:104B280030D1D032B2F5805FA8BF4FF48052111255
:104B3800A36701FB0333E2673BB11BB24FF48072FA
:104B480005212046009539F0CDFCA4F85C5003B04F
:104B5800BDE8F08F002B7FF47DAF3A68A8EB020226
:104B6800B2F5FA7F7FF476AF09FA06F203210095D1
:104B780092B253E7012395E70022A2E70023A4E7B6
:104B88000123C6E70022D2E70023D4E714950120C9
:104B98000548064B1B1AD90F01EBA301491002D097
:104BA800034B03B118477047C09A0120C09A0120EF
:104BB8000000000008B5054B1BB105490548AFF3D7
:104BC8000080BDE80840FFF7E3BF00BF0000000019
:104BD800B8C50220004C0660DFED0D7AB4EEE70A96
:104BE800F1EE10FA10DCDFED0B7AB4EE670AF1EEA5
:104BF80010FA48BFB0EE670ABEEEC80A063110EEDA
:104C0800103A40F821307047B0EE670AF4E700BF69
:104C180000FEFF4600FEFFC6044B0022C3E9062241
:104C28001A624FF480325A62704700BFD8C402201B
:104C380010B586B00446CDE9042103933FF048FE41
:104C48009DF82000059900902046DDE903323FF0E9
:104C5800A5FE204606B010BD0E4B10B50446104602
:104C680023600023617222618A0023721946E3607F
:104C780044F0C0FB084A136833B914600023204687
:104C880063616360A37210BD1A465B69002BFBD198
:104C98005461F3E7C0DC0020E4790220F3EE047AE3
:104CA80010B5B4EEE70A0446F1EE10FA18D4DFEDB9
:104CB8000E7AB4EE670AF1EE10FA37FE800ADFEDDD
:104CC8000B7A20EE270AF0EE407AFEEEE07AC4ED89
:104CD800067A43F051FDBEEEE00A84ED070A10BDE6
:104CE800B0EE670AEBE700BF00D089469365153838
:104CF80010B500F1280204210446FFF7ADFF054B6B
:104D0800204623604FF48033C4E90633C4E90833EE
:104D180010BD00BFB4DC0020F7EE007AB4EEE70A5D
:104D2800F1EE10FA15DCFFEE007AB4EE670AF1EE48
:104D380010FA48BFB0EE670A72B6DFED077A0023B3
:104D480020EE270A0376BDEEC00A80ED070A62B698
:104D58007047B0EE670AEFE700FEFF4E044B0022F3
:104D68004FF48031C3E90822C3E90612704700BF37
:104D780010C5022008B9FFF74FBF044B0022C3E952
:104D880006221A624FF480325A62704710C5022018
:104D980038B9054B4FF48032C3E90800C3E906204F
:104DA8007047FFF7DBBF00BFD8C4022000294FF0CF
:104DB8001C02B8BF494208B58B1100EE103A0A4BE5
:104DC80002FB0033B8EEC00AD3ED017A30EE270AB1
:104DD80020EE000A20B90548BDE808403CF0AABB0F
:104DE8000348FFF75BFF08BD9084022080B90220CA
:104DF800CCD802200000000007EE901A9FED307A10
:104E0800304B1C22F8EEE77A02FB003387EE870A64
:104E1800D3ED037A2DE9F0412B4F04464FEA800881
:104E28002A4D07EB80062DED048BB7EE009B9FED16
:104E3800228B30EE270A86ED000A18BB2448FFF7BC
:104E48006BFF97ED007A95ED006A2146B0EEC70A30
:104E58002048B7EEC66AB7EEC00A39EE400B20EE1E
:104E6800060BB7EEC00BFFF7B7FEB7EEC70A032174
:104E780020EE080BBDEC048BB7EEC00BBDE8F0418B
:104E8800FFF7AABE14484544FFF746FF96ED007A9F
:104E980000211248B0EEC76AB7EEC66A39EE460B73
:104EA80095ED006AB7EEC66A20EE060BB7EEC00BAA
:104EB800D9E700BFAFF30080CDCCCCCCCCCCEC3F55
:104EC8000000104690840220C8840220A88901208E
:104ED800D4A8022048C50220FCA8022080C50220D0
:104EE80007EE901ADFED1C6A1C221C4BF8EEE77ADD
:104EF80002FB0033B7EE000B820087EEA67AD3EDF3
:104F0800007A174B03EB800337EE277A83ED007A9C
:104F1800B7EEC77A134B78B993ED006A0146124889
:104F2800B0EEC66AB7EEC66A30EE460B20EE070B47
:104F3800B7EEC00BFFF750BE134400210B4893EDAA
:104F4800006AB0EEC66AB7EEC66A30EE460B20EECF
:104F5800070BB7EEC00BEDE7000010469084022067
:104F6800A8890120C884022048C5022080C50220E3
:104F780007B58021154845F0ABF94DF69913144A49
:104F880001209FED140A9361134A9361FFF744FED1
:104F9800FFF7F0FE114B124A12485A623CF052FADF
:104FA8009FED110A11488DED010AFFF7B5FE9DED41
:104FB800010A0F48FFF7B0FE4EF266630D4A5362CE
:104FC8000D4A536203B05DF804FB00BF00002020C7
:104FD800649202206666263F84920220CCD8022082
:104FE80080CFF33C80B9022000000000D4A8022042
:104FF800FCA8022048C5022080C50220F8B5064654
:10500800194F1A4D002417F8013B013B032B15D803
:10501800DFE803F00C0420180124F4E72B68002BC8
:105028000CDB56F823102046FFF7C0FE2B68002B38
:1050380004DB56F823102046FFF752FF1C35002CDE
:10504800EAD0F8BDEB68002BF8DB56F823102046B1
:10505800FFF7D2FE6B68002BF0DB56F823102046D2
:10506800FFF7A4FEEAE700BFBDE502207089012032
:10507800134B032910B5044619540ED801290FD92A
:105088000021FFF7B9FE20464FF41051FFF728FF23
:105098002046BDE81040FFF77BBE04290DD010BDA7
:1050A8000021FFF7A9FE4FF410512046FFF718FF23
:1050B8002046BDE81040FFF75DBE4FF41051F5E7FC
:1050C800BDE5022010B4164C0346164A245C125C57
:1050D800D4B1032A16D0042A14BF00200320C3EB3E
:1050E800C303114A5DF8044B034452F823000144FA
:1050F80001311029A8BF102121EAE171013942F8D4
:10510800231070470120EAE711445DF8044B042995
:10511800A8BF042121EAE171C9B2FFF7A9BF00BF06
:10512800BBE50220BDE50220708901202DE9F04F82
:105138000022DFF8DCA3DFF8DC934FF4803411465B
:105148005046DFF8D483D44DDFF8D0B3D34FD44ED4
:105158002DED028B83B09FEDD38AFFF77DFDD24BF7
:105168005046CAF800303CF09DFD09F11C020121AF
:105178004846FFF771FD08F11C02C9F800500121EB
:10518800C9F818404046FFF767FD0BF134020221C9
:10519800C8F80050C8F818405846FFF75DFDC34BE3
:1051A800B0EE480A5846CBF80030FFF777FDC04B01
:1051B8004FF480520024032138464FF07E55CBF837
:1051C8003040CBE9082307F63432CBE90A44FFF72D
:1051D80043FDB84B2146A7F8DC4A3B6007F52E6330
:1051E800102207F6E4201D6044F004F9214610223D
:1051F80007F6F42044F0FEF82146102207F60430A2
:1052080044F0F8F807F614334FF0605238461D6042
:1052180007F6183383ED008A07F61C331D6007F57F
:1052280032631A6007F624324FF07C53136007F696
:105238002832136007F62C3300221D6007F533630C
:105248009D4D1A603CF0AEF8224621469B48FFF778
:1052580003FD9A4B9A481D601C76DC61FFF748FDF8
:105268009848FFF745FD224621469748FFF7F4FC8A
:10527800954B06F1180202211D6030461C76DC6150
:10528800FFF7EAFC914D924B022135601E4603F16F
:1052980018021846FFF7E0FC35608E488E4DFFF780
:1052A80027FD8E48FFF724FD05F118020221284644
:1052B800FFF7D2FC8A4B8B4E28462B608A4D3CF078
:1052C8003BFF43462246514600948848FFF7B0FC0E
:1052D80032462946854842F0E5FF4B4651460122B1
:1052E800DFF83CA200948248FFF7A2FC3246294628
:1052F8007F4842F0D7FF5B46224649465046009415
:10530800FFF796FC32462946504642F0CBFFDFF8BD
:1053180014A20323224649465046DFF80C92009314
:10532800674BFFF785FC32462946504642F0BAFFE4
:105338003B462246414648460094FFF779FC3246F0
:105348002946484642F0AEFFDFF8E09103232246A3
:1053580041464846DFF8D88100935A4BFFF768FC6E
:1053680032462946484642F09DFF554B224659464B
:1053780040460094FFF75CFCDFF8B89140464FF0D8
:1053880001083246294642F08DFF4D4B42465946A8
:105398004846CDF80080FFF74BFC32462946484680
:1053A80042F080FFDFF890910222454B594648466B
:1053B8000092FFF73DFC4846DFF8809132462946C7
:1053C80042F070FF3F4B224639464846494F009409
:1053D800FFF72EFC32462946484642F063FF3C4B15
:1053E800224636493846CDF80080FFF721FC38467A
:1053F800414F3246294642F055FF294B2246304953
:1054080038460094FFF714FC38463C4F324629468C
:1054180042F048FF2F4B2246294938460094FFF7AF
:1054280007FC3846364F3246294642F03BFF284BA8
:105438002246244938460094FFF7FAFB3846314F94
:105448003246294642F02EFF244B22461D49384653
:105458000094FFF7EDFB38462B4F3246294642F0C1
:1054680021FF0F4B224618493846CDF80080FFF738
:10547800DFFB32462946384642F014FF234F032308
:105488002246074938460093124BFFF7D1FB3246B4
:105498002946384654E000BF18DE002080B90220B3
:1054A80094D9022000007A4424DE002040E0002045
:1054B80080F9855A14DF002028E00020D4A80220B3
:1054C80010C50220D8C40220FCA8022034E0002025
:1054D80074D9022080C5022060B9022048C5022084
:1054E800B8DE0020288B01206115040000CB0220C3
:1054F800DCCB022028CB02203CCB022050CB022060
:1055080064CB022078CB02208CCB0220A0CB0220D7
:1055180048B902208492022064920220CCD802204A
:1055280004CC022018CC02202CCC022040CC022033
:1055380054CC022068CC02207CCC022014CB022060
:1055480042F0B0FE164F0323224616493846009310
:10555800154BFFF76DFB3846144F3246294642F08B
:10556800A1FE134B224613493846CDF80080FFF7B9
:105578005FFB3846104F3246294642F093FE2246DA
:105588000B4B384608490094FFF752FB3246294630
:10559800384603B0BDEC028BBDE8F04F42F082BE46
:1055A800B4CB022074D9022048C50220C8CB0220FF
:1055B80060B9022080C50220F0CB0220074A136898
:1055C800002B0ADB064908780649C85406490878BA
:1055D8000649C8544FF0FF331360704748890120CB
:1055E8009BE502209FE502209CE50220A7E502201A
:1055F80070477047F0B5002480F838404E68A5B26F
:1056080090F83830AE4208D8B1F90020426113B1A1
:10561800131E18BF01230370F0BDD70708D5043542
:105628005F1C0C3331F9155080F8387020F813508E
:1056380052080134E3E7000038B5074D0024202262
:105648000021064843F0D6FE0134284639F007FA0F
:105658004035082CF8D138BD087F0220007B022095
:10566800034B1870034B1A68034B1A60704700BF4E
:1056780099E5022058840220FC7A0220044B1A7A09
:1056880022B15A7A12B9034A1A677047FFF796BFD0
:10569800947E0220CD200000024B03EB8010408F47
:1056A800704700BF087F022010B5044612B9074AA8
:1056B8001256D201064800EB841039F0D8F9054B90
:1056C8001B5703EB430300EB432010BDA7E5022063
:1056D800087F02209FE5022010B50446074800EB2A
:1056E800841039F086FA064B1B5700EBC310054BA4
:1056F8001B5703EB430300EB432010BD087F022038
:10570800A7E502209FE502209429A8BF942138B577
:105718000446094B21EAE170154643F82400074B7B
:1057280023F8142038F0AEFE014605482A4600EB5F
:105738008410FFF75FFF38BD207B0220C6D9022006
:10574800087F0220014B53F820007047207B02207D
:10575800014B1856704700BFA7E502200B29044BE0
:10576800A8BF0B2121EAE17119540846704700BF10
:10577800A7E502201C4A1368002B1C4B07DA1060AF
:105788001B4A125C1A701B4A105C1B4A10701A786C
:105798001144C8B249B20B29197009DD164991F9AB
:1057A8000020042ADFBF01320A70A0F10C021A702F
:1057B80093F90020002A0ADA0F4890F9001011F135
:1057C800040FA1BF01F1FF310C3201701A7093F977
:1057D8000020002A03DA00221A70FFF74FBF0B2AB5
:1057E800FBDD0B22F8E700BF488901209CE5022079
:1057F800A7E502209FE502209BE502200F4B1A68CF
:10580800002A0F4A10B407DA18600E4B1C5C0E4BC6
:105818001C700E4B1B5C13701378194449B24B1D56
:1058280002DAFB23137002E0052904DC11705DF82D
:10583800044BFFF723BF0523F4E700BF4889012085
:105848009BE50220A7E502209CE502209FE50220B7
:10585800084B53F820201144942909DC0029B8BFCB
:10586800942143F82010044B33F81020FFF74CBF65
:105878000021F6E7207B0220C6D90220F8B51B4E8E
:1058880004460F461A4D56F8200038F0FBFD4368D1
:105898004FF6FF7035F81420002F00FA03F06FEA76
:1058A800000080B202EA000219DAF918C7F1000C08
:1058B80042FA0CFC8A404CEA02039BB263EA0003FA
:1058C80056F8240025F8143038F0DCFD0146094864
:1058D80035F8142000EB8410FFF78CFEF8BDDB1BB5
:1058E80002FA07F142FA03F30B43E6E7207B0220B2
:1058F800C6D90220087F0220034B80F3030001224F
:105908001870024B1A6070479EE50220907E0220B4
:1059180038B51F4A03460D461E4C10788BB91E4BEE
:1059280053F8200038F0AEFD226841682A44002A66
:1059380005DD03319142A8BF1146216038BD012120
:10594800FBE72468012C03D1BDE83840FFF780BF8E
:10595800022C03D1BDE83840FFF70CBF032C03D15C
:10596800BDE83840FFF78ABF043C01230B4A0029F1
:1059780003FA04F332F810209BB2CCBF1A439A43BF
:10598800054B53F82010BDE83840FFF7BDBE00BFF7
:105998009EE50220907E0220207B0220C6D90220AC
:1059A80038B5244C237A657ACBB1C5B9E37A258119
:1059B80065737BB14FF60F4041F01AFA4FF60F416D
:1059C8001D483EF08FFC1D4BFC215B6D1868036879
:1059D8001B6898470120BDE83840FFF741BE184BC7
:1059E8000021242217481B68C4E90411A36143F06D
:1059F80001FD94F8643085F00102A57283F001037B
:105A0800627284F8643001232372002AE2D1E37AB7
:105A1800002BDFD04FF60F2041F0EAF94FF60F21A7
:105A280005483EF05FFC054BFA215B6D186803687A
:105A38001B68CEE7947E022000AA01202C6F02206A
:105A480058840220CC7E0220014BC3E90101704733
:105A5800CCB40220034BC3E90101114618463BF0C0
:105A680011B800BFCCB40220034BC3E901011146B1
:105A780018463BF00BB800BFCCB4022001460148E1
:105A88003BF000B8CCB40220014601483AF0FEBF12
:105A9800CCB40220F8B506230C460025074F90FB2E
:105AA800F3F6AE4204DC2046BDE8F840FFF7ECBF51
:105AB80038460135FFF7E2FFF3E700BF011901207F
:105AC80038B564254FF4C063134A6FF06301684327
:105AD80090FBF3F39042B8BF5B4293FBF5F501FBF3
:105AE80005340E490E4B9042B4BF08461846FFF7DE
:105AF800C5FF2846FFF7C8FF0A48FFF7BFFF092C74
:105B080002DC0948FFF7BAFF2046FFF7BDFF074848
:105B1800BDE83840FFF7B2BF01FAFFFF18180120AF
:105B2800F3510120C021012094510120AE460120EB
:105B3800CB1001F0070100EBC310044B1A680123D6
:105B48008B40115C0B431354704700BFCCB4022048
:105B580007B5009313460A46014603483AF0FFFA90
:105B680003B05DF804FB00BFCCB4022007B5009376
:105B780013460A46014603483AF0B2FB03B05DF803
:105B880004FB00BFCCB4022013B50124CDE90034D6
:105B980013460A46014602483AF0B6FC02B010BD68
:105BA800CCB4022013B59DF81040CDE9003413465B
:105BB8000A46014602483AF0A7FC02B010BD00BFF1
:105BC800CCB402202DE9FF41851802270C469846DF
:105BD800013D0B46009706462A46FFF7E3FF04EB14
:105BE8000803611C3246013B30460097029303913B
:105BF800FFF7D8FF029B2A46039928460097FFF72C
:105C0800D1FF029B2A46304619460097FFF7CAFF84
:105C180004B0BDE8F0810000F0B49DF810C0BCF1FC
:105C2800000F02D0F0BCFFF7CDBF049313460A461D
:105C380001460248F0BC3AF014BC00BFCCB40220C4
:105C480013460A46014601483AF0E8BCCCB40220A3
:105C580007B5009313460A46014603483AF0E2FDA9
:105C680003B05DF804FB00BFCCB402201346082241
:105C7800FFF7EEBF2DE9F347DFF8E08204460E4652
:105C8800174698F80030BBB92623192249219248B3
:105C9800009336233AF0C3FA24231A224A210093A8
:105CA80034238D483AF0DDFB98F80030032B49D8AF
:105CB800DFE803F030688088032B874D16D14FF05A
:105CC8001C094FF01A0A5823172214212846CDF828
:105CD80000903AF0A4FA5623182215212846CDF848
:105CE80000A03AF0BEFBC5E901A9DDE7172212239F
:105CF80028461146009352233AF091FA10231822AD
:105D080028460093502311463AF0ABFB1C23C5E903
:105D18000133C9E7714A1E214E20FFF79BFE704BE5
:105D2800704A28214E20022C18BF1A46FFF792FE0F
:105D38006D4A32214E20FFF78DFE022C16D004DC6E
:105D4800012C08D902B0BDE8F087032CFAD1674AC4
:105D58003221732005E00A23654A682003FB04F119
:105D68001E3102B0BDE8F047FFF780BF002FE9D031
:105D7800604B7220604A1978604B002908BF1A46A8
:105D88002821EEE75E4954483AF07CFE5D4B1A7ACA
:105D98005B7A3AB163B95C494F4802B0BDE8F04755
:105DA8003AF070BE59495A4A002B08BF1146F3E72A
:105DB8005649F1E7574948483AF064FE564B53F8BC
:105DC8002610E9E7554B564D1B68002B4CDA2B780B
:105DD800544AD756544AD45654493F483AF052FE8A
:105DE80029783D480131524E3AF050FE51493A481F
:105DF8003AF048FE2B78384856F823204E4B53F893
:105E080022103AF03FFE4D4933483AF03BFE4C4BE6
:105E1800314853F827103AF035FE002C03DB494986
:105E28002D483AF02FFE21462B483AF02FFE2B78CA
:105E38000024454F56F823004FF0040838F022FBA1
:105E4800DFF894904668B44215D1404B1B68002B8C
:105E58003FF478AF022B27DC1A203D4A232103FBAD
:105E68000000FFF703FF27E03A4B93F900703A4B25
:105E780093F90040B0E72B7804EB840037F813302F
:105E880018302341DB0706D5042328211A46FFF7DB
:105E98005FFE0134D7E70146042328224846CDF89F
:105EA80000803AF0DEFAF4E7032B0ED106235122E4
:105EB80027211720FFF786FE1C23582217211420BC
:105EC80002B0BDE8F047FFF751BE03EB8303204A59
:105ED8002C21981CC5E700BFCCB402202C1C012043
:105EE8001C1C0120151C0120534301205D120120B8
:105EF800071501209DE50220151301202F1401200C
:105F0800311C0120947E0220381C0120211C012014
:105F1800271C01203E1C0120A8540020488901208C
:105F28009EE50220A7E502209FE50220A646012063
:105F3800207B02206A47012080510020011901209E
:105F4800F8530020F3510120C6D90220907E022088
:105F5800D51201209CE502209BE5022099E502204C
:105F68002DE9F347254D0024254E1927DFF8A89081
:105F7800DFF8A88015F8013B032B3CD0042B14BF95
:105F88004FF0000A4FF0030A52204A460F2160439F
:105F980008300190FFF75EFD15F8013C19210198C2
:105FA80058F82320FFF756FD164A23210198FFF7DA
:105FB80051FD154AC4EBC4032D210198534452F8EE
:105FC8002330124A013352F82320FFF743FD1049CA
:105FD800104A782016F8013B002C18BF0A461421F5
:105FE800604301FB0371FFF741FE14B102B0BDE845
:105FF800F0870124BEE74FF0010AC5E7BDE502209E
:10600800BBE50220C6610120708901208855002067
:10601800071501205D120120604901201C5800204D
:106028000121024610B50846FFF714FD0A237F2216
:1060380000201946FFF7A8FD0B237F2200201946F0
:10604800BDE81040FFF7A0BD064A0020064908B584
:1060580042F028F9034A05490020BDE8084042F00B
:1060680021B900BF288B0120012100000321000075
:10607800DFF854C00023F0B56446064680F8A8301F
:1060880000F1B40567460FCC0FC594E80F0085E80A
:106098000F000FCF06F1D4050FC594E80F0085E86F
:1060A8000F000CF1200506F1F4040FCD0FC495E89C
:1060B8000F0084E80F00DCF8400006F58A73DCF86E
:1060C800441003C33046F0BDF00D002070B40849F9
:1060D80041F288350479074E51F82430013BB34228
:1060E800B8BF2B4641F82430036870BCDB681847FA
:1060F800A87A022078ECFFFF0368F7B504461B680E
:106108000D46984723790227104E014603F00103F4
:106118003046B7609B01013373603AF0B3FC2179D4
:106128000A223046019701F001030092990101F11A
:106138003E033AF0E9F923682DB19B6A204603B083
:10614800BDE8F04018471B69F8E700BFCCB402204F
:1061580010B562BB234B1A7A12B15A7A82F0010247
:10616800037901EB43014B4201F0070003F00703F9
:1061780058BF58421C4B53F82130D2B1194A02EB90
:106188004004B4F92640A4B10244127F9AB1174BD7
:10619800174803EB81043831026803EB810359681F
:1061A800521AC4F80421026801205A6010BD002266
:1061B800D6E7002B09DC0B4B034493F86500002855
:1061C800F4D0002283F86520E1E70C2B074AC5BF0D
:1061D8000D3B0024D25C9B18C4BF93F8BC2083F805
:1061E800BC40D3E7947E022028890120407B02200E
:1061F8005884022038B516480025164C057000F55D
:10620800A670FFF735FF782242F28D03294604F184
:106218002600A56184F82450C4E900234FF0807358
:106228001022C4E90235C4E90455C4E9075543F00E
:10623800E1F818232422294604F13800E38643F0C4
:10624800D9F80423E565C4E91835C4E91A5538BDF9
:10625800407B0220947E0220C1F57F41054BFF312F
:1062680003EA011343EA0050034B40F040705866BC
:10627800704700BFF0FF0F0000003A4070477047BA
:106288000B68036070470B6803607047704770477E
:1062980010B504463FF01EF8204610BD03681847A5
:1062A80008B541F03DFB054B1B7803F0FF0023B117
:1062B800034B1878003818BF012008BDB5E6022046
:1062C800DFE7022003680171B3B103F1BF230B4A72
:1062D80003F577031B11D154137851788B4228BFEB
:1062E8000B469178D2788B4228BF0B46934228BF41
:1062F8001346034A82F87A30704700BF649301203E
:1063080000E400E0094B01685A684368D21A4B68F8
:106318009A428B6838BF4A609A420B6888BF8A6085
:10632800C3EBC3031344DB080B607047001000E0A5
:1063380038B5224B224C1B7821688BB30020FFF71D
:106348008BFF61680120FFF787FFA1680220FFF734
:1063580083FFE1680320FFF77FFF21690420FFF72F
:106368007BFF61690520FFF777FFA1690620FFF72A
:1063780073FFE1690720FFF76FFF124800221249F7
:1063880003680F4C01EB430154F8045B21F81250E9
:106398000832402AF8D1013303F00703036038BDFF
:1063A800084600F035FD606800F046FDA06800F082
:1063B8004FFDE06800F058FDDFE700BFA3E30220CF
:1063C8003884022030840220C6DF022090F8103C76
:1063D80010B504469BB100234FF4806280F8103C4E
:1063E800D0F8083C03F0010303F5407350F823107C
:1063F80000F500603FF0BEFD012384F8113CD4F89D
:10640800083C0133C4F8083C10BD10B5044650F8E8
:10641800083BDB689847204610BD00000D4B9A42A8
:1064280030B5054687B012D818235A43541E102C8D
:106438000DD951F8083B02A800935B68984722469B
:10644800694628463EF08AFF6846FFF7DEFF07B038
:1064580030BD00BFAAAAAA0A38B53FF0E5FB00255F
:106468003748384BC0F824030360C0F84003364C63
:10647800C0E901553DF0FCF9344B20462462236005
:1064880004F59F63236304F5A763636304F5AF63AF
:10649800A36304F5B76323644023A4F8463050236C
:1064A800C4E90155A4F848303DF098FE284B294A24
:1064B80029462360284C294B04F17800A4F8585049
:1064C8001A60802284F85A506567C4E914534FF65D
:1064D800FF73C4E91A330323C4E9005584F8703004
:1064E800C4E90255C4E90455C4E90655C4E9085588
:1064F800C4E90A55C4E90C55C4E90E55C4E9105558
:10650800C4E91255C4E91855C4F8F85042F072FFAE
:10651800134A20461349C4F80851A4F80C51C4E999
:10652800405541F0BFFE10490D4A104841F0BAFEEF
:106538000B4A0D490E48BDE8384041F0B3BE00BFD4
:1065480080A2012094E4002000AA012030DE00206F
:10655800E4DB0020F08501202C6F0220C8D802203F
:10656800288B01209F2D0000A12D000050860120BE
:1065780028850120F0B5794D87B03220784E3FF05C
:10658800ADFA40F2EE272C68FFF78AFE002800F0EB
:10659800D280744843F0B8FE90B140F6B734FFF7A4
:1065A8007FFE10B92B68A342F9D96F496D4843F0B3
:1065B800A7FE6D483EF0F3FF40F2DC503FF08EFA44
:1065C80043F07EFE694B1B7823B3694C002247F6E3
:1065D800122168483EF046FD636D002247F61221FD
:1065E80018680368DB69984700234FF6FF72A4F820
:1065F800583084F85A3084F8F8306367C4F8FC30AF
:10660800C4E91833C4E91A2203232A6884F87030CD
:10661800C4F80021584B1B7823B1584B1B780BB199
:10662800FEF7A6FC3BF032FF00F082FC37F0D8F909
:1066380043F07AFE524B1B780BB100F07BFC514BB8
:106648001B78002B00F0848043F03EFE4E4800F09B
:10665800B7F800F0CFF84D4800F014FC39F04AFDC7
:106668004B4AD2F8081CD2F80C3C5B1A0233F8D01B
:10667800D2F8083C03F0010303F5407352F82310E5
:106688000029EED00122434839F058FD3F4D4148DA
:1066980039F062FD3E48FFF799FE3F4C43F04CFE4F
:1066A80095F8C40039F048FD37F016FC3B4837F040
:1066B80049FFD5F8C810394801F0030137F0D4FF75
:1066C800374B3C226946374802930094FFF7A6FEF1
:1066D8006846FFF79AFE50213248FFF7F3FD324B28
:1066E8004FF47A726946314802930094FFF796FE98
:1066F80068460024FFF789FE80212C48FFF7E2FD59
:10670800694626488DF8004038F080F80328284B61
:1067180095F8CC100CBF01241870204808BF1C70D5
:1067280037F0ACFF9DF8000031F0DEF80CB122F034
:1067380083FD07B0F0BD2B6832781B1B32B1B3F56F
:10674800FA6F3FF626AF41F0EBF81DE7BB42F8E7DA
:106758004FF4C8703FF0C2F978E700BF0CD90220A7
:10676800B5E6022030850120E0850120A7E302205C
:106778002C6F0220F0850120A5E30220A6E3022069
:10678800A3E30220A2E30220A0820220F0810220DB
:10679800D0840220CCB4022094EF0020D8820220BA
:1067A8005D0000002885012021000000508601209E
:1067B8004F95012010B504463EF00EFA204610BD54
:1067C800084B094A186008230849013B42F8041B92
:1067D800FBD10823064A0549013B42F8041BFBD1BB
:1067E800704700BFEC830220F083022000AA0A0051
:1067F800108402202DE9F843B94BBA4D1C78BA4FE2
:10680800BA4E2DED028BB6EE008A002C00F0CF8038
:10681800D5ED007A0025DFEDB66A4FF00208F8EEF4
:10682800677AB44AB44C8121D38B272087EEA67AA5
:106838004FF0010923F008031B041B0CD383052325
:10684800A2F86E304123A2F87430A2F86A50A2F878
:106858006650A7EE088ABDEEC88A18EE103A9BB2B9
:10686800A2F86030A2F8703043F22303A2F86C302B
:10687800A2F87880A2F86A50D38B9BB243F0080341
:10688800D383236F43F4400323673FF0B7FC236AA5
:106898000422142143F4C01338462362A36A23F068
:1068A8000E2343F00223A362636F43F0030363677D
:1068B80004F53424914BC3F86C21C3F86421C3F860
:1068C8008021C3F86821C3F840118D49C3F83013FB
:1068D8002946C3F87C2141F60373C4F80035894B77
:1068E800C4F80034884BC4F880344FF6FF73C4F8FA
:1068F8000435864BC4F804344FF48853C4F8843400
:1069080043F60173C4F808354FF44013C4F80894EB
:10691800C4F888347E4BC4F80451C4F884304FF06E
:10692800AA33C4F804327B4BC4F80851C4F8883041
:106938004FF0CC33C4F80832774BC4F80C51C4F884
:106948008C304FF0F033C4F80C32744BC4F800515B
:10695800C4F88030236B43EA090323633EF0EEF862
:106968003B686F4A6FF0FF01DD601A606D4A1E6177
:106978009961A3F814806C49C3E901288022DA825E
:10698800DA833A799D8302FA08F303F1804303F529
:106998006C231D601960654BDA76FF232361636100
:1069A800A361C4F80890BDEC028BBDE8F88305210B
:1069B80013203FF0DBF8052112203FF0D7F805211E
:1069C80014203FF0D3F8052111203FF0CFF8D5ED82
:1069D800007ADFED576A6B21F8EE677A454A27207F
:1069E800D38B87EEA67A23F008031B041B0CD383F2
:1069F8000523A2F86E304123A2F87430A2F86A4049
:106A0800A2F86640A7EE088ABDEEC88A18EE103ACA
:106A18009BB2A2F86030A2F8703043F22303A2F8C8
:106A28006C300223A2F87830A2F86A40D38B9BB26C
:106A380043F00803D383A2F56C22136F43F4400399
:106A480013673FF0DBFB3B4B1A6812F0404F01D055
:106A58001C601C601A680021234842F0005242F072
:106A680010021A60DA6842F01002DA604FF4E64267
:106A7800C3F8B020304AC3F8B82002F5A0220A3281
:106A8800C3F8BC2042F248622C4B5A649A6C42F01C
:106A980020029A6410221A603EF050F83B68284A97
:106AA80028491A60284A1E61C3E901126FF00702DB
:106AB8006FF0FF01DA60042299619A822022397905
:106AC800DA82DA8300229A838B0003F1804303F58C
:106AD8006C231A601D4A1A60144BD97663E700BF0D
:106AE800A2E30220348501205C8402200082202059
:106AF800007C924800801E4000C00F4000801F406C
:106B0800C00001000110830022260001830B03004E
:106B180002110302020A0302020C030201018000AF
:106B280080021B40000001010100008000800E402F
:106B380000E8804700003B401510161000800C400C
:106B4800C8003B400400020208E0FFBF17000080B5
:106B5800884207DA044B081A1A684FF44003B3FB5B
:106B6800F0F31382704700BFEC8302200009054B45
:106B7800054A00021861136903EB430303449B08A9
:106B880013617047F0830220108402200009054B2E
:106B9800054A00025861536903EB430303449B0809
:106BA80053617047F0830220108402200009054BCE
:106BB800054A00029861936903EB430303449B0869
:106BC80093617047F0830220108402200009054B6E
:106BD800054A0002D861D36903EB430303449B08C9
:106BE800D3617047F0830220108402200009054B0E
:106BF800054A00021860136803EB430303449B082B
:106C080013607047F0830220108402200009054BAE
:106C1800054A00025860536803EB430303449B088A
:106C280053607047F0830220108402200009054B4E
:106C3800054A00029860936803EB430303449B08EA
