:0200000460009A
:100000004643464200000156000000000103030081
:1000100000000000000000000000000000000000E0
:1000200000000000000000000000000000000000D0
:1000300000000000000000000000000000000000C0
:1000400000000000010408000000000000000000A3
:100050000000200000000000000000000000000080
:100060000000000000000000000000000000000090
:100070000000000000000000000000000000000080
:10008000EB04180A063204260000000000000000FD
:10009000050404240000000000000000000000002F
:1000A0000000000000000000000000000000000050
:1000B0000604000000000000000000000000000036
:1000C0000000000000000000000000000000000030
:1000D00020041808000000000000000000000000DC
:1000E0000000000000000000000000000000000010
:1000F0000000000000000000000000000000000000
:10010000D8041808000000000000000000000000F3
:100110000204180804200000000000000000000095
:1001200000000000000000000000000000000000CF
:10013000600400000000000000000000000000005B
:1001400000000000000000000000000000000000AF
:10015000000000000000000000000000000000009F
:10016000000000000000000000000000000000008F
:10017000000000000000000000000000000000007F
:10018000000000000000000000000000000000006F
:10019000000000000000000000000000000000005F
:1001A000000000000000000000000000000000004F
:1001B000000000000000000000000000000000003F
:1001C000000100000010000001000000000000001D
:1001D000000001000000000000000000000000001E
:1001E000000000000000000000000000000000000F
:1001F00000000000000000000000000000000000FF
:10020000FFFFFFFFFFFFFFFFFFFFFFFFFFFFFFFFFE
:10021000FFFFFFFFFFFFFFFFFFFFFFFFFFFFFFFFEE
:10100000D100204331160060000000000000000005
:10101000201000600010006000B0056000000000BB
:101020000000006000BC050000000000FFFFFFFFA3
:10103000FFFFFFFFFFFFFFFFFFFFFFFFFFFFFFFFC0
:10104000FFFFFFFFFFFFFFFFFFFFFFFFFFFFFFFFB0
:10105000FFFFFFFFFFFFFFFFFFFFFFFFFFFFFFFFA0
:10106000FFFFFFFFFFFFFFFFFFFFFFFFFFFFFFFF90
:10140000814205D051F8043B40F8043B8242F9D8B0
:101410007047044A04494FF0000342F8043B9142EC
:10142000FBD87047C07E0120A05E022080B5BFF3CC
:101430004F8F00BF00BF00BF00BF01F057F8644BE3
:101440000822C3F8542100BF00BF00BF00BF00BF87
:1014500000BF00BF00BF00BF00BF00BF00BF00BF94
:1014600000BF00BF00BF5B4A5B495C48FFF7C8FF95
:101470005B4A5C495C48FFF7C3FF5C4DFFF7C9FF5F
:101480004FF0E0234FF47002C3F8882D0023584A30
:1014900045F823200133B02BFAD1564B8021564A10
:1014A00003F8011B9342FBD14FF0E020484C4FF072
:1014B0008037DFF87491DFF874814FF0FF32C0F8A5
:1014C000085DC4F80471C4F80091C4F8F470C4F85D
:1014D000F080D0F8243D494E43F4E023C0F8243D89
:1014E000F36923F07F0343F04003F361736A23F051
:1014F0007F0343F040037362414B9A66DA661A67D2
:101500005A6700F0F8FF3F4BAB633F4BEB6363233D
:10151000002543610323856103613C4BC0F8203DF6
:10152000D0F8FC3D43F08073C0F8FC3D384B1A689E
:1015300042F001021A605A68364B1A6001F064F8F2
:10154000C4F804713448C4F80091C4F8F470C4F8C5
:10155000F08001F035FAF36E43F44053F3662F4BFD
:101560001D60C3F80851C3F81851C3F82851C3F8D7
:10157000385103F5A0239A6BD20708D4284A5A653C
:1015800042F615621A659A6B42F001029A639A68F4
:10159000244C42F001129A6001F096F901F0F4F93E
:1015A00001F060F800F0A3FF2368132BFCD901F0D1
:1015B000EFF82368B3F5967FFBD300F09AFF00F0B5
:1015C00097FF01F0B9F901F0FFF930BFFDE700BF67
:1015D00000800D4040030400B42D006000000000B6
:1015E000C07E0120F830046000000020007C012053
:1015F00079D3030000E400E0A0E400E000C00F4065
:1016000000C00A40C5C40300C9C403000000202074
:10161000001000E0545302200046C323004008405D
:101620000000C056585302201B1018200C0D111337
:10163000054B064A5A64064A1A644FF42A029A6312
:10164000044B9D46FFF7F2FE00C00A40FFFFABAA25
:1016500007002000008003200B4974220B4838B596
:1016600001F0D2F941F21A35084900200A460A234E
:101670001488013B2C4422F8024BF9D10130163179
:101680000428F3D138BD00BF90500020CC0F0220B9
:10169000264A2DE9F047A2F1560586B002F10A0C60
:1016A00002F1040E2F460DF1100832F8023F6E468B
:1016B0003CF8021D05F1100A34461180ACF80030E8
:1016C0002B461868083353F8041CB1465345A9E863
:1016D00003004E46F5D1186807F1420107F156069E
:1016E000C9F8000028469B88A9F804300B4651F839
:1016F000049BB14240F8049BF9D109880180264639
:10170000083303CE464543F8080C43F8041C34461E
:10171000F5D13068724505F11605A7F11607186076
:10172000B1889980C1D106B0BDE8F08722100220AF
:10173000F0B52B4CA1B0FFF78FFF4FF0FF352046DF
:10174000802200216E4640F8045B01F011F9A5608B
:1017500000252846013501F02BF96946802D06F851
:10176000010BF6D11F48009B834232D1BDF80820FF
:10177000742A2ED1BDF80A6003AD0023013A23D2AA
:10178000DB439BB29E4224D1002380221648236073
:1017900001F03AF974221549154801F035F9154B55
:1017A00001221A70FFF774FF114BB3F860201AB9C9
:1017B0004FF47052A3F8602093F86C2012B91922EC
:1017C00083F86C2021B0F0BD15F8017B3B449BB23F
:1017D000D4E7742300226060A381064B1A70E3E70C
:1017E0001C252020014C4143202520202C25202091
:1017F000CC0F02203A5C0220F8B5FFF749FF414ABE
:10180000414874230021013B0CD2A1B93F4EFFF7A0
:101810003FFF3F4C37683F4D336807F57A729A4275
:101820002CD8F8BD10F8014B12F8015FA5421CBF7F
:1018300001211470E7E7384A7421936802F110001F
:10184000013393600023013913D2DB430024334D6D
:10185000D381146015F8016B204601F0A9F8864287
:1018600003D03146204601F05FF80134802CF1D1DD
:10187000CCE710F8014B23449BB2E4E7D4F8082CE2
:10188000D4F80C3C9B1A0233F8D0D4F8083C03F08F
:10189000010303F5407354F823100029EED0012210
:1018A0001C4801F0ADF80D2212231D491948C5E965
:1018B000012301F071F81B231F211648C5E901130C
:1018C000184901F069F8134801F03EF894F8103C0B
:1018D00093B100234FF48062134884F8103CD4F88D
:1018E000083C03F0010303F5407354F8231001F0A2
:1018F0008BF8012384F8113CD4F8083C0133C4F878
:10190000083C89E72B252020CC0F022058530220C9
:10191000B8110220743F02201C2520202025202001
:1019200098560120B8360120B8190220D0E90121CB
:1019300010B5136A0446994201DAA36002E0536AC3
:101940009942FADC137D062B19D8DFE803F0230453
:101950001D2527293100137821891F2B10DC152B19
:1019600010DC0B2BD4BF0023012390690B24C21C75
:1019700004FB0323124A22F8131001F059F810BD9A
:101980000323F2E70223F0E79369A1682C330C4AA2
:1019900022F813100020F0E70120EEE70320ECE727
:1019A000207A074B83F86400BDE8104000F0D0BFF8
:1019B000002001F03DF8A268014B83F86C20DEE7BF
:1019C000CC0F02202DE9F74344680646734D00F022
:1019D000AFFF6168284600F0DFFF11230222C5E94E
:1019E0000123237D013B052B00F2BD80DFE803F0DE
:1019F000036799997B03A1686227684800F0CCFFD0
:101A000011230522B168C5E90173644800F0E8FFBD
:101A1000636AB2680F2100933846236A00F0A4FF7E
:101A20000F270223E1686B6007F10E03AB6011B171
:101A30005A4800F0B1FF23780BB1312B11D10223AA
:101A40001A37574955486B60AF6000F0A5FF554BFA
:101A5000554A9B6E514803F0030352F8231000F0DF
:101A60009BFF524F6A25DFF86081DFF8309157F80D
:101A7000043B1B0F03339A0809D023F0030302220F
:101A80002946484643440093042300F079FF053576
:101A90007E2DECD1236935220121404800F040FF22
:101AA00033784FF4277200213C48534302221B0A2B
:101AB00000923E2200F050FF03B0BDE8F083A16821
:101AC0006227364800F068FF1123394AC5E90173DF
:101AD0001268237E32F81310364A52F8233005225A
:101AE000A1EB132191E7A16862272C4800F054FF75
:101AF0001123B16802222948C5E9017300F06CFF87
:101B0000636AB268384600930F21236A00F02CFF05
:101B100040230022214800938023114600F068FFF3
:101B20007EE7A1681D4800F037FF02221D231B48F5
:101B3000C5E901231E4B1B6819881E4B1B68A1EBCE
:101B4000132100F04DFF338A13B1237D032B04D002
:101B5000738A33B1237D042B03D117490F4800F05A
:101B60001BFF1B275DE72378312B0ED0A1680B48A4
:101B700000F012FFE369002B3FF452AFB268074850
:101B800053F8221000F008FF4AE70C4B1B781BB1FA
:101B9000337D0BB10A49EAE70A49E8E7743F0220BE
:101BA000C5560120CC0F0220F84D00204410022021
:101BB0004411022058110220AA5601203A5C02204A
:101BC000B2560120BE560120BF0B0120F8B50221FC
:101BD000032000F0B5FE022100240326084600F091
:101BE000AFFE0221012000F0ABFE0221002000F038
:101BF000A7FE184B184A196B18481160196A5160F2
:101C0000196991601968D160D96B0160D96A416026
:101C1000D96981601146DB68C36050F8045B51F8F4
:101C2000042B95FAA5F3B3FA83F30F2B0ADC5B00C0
:101C3000D76806FA03F33B43D36001349561042C63
:101C4000EBD1F8BD103B17695B0006FA03F33B4389
:101C50001361F2E72CE00020AC0F0220BC0F022041
:101C600016292DE9F041044600F0E48005D8E1B1E1
:101C7000012900F0B680BDE8F0811729FBD1964B11
:101C80001121964A0360012383809060944A826008
:101C9000A2F59072C2F82011C2F898349423914AA8
:101CA000C371914BC3F8902226E0904B0122904DD6
:101CB0005921036040F203138380884B1860AB699D
:101CC00023F00053AB618B4B8360C83B1120C3F8FA
:101CD000C800C3F82C26884A136F43F440031367E7
:101CE00000F08AFEAB69854A43F00803AB618523A7
:101CF000E3717D4BC3F854220126237994F807C081
:101D000006FA03F065790CF1604C216887B20CF596
:101D1000644C1AB2002D40F0A480B1F88CE107F0B9
:101D20000F074FEA00181FFA8EFE5FFA88F84EEA96
:101D3000003E02EB42021FFA8EFE01EB4212A1F8B6
:101D40008CE10002B1F88EE100F470601FFA8EFEA3
:101D50004EEA070EA1F88EE1B1F888E11FFA8EFE77
:101D60004EEA080EA1F888E14FF4005EA2F804E004
:101D70004FF4806EA2F806E04FF6FF7E5580602299
:101D800002FB03135D81A3F80EE05D82DD825D83BB
:101D9000DD83B1F888319BB21F4330233843A1F86B
:101DA00088018CF800302179236802FB01334FF45D
:101DB000A0520921DA8484F83C50E587256484F830
:101DC0003D5099869A84E279530902F01F0203F18B
:101DD000382306FA02F240339B001A600123A371F4
:101DE00049E7474B1122424D5D21036040F2031346
:101DF00083803A4B5860AB6923F08053AB61414B11
:101E00008360C43BC3F8C42000221020C3F84C26D2
:101E1000394A136F43F44003136700F0EDFDAB69DB
:101E2000394A43F08003AB618623E3712E4BC3F83C
:101E3000582261E7284B1122036000238380274B3F
:101E4000D860324B8360A3F58E73C3F81C21012246
:101E5000C3F8942493232E4AC371234BC3F88C22D6
:101E60004AE7CD8B4FEA421E4FF6FF7801EB421254
:101E7000ADB225EA000001EB4315DB01C883002069
:101E800003F4C073A88143F44053688121F80E80A5
:101E900049F6404EA2F802E0D080A882E88228836A
:101EA000AB8144F24043EB8184F83C0084F83D0070
:101EB000CB8BE0879BB220643B43CB8330238CF8F1
:101EC0000030E279530902F01F0203F138239640F3
:101ED00040339B001E6081E700803E40F0090220F5
:101EE00020811F404D8A0300007C012000C01D405E
:101EF00000C00A40C8801F4000C00F40658A030030
:101F000000001E40C4801F40598A03001C811F40EE
:101F1000418A0300837910B5CBB14379C3B9026814
:101F20006024017904FB0122D3849386C2790121C4
:101F3000530902F01F0203F1382301FA02F2603361
:101F40009B001A60152283681A600023837110BDFC
:101F5000012BEBD102680479D18BA34089B221EA2D
:101F60000303D38302EB441200239381D381DDE783
:101F700070B5104CD4F880300B2B18D14FF0FF33D4
:101F80000D4A0E4E0E4D116804324B40202103F0D5
:101F90000100013906FB00F080EA5303F7D1AA42A1
:101FA000F1D1D4F8A800C31A5842584170BD00209E
:101FB000FCE700BF00FF272080FF27202083B8ED2B
:101FC000A8FF2720184A002370B5C2E92033C2E9D0
:101FD0002233C2E92433C2E92633C2F8A830BFF362
:101FE0004F8F4FF0E0248032C4F8702F2032C4F8B5
:101FF000702FBFF34F8FBFF36F8F0C4A0C4E916859
:102000000C4D91601C2113632846C6F8C03F00F0B8
:1020100003FDC6F8DC0FBFF34F8FC4F8685FBFF352
:102020004F8FBFF36F8F70BD00FF272000800F40E0
:1020300000F02720C0FF27202DE9F0470C46FFF7CE
:1020400097FF002800F0D081AD4E2046AD494FF0FB
:102050003C0800F0E5FCD6F8A470AB492046B7FB7D
:10206000F8F9B9FBF8F5C6F8A45000F0D1FC182334
:102070002046B5FBF3F103FB1151C9B200F090FC0F
:10208000A249204600F0C4FC08FB15912046C9B2C5
:1020900000F086FC9D49204600F0BAFC08FB19714F
:1020A0002046C9B200F07CFC204600F0BDFC9849F7
:1020B000204600F0ADFC1022D6F89810204600F023
:1020C00087FCD6F88850002D56D09249204600F063
:1020D0009FFC1022D6F88810204600F079FCEA0711
:1020E00040F1D2808C49204600F09AFC2A0629D57E
:1020F0008A49204600F08CFC1022D6F89010204629
:1021000000F046FCD6F890201F2A00F2CE808449C9
:10211000204600F07DFC1022D6F89810204600F0F2
:1021200037FC8049204600F073FCD6F89810102246
:10213000204600F02DFC7C49204600F069FC20463A
:1021400000F072FCEB0540F1BA807849204600F0BF
:1021500067FC2F0409D57649204600F059FC10226F
:10216000D6F89410204600F033FCE80340F1BC8020
:102170007049204600F054FCD6F88C5085B16E4969
:10218000204600F045FC1022D6F88C10204600F0C6
:102190001FFCA80740F123816849204600F040FC5D
:1021A0006749204600F034FC96ED280A02212046BB
:1021B000B7EEC00A00F0F8FB6249204600F028FCA8
:1021C0006149204600F024FC604B61490A221868EE
:1021D0000023B0FBF1F1204600F0C2FB5D49204630
:1021E00000F016FC5C4B9D68AA0708D51A6B2046C8
:1021F0005A4B9A420CBF5A495A4900F011FC6F07DA
:1022000003D55949204600F00BFC2E0703D557494A
:10221000204600F005FCE80603D55549204600F0AD
:10222000FFFBA90603D55349204600F0F9FB6A06D7
:1022300003D55149204600F0F3FB2B0603D54F4947
:10224000204600F0EDFB15F4807500F0E6804C4967
:10225000204600F0E5FB404A4A492046936823F4B3
:102260008073936000F0DCFB4749204600F0D8FB08
:10227000464B07221A64464A936B43F0400393632C
:10228000BFF34F8F30BFFDE7AB0701D541492AE7C8
:102290002F0701D5404926E7E80601D53F4922E747
:1022A000A9067FF523AF3E491DE73E4B9A42FFF456
:1022B00046AF20339A42BFF442AF3B493CE7AF05FB
:1022C00001D53A4942E7680501D539493EE7290574
:1022D00001D538493AE7EA0401D5374936E7AB0476
:1022E0007FF537AF354931E7A90301D5344940E7D8
:1022F0006A0301D533493CE72B0367D5324938E7F8
:1023000000FF27207D6601208A66012029360120F2
:10231000B1660120D6660120DF660120A567012095
:10232000C7670120E6670120256801208568012034
:10233000BE690120E0690120BC6A0120C56A012054
:10234000086B01202B6B0120316B0120E06E012016
:1023500040420F004F6B012000800F40F100AD0B99
:10236000AC6C0120F56C0120366D01205E6D012002
:10237000896D0120B06D0120DA6D0120FC6D012016
:102380001E6E0120486E01206A6E012000C00A40C6
:1023900000400D40086701202A6701205467012092
:1023A0007A670120A05E022043680120A668012010
:1023B000D368012018690120586901208C69012027
:1023C000046A0120376A0120606A0120EF0101D50B
:1023D0003349CEE6AD017FF5CFAE3249C9E669009B
:1023E0007FF5DEAE3049D8E63049204600F018FBD4
:1023F0002F49204600F014FB2E49204600F010FB28
:102400002D49204600F00CFB2C49204600F008FB2B
:102410002B49204600F004FBE4E62A4FD7F8C030F1
:10242000C3B3D7F8DC601C21274800F0F5FA8642D8
:1024300030D1DFF8A080DFF8A090DFF88CA0012376
:10244000D7F8C0202E46AB400135134220D041467C
:10245000204600F0DDFA29460AEB8606204600F009
:10246000C3FA4946204600F0D3FA00230A227168D5
:10247000204600F075FA1549204600F0C9FA716847
:102480001022204600F084FA1149204600F0C8FAD4
:10249000062DD4D1FFF796FD0120BDE8F08700BFDF
:1024A000776A0120A06A0120EC6A0120546B0120A8
:1024B0006C6B0120B56B0120FF6B0120246C0120A7
:1024C0006C6C012000FF2720C0FF2720BC6E01207C
:1024D00080100120AD6E0120256B012008B5FFF7AB
:1024E00047FD003818BF012008BD00BF7047704786
:1024F000704700BF70474FF0E02300211022C3F85F
:10250000941DC3F89C2D2E4AC3F8A02D1122C3F8A8
:102510009C2D2C4AC3F8A02D1222C3F89C2D2A4AC8
:10252000C3F8A02D294AC3F89C2D294AC3F8A02D31
:10253000284AC3F89C2D284AC3F8A02D274A42F008
:102540001502C3F89C2D264AC3F8A02D02F1815232
:102550000D32C3F89C2D234AC3F8A02D224AC3F89C
:102560009C2D224AC3F8A02D214AC3F89C2D214A54
:10257000C3F8A02D204AC3F89C2D204AC3F8A02DF3
:102580001F4AC3F89C2D1F4AC3F8A02D00BF00BFEF
:1025900000BF00BF00BF0122C3F8942DBFF34F8FCF
:1025A000BFF36F8FC3F8501FBFF34F8FBFF36F8F11
:1025B000D3F8142D42F44032C3F8142D704700BFF5
:1025C0003F0000102500080709001000130020003C
:1025D000210002071400002025000813A05E02203D
:1025E0000900001027000B131700004033001013E0
:1025F000180000602F000B07190000702F000B134C
:102600001A0000803B000B13F0B5154B40204FF42F
:1026100080314FF480544FF400554FF4404643F25C
:1026200042071A6912F0020F03D09E6159619F613F
:10263000F7E712F4005F01D15D61F2E712F4805F09
:1026400001D15C61EDE7002AEBDA12F4803F01D0A2
:102650009961E6E7520601D45861E2E7F0BD00BF98
:1026600000800D403E4AB3EE096A3E48D2F8803001
:102670009FED3D5A23F0010310B5C2F880300323CB
:102680003A4CC2F890303A4BD3F8E030D9B20160FE
:1026900007EE901AC3F30B201B0DB8EEE77A35490D
:1026A00007EE900A2060F8EEE76A07EE903A37EE00
:1026B000455A314BF8EEE77A37EE466A77EEE67A1E
:1026C00081ED006A25EE275AC3ED007AD2F88030FA
:1026D000C5EE065A75EEA65AFCEEE55A15EE901AAE
:1026E000DFED265A37EE657A43EA0153C2F88030AF
:1026F00027EE277A224B66EE277AD2F89011C7EEA2
:10270000065A35EEA67ABCEEC77A17EE100A87EEA7
:10271000867A03EA00430B43C2F89031D2F8901155
:1027200077EE267AFCEEE77A17EE903AC3F30B03C6
:102730000B43C2F89031D2F8803043F00203C2F864
:10274000803000220F4B83F840200F4B0F4AC3F814
:1027500040214FF0E0230122C3F8082110BD00BF43
:1027600000810D40504B02200000AA424C4B022039
:1027700000441F40544B0220584B02200000B4423A
:102780000000FF0F00E400E0007C012047D50300BB
:10279000304B40F6617210B5C3F8202100F00CF9FF
:1027A0002D4A2E49D2F8803043F00303C2F880301E
:1027B00040F204422A4BC3F860212A4A10680842BA
:1027C00003D1D3F8A8118C071AD04FF00041516300
:1027D000D3F8402142F00202C3F84021204AD2F847
:1027E00040319807FBD44FF0E0234FF4003219201A
:1027F000C3F88C224FF000421A4B9A6300F0BCF8E9
:10280000184B00214FF08042154C9A634FF4207210
:1028100019600A23C4F8A831134B184600F0A8F831
:102820004FF4810240F2431302604FF480020264CD
:10283000C4F858010D4AC4F848310D4BC3F80422BE
:102840004FF0E0234FF40032C3F80C210123C4F809
:10285000403110BD00800D4000C00F40001C1E0024
:1028600000002E4000900D40000000200DD8030015
:10287000007C012008B50F4B1B6E9B0700D4FBBEEC
:1028800072B60D4B0022C3F84021A3F50D130B4A7D
:102890001A64A3F1FF53A3F52B239D46BFF34F8F7B
:1028A0000748084B03604FF40013DB699B689847A7
:1028B000E6E700BF00441F4000002E400300200058
:1028C00000802020000012EB0F4BDA6E42F4403201
:1028D000DA66DA6E42F44072DA66A3F5603340F2EB
:1028E00037625A64A0229A649A6C1206FCD4074A92
:1028F00040F237635364A0239364936C13F0800316
:10290000FBD1034A1370704700C00F4000800C4099
:10291000065D0220F8B500BFF8BC08BC9E467047B3
:102920005FF800F0899703005FF800F0ADCF030077
:102930005FF800F0A99602005FF800F051EF030085
:102940005FF800F0B5CC03005FF800F06D8F030076
:102950005FF800F04D8F03005FF800F0738F030005
:102960005FF800F0C9C703005FF800F0E56F0300EF
:102970005FF800F0D5F403005FF800F025CC030009
:102980005FF800F0399603005FF800F0E5D203002D
:102990005FF800F06DC303005FF800F09998030042
:1029A0005FF800F065C303005FF800F0E1C70300C3
:1029B0005FF800F0B9CD03005FF800F0FDDC030024
:1029C0005FF800F089C903005FF800F0ADD00300A4
:1029D0005FF800F089C303005FF800F0DD980300A2
:1029E0005FF800F0619803005FF800F081C7030012
:1029F0005FF800F0779203005FF800F045D3030022
:102A00005FF800F0518F03005FF800F0BDD00300C5
:102A10005FF800F05DC303005FF800F09DC30300A2
:102A20005FF800F075C303005FF800F093C7030080
:102A30005FF800F06D690300BD150000891F0000FC
:102A4000152100001523000015270000B329000000
:102A500015590300996903001D6E0300B579030041
:082A6000718A0300F5C60300B2
:102A68000000000000000000002F00000000070028
:102A7800070000147F147F1400242A7F2A120023E1
:102A8800130864620036495522500000050300000F
:102A980000001C224100000041221C000014083ED6
:102AA80008140008083E0808000000A0600000089C
:102AB80008080808000060600000002010080402F0
:102AC800003E5149453E0000427F400000426151AE
:102AD8004946002141454B31001814127F10002748
:102AE80045454539003C4A4949300001710905030B
:102AF80000364949493600064949291E000036363C
:102B080000000000563600000000081422000014DF
:102B180014141414000022140800000201510906BC
:102B280000324959513E007C1211127C007F4949FC
:102B38004936003E41414122007F4141221C007F2D
:102B480049494941007F09090901003E4149497A3B
:102B5800007F0808087F0000417F410000204041B5
:102B68003F01007F08142241007F40404040007F21
:102B7800020C027F007F0408107F003E4141413E65
:102B8800007F09090906003E4151215E007F0919AD
:102B980029460046494949310001017F0101003FAA
:102BA8004040403F001F2040201F003F4038403F2A
:102BB800006314081463000708700807006151498E
:102BC800454300007F41410000552A552A55000021
:102BD80041417F000004020102040040404040409F
:102BE80000000E110E00002054545478007F484411
:102BF800443800384444442000384444487F00386E
:102C08005454541800087E0901020018A4A4A47C96
:102C1800007F080404780000447D40000040808460
:102C28007D00007F102844000000417F4000007CA8
:102C380004180478007C08040478003844444438B4
:102C480000FC242424180018242418FC007C080400
:102C5800040800485454542000043F444020003CD9
:102C68004040207C001C2040201C003C4030403C60
:102C7800004428102844001CA0A0A07C00446454F0
:102C88004C441414141414141803540065006500FB
:102C98006E007300790020004D004900440049008F
:102CA80018035400650065006E0073007900640025
:102CB800750069006E006F000403090409027300BF
:102CC800020100C0320904000002010300000724C9
:102CD8000100012500062402010100062402020267
:102CE800000924030103010201000924030204016D
:102CF800010100090503024000000000052501014B
:102D080001090583024000000000052501010309AF
:102D18000401000203000000092111010001222121
:102D2800000705820340000107050203200002098D
:102D3800027300020100C03209040000020103000E
:102D480000072401000125000624020101000624D1
:102D580002020200092403010301020100092403FD
:102D68000204010101000905030200020000000538
:102D78002501010109058302000200000005250163
:102D880001030904010002030000000921110100E8
:102D980001222100070582034000010705020320E4
:0C2DA80000020A060002000000400100CA
:102DB400000000000000000000000000000000000F
:102DC40000000000000000000000000000000000FF
:102DD4000B4B37B50B4D5B680B4C284601930094A5
:102DE40001F0B6F92B68C3F30A031BB94FF0FF32A5
:102DF400C4E90123684602F0DBF803B030BD00BF2C
:102E0400001000E054100220AC1102202F4BF7B543
:102E14005B682F4F2F4C0193009738F0ABFD23686C
:102E2400072B09D900232C4AC4E90033A360D2F844
:102E34000C3C0133C2F80C3C02F0D0F8A568002D1C
:102E440031D0D4E9000607280FD8314601362A4686
:102E540038F098FD032E85BF0023803566606360DB
:102E640081BF2368A560013323601C4C00F036F950
:102E740036F0C2FE236801332360194B1B782BB153
:102E8400184B1B6813B11B6B03B198472368C3F33A
:102E94000D031BB94FF0FF32C7E90123684602F066
:102EA40087F803B0F0BD0C4AD2F8081CD2F80C3CE9
:102EB4009942DAD0D2F80C3C03F0010303F54073D5
:102EC40052F82330C4E90055A360CEE7001000E0B7
:102ED4008C110220CC1D0220B81102208011022086
:102EE4003F5C0220547101202DE9F04F6B4B01220D
:102EF40085B00027DFF8D091694C1A70694E337899
:102F0400022B04D1484626F029FD01233370DFF853
:102F1400BC81654DD8F80030DFF8B4B1002B37D050
:102F2400D4F8082CD4F80C3C9B1A023330D0D4F8D3
:102F3400083C03F0010303F5407354F8231039B33C
:102F440001225A4838F0DCFE3378012B40F0988097
:102F5400C7F30802564B1AB94FF0FF31C3E9011207
:102F640002930137534B5B6803932B681B6A9847A2
:102F740002A802F01DF800234F4A4C48C8F800305C
:102F8400DBF80030136038F0C9FE204602F054F834
:102F94002B68DB6998472968484637F09FFA3278EE
:102FA4008246824207D000286ED12A6802209269A4
:102FB400904786F800A0404ADBF8003012689B1A5C
:102FC400022B84BF0123C8F8003001F0BFFF05467F
:102FD400F8B13EF0A5FA00281BDD384EDFF8F4A066
:102FE4003EF04AFA7A2809D133680D225146334813
:102FF4005B680025984731483CF0A3FA3EF090FA0C
:103004000028EDDC2DB10123002284F8103C2C4B68
:103014001A6094F8113C002B3FF470AFD8F80030DC
:10302400002B3FF46BAF264E264B3568DFF88C80BF
:103034001D44DFF8A4B005F12003019315F801AB9A
:10304400BAF10F0F06D8D8F800300122594640468D
:103054005B68984700231022514640463CF08CFAA6
:1030640033680133B3F5806F336013D313483CF0F6
:1030740068FA3EF089FB0023336084F8113C3DE795
:103084002B685B6A984776E7002A92D12A68032066
:1030940092698DE7019B9D42D0D12FE73F5C0220CE
:1030A400B8110220967A012054710120743F022045
:1030B4009C110220001000E038000220386F01202B
:1030C400D81D0220B819022054100220E46E0120F9
:1030D40058530220273B012013400120454A13681E
:1030E4000133022B2DE9F04102DC1360BDE8F081CD
:1030F40000231360404B414A1B681969BFF34F8F8B
:1031040002F1200002F580731746834234BF012385
:1031140008234FF0E020013BC0F85C2F02F12002AD
:10312400F9D1BFF34F8FBFF36F8F354CCA1B26689D
:10313400D510D6EBE20648BF2036002ED6D00021AB
:1031440008468E468C4619E00CEB05020CF1010C86
:10315400D2F1000802F01F0208F01F0858BFC8F19E
:10316400000237F8328007EBC2024344B2F802800F
:10317400C644B2F80480D288404411446645E3DC76
:103184001A01204FDFF880C000013B68256003EB83
:103194004303B2FBF6F2120912021344CCF80020E6
:1031A4007A689B0802EB42023B604FEA0E13B3FBC2
:1031B400F6F3B0FBF6F01B0900091B0200021A44E7
:1031C400CCF80430BB689208CCF8080003EB430346
:1031D4007A600344FA689B0802EB4202BB600B016D
:1031E400B3FBF6F31B091B021A44CCF80C3092080B
:1031F400FA607BE7E41D02208411022000002020F5
:10320400E01D022058110220481102200000000095
:10321400024808B50DF010FC08BD00BFB8EA012053
:103224002DE9F04FDFF8A0B20146A24887B0BBF801
:103234003420A14E825CA14829F069F810F0010203
:10324400044624D09BF8101006F130001BF036FB26
:1032540000228BF89C20DBF80830DBF800A00293F6
:10326400DBF814909DF908509BF81C809BF824709F
:1032740024B99BF82C20002A40F0A0809BF804205D
:10328400013A032A1BD8DFE802F0122325279BF812
:103294009C100029DFD010F00E0FDCD09BF810102A
:1032A40006F130008BF89C201BF008FBD3E70020CC
:1032B40006F0E6FD0146824806F029FC82449BF8AC
:1032C4000C20013A032A11D8DFE802F00821242750
:1032D4000120EDE70220EBE70320E9E727F042F9BC
:1032E40000F1FF05029B03EB65256DB2032D6FF022
:1032F4000202A8BF03259542B8BF15469BF81820C3
:10330400013A032A16D8DFE802F010282B2E27F002
:1033140035F9E5E727F03EF9E2E727F047F9029BA4
:10332400FF3003EB60235DB2E0E727F01BF9FF30C9
:1033340009EB6029B9F1030F6FF00202A8BF4FF047
:1033440003099145B8BF91469BF82020013A032A0E
:1033540013D8DFE802F00B21242727F00FF9E6E762
:1033640027F018F9E3E727F021F9E0E727F0FAF866
:10337400FF3008EB60205FFA80F89BF82820B8F152
:10338400050F02F1FF3228BF4FF00508032A12D8B7
:10339400DFE802F00B22252827F0F0F8E8E727F011
:1033A400F9F8E5E727F002F9E2E727F0DBF8FF3068
:1033B40007EB6020C7B2052F28BF05279BF83820EC
:1033C400002A40F08580B8F1050F00F23183DFE870
:1033D40008F00C3041525C6627F0D0F8E7E727F09C
:1033E400D9F8E4E727F0E2F8E1E7A70703D50121DC
:1033F40034481BF071FA660703D5022131481BF0EB
:103404006BFA200740F1148303212E481BF064FA61
:103414002D4B4A465146284893F8303000932B46AA
:1034240028F054FE002C00F0B580284B01221A60CD
:10343400B0E0610703D5022122481BF04DFA2207B0
:1034440003D503211F481BF047FAA30740F1F0827C
:103454000121DAE7270703D503211A481BF03CFAB8
:10346400A60703D5012117481BF036FA600740F17F
:10347400DF820221C9E7A10703D5012111481BF00E
:103484002BFA2207F2D50321EDE7230703D5032105
:103494000C481BF021FA6707D7D50221D2E766074B
:1034A40003D5022107481BF017FAA007A9D501216B
:1034B400A4E700BF900B012044400220B840022042
:1034C4007040022074400220803F0220E46E0120FC
:1034D400012A58D1052F00F2AB82DFE807F003146C
:1034E4002536404AA10703D50421B3481BF0F4F95B
:1034F400620703D50521B0481BF0EEF9230740F11C
:103504009782062181E7670703D50521AA481BF0A6
:10351400E3F9260703D50621A7481BF0DDF9A00728
:1035240040F18682042170E7210703D50621A248D1
:103534001BF0D2F9A20703D504219F481BF0CCF954
:10354400630740F1758205215FE7A70703D50421CE
:1035540099481BF0C1F92607F2D50621EDE72007AB
:1035640003D5062194481BF0B7F96107D7D5052187
:10357400D2E7620703D505218F481BF0ADF9A307F5
:10358400BCD50421B7E744B98C4B93F82C30002BFD
:103594003FF43EAF07B0BDE8F08FDBF84C2086F86F
:1035A400B020DBF8502086F8B120DBF8542086F8F0
:1035B400B220DBF8582086F8B320DBF85C2086F8CC
:1035C400B420DBF8602086F8B520DBF8642086F8A8
:1035D400B620DBF8682086F8B720DBF86C2086F884
:1035E400B820DBF8702086F8B920DBF8742086F860
:1035F400BA20DBF8782086F8BB20DBF87C2086F83C
:10360400BC20DBF8802086F8BD20DBF8842086F817
:10361400BE20DBF8882086F8BF20DBF88C2086F8F3
:10362400C020DBF8902086F8C12026F09BFF05908F
:1036340026F0A4FF049026F0ADFF029026F0B6FF1A
:10364400059A9BF83C107F3203905D4812121BF0E0
:103654005BFB049B9BF8401003F17F025848121255
:103664001BF052FB029A9BF844107F32544812120A
:103674001BF04AFB039A9BF848107F325048121201
:103684001BF042FBD6F8A4300133C6F8A4304C4EEC
:10369400B8F1050F00F2E880DFE808F0033963941D
:1036A400AFCA96F8B22096F8B11096F8B00037F089
:1036B4008BF818B1012140481BF00EF9D6F8A4305C
:1036C40096F8B52096F8B41096F8B30037F07CF865
:1036D40018B1022138481BF0FFF8D6F8A43096F848
:1036E400B82096F8B71096F8B60037F06DF818B110
:1036F400032131481BF0F0F8052F3FF689AEDFE8CF
:1037040017F0BB00E70013013F015C01790196F853
:10371400B52096F8B41096F8B30037F055F818B100
:10372400022125481BF0D8F8D6F8A43096F8B82022
:1037340096F8B71096F8B60037F046F818B103219A
:103744001D481BF0C9F8D6F8A43096F8B22096F8B4
:10375400B11096F8B00037F037F80028CCD001212A
:10376400C7E796F8B82096F8B71096F8B60037F081
:103774002BF818B1032110481BF0AEF8D6F8A4308A
:1037840096F8B22096F8B11096F8B00037F01CF80D
:1037940018B1012108481BF09FF8D6F8A43096F818
:1037A400B52096F8B41096F8B30037F00DF8002859
:1037B400A2D002219DE700BF74400220803F022076
:1037C4004440022096F8B22096F8B11096F8B00062
:1037D40036F0FAFF18B1012197481BF07DF8D6F8AE
:1037E400A43096F8B82096F8B71096F8B60036F0DC
:1037F400EBFF0028D1D00321CCE796F8B82096F847
:10380400B71096F8B60036F0DFFF18B103218A48E6
:103814001BF062F8D6F8A43096F8B52096F8B410E8
:1038240096F8B30036F0D0FF00288CD0022187E749
:1038340096F8B52096F8B41096F8B30036F0C4FFA5
:1038440018B102217C481BF047F8D6F8A43096F84A
:10385400B22096F8B11096F8B00036F0B5FF002803
:103864003FF43BAF012135E7052F00F2E180DFE8AB
:1038740007F0032F5B87A4C1D6F8A43096F8BB20C9
:1038840096F8BA1096F8B90036F09EFF18B10421E4
:1038940069481BF021F8D6F8A43096F8BE2096F8B3
:1038A400BD1096F8BC0036F08FFF18B105216248B0
:1038B4001BF012F8D6F8A43096F8C12096F8C01080
:1038C40096F8BF0036F080FF00283FF4A1AD18E65B
:1038D400D6F8A43096F8BE2096F8BD1096F8BC0031
:1038E40036F072FF18B1052153481AF0F5FFD6F8E7
:1038F400A43096F8C12096F8C01096F8BF0036F0B0
:1039040063FF18B106214C481AF0E6FFD6F8A4303C
:1039140096F8BB2096F8BA1096F8B90036F054FF22
:1039240000283FF475ADFDE5D6F8A43096F8C12023
:1039340096F8C01096F8BF0036F046FF18B106217D
:103944003D481AF0C9FFD6F8A43096F8BB2096F883
:10395400BA1096F8B90036F037FF18B1042136488A
:103964001AF0BAFFD6F8A43096F8BE2096F8BD1027
:1039740096F8BC0036F028FF00283FF449ADE2E594
:10398400D6F8A43096F8BB2096F8BA1096F8B90089
:1039940036F01AFF18B1042127481AF09DFFD6F813
:1039A400A43096F8C12096F8C01096F8BF0036F0FF
:1039B4000BFF0028D6D00621D1E7D6F8A43096F81C
:1039C400C12096F8C01096F8BF0036F0FDFE18B17D
:1039D400062119481AF080FFD6F8A43096F8BE20C4
:1039E40096F8BD1096F8BC0036F0EEFE00288DD097
:1039F400052188E7D6F8A43096F8BE2096F8BD10C5
:103A040096F8BC0036F0E0FE18B105210A481AF019
:103A140063FFD6F8A43096F8BB2096F8BA1096F84F
:103A2400B90036F0D1FE00283FF444AF04213EE74C
:103A3400002C3FF4A9ADEBE4744002202DE9F041E1
:103A44001BF062FA038A804A044600F524700026BB
:103A5400D25C7E4B197828F05AFC0546D4F8D4324F
:103A6400D4F8D8229A420ED1E9074BD5022006F0A9
:103A7400C4F900284AD000230126C4E98533C4F8D8
:103A8400803201278DE0D4F8D83203F003020133E9
:103A940004EB8202D2F8C422C4F8D83222B1012A3B
:103AA400DCD145F00105D9E70126D7E702F17B42D5
:103AB40058E003F17B4362E021B104F509701AF088
:103AC4000BFF9DE037469BE0C4F8803284F8C03297
:103AD400AEE0002E40F0AC80032006F08EF9002802
:103AE40040F0A680D4F880320133022B02D8C4F807
:103AF40080329DE00123C4F88062E7E7BFF32F8F93
:103B0400002792E0002EB6D137464AE0002EB2D10B
:103B1400DFF83CE1D4E90012002A1346B8BFD31DF4
:103B2400504202F0070200F007004FEAE30358BFD7
:103B34004242D1F1000CD4F814024FEA03630CF0B2
:103B4400070C5EF8227001F0070258BFCCF10002A6
:103B540000295EF82220B8BF07310244C910000EC4
:103B640002EB0162B2F1A06FA0D2D4F818C2012A0C
:103B74000CEB070198BF00220B44C4F81422B3F1E4
:103B8400A06F96D2012B98BF0023B0EB126FC4F83C
:103B940018327FF476AF1B0EB3EB1C6F14BF0127F2
:103BA400002704F53873012153E8002F002AA5D11A
:103BB40043E80012002AF7D1BFF35F8F5FB394F894
:103BC4001B12142094F8173201EB81021A4403EB00
:103BD40083030B44D4F88C124243D4F81C02DBB2A6
:103BE40000EB020843EA0123C4F88C321EB9815C5D
:103BF40006297FF661AF217A04F509701AF05EFE9A
:103C0400D8F804304046C4F88432D8F80830C4F8F0
:103C140088321BF054F9BFF35F8F0023C4F8E032FD
:103C24001FB1227D032A3FF44FAFAA073FF551AFDE
:103C3400AB0707D039462046D4E9A123BDE8F041BB
:103C440028F096BABDE8F081900B0120385C022080
:103C5400542400200148FFF7F1BE00BF1C230220BA
:103C6400024808B52BF01EFF08BD00BF3037022004
:103C7400024808B52BF07AFF08BD00BFC0E7012059
:103C84002DE9F347B74E0120B74C94F8008006F0B5
:103C9400B4F8074626F066FC014606F5A87094F8C9
:103CA40000902BF0F5FE26F069FC014606F5AA709B
:103CB4002BF0EEFE26F06EFC014606F5AC702BF000
:103CC400E7FE26F073FC014606F5AE702BF0E0FE2D
:103CD4003188D6F850310131B6F91440D6F8542160
:103CE40009048134091224040139241201EB03115B
:103CF400B6F90430013C01EB4301736A81F310010E
:103D0400A6F85830B368003B18BF012386F8AC30DE
:103D1400B38901331B041B12013B03EB021383F32E
:103D24001003A6F85A30D6F8583104EB031484F380
:103D3400100414F4004FA4B2A4F5004406D104FB0B
:103D440004F3DB13A3EB830323449C1096F84C3059
:103D5400D6F85C51013B3466052B00F2FB80DFE8AA
:103D640013F00600D500DC00E200E900EF000024B7
:103D74002B01A446A646224620462546B6F918A09D
:103D84000AF1800A4FEA0A4A05EB2A25013D85F328
:103D94001005ADB2A5F5004505FB05FA002D4FEA67
:103DA400EA3AD8BFCAF1000A0AEB4A0AAA44B6F9A9
:103DB400105080354FEAAA1A2D040AEB8A0A03EB45
:103DC4002523684D4FEA4A0A013B83F31003A3F508
:103DD400FF43A6F864A07F3B43F34E03A6F85C3090
:103DE400B38B01331B0400EB2320B6F920300133DD
:103DF400013880F310001B0480B202EB232296F8F2
:103E04002830B066013A82F3100212B2F26696F8D4
:103E140070209A4295F871201EBF86F870300123F5
:103E240086F8793095F82C309A4295F872201EBFA6
:103E340085F87130012385F8793095F830309A424D
:103E44001EBF85F87230012385F8793095F8343037
:103E540013B1C3F11003DBB285F8733095F8383031
:103E640013B1C3F11003DBB285F8743095F83C301C
:103E740013B1C3F11003DBB285F8753095F8403007
:103E8400734483F307035B0085F8763095F8443078
:103E9400634483F307035B0085F8773095F8483073
:103EA400234483F307035B0085F878304FF08443A1
:103EB4009B681B0754BF95F950304FF0FF33DBB2BA
:103EC40085F84D3157B995F84C213AB9009308F06B
:103ED4000102C9F38003254836F0E4FD244BB5F80C
:103EE400A42082F310021A60B5F8A62082F310020F
:103EF4005A60B5F8A82082F310029A60B5F8AA2097
:103F040082F31002DA6002B0BDE8F08700242801D1
:103F1400A446A646224623462FE700242A01A446A7
:103F2400A6462046F7E70F3500244FEA651EA4464F
:103F34002246F6E70F3500244FEA651CA646F7E74C
:103F44004FF0000C0F35E6466C116246604663463E
:103F5400654613E700242D01A446A64622462046C2
:103F640023460BE750490220385C0220A84902206E
:103F7400701102202DE9F041694B0320694C2DEDAD
:103F8400028B86B01F7805F038FF804626F0EAFAE7
:103F9400014604F1AC002BF07BFD26F0EFFA01465C
:103FA40004F1B4002BF074FD26F0F4FA014604F198
:103FB400B0002BF06DFD26F0F9FA014604F1B800CB
:103FC4002BF066FD2688A2880136D4F8AC30013285
:103FD400D4F8B4103604120436121212013E013A17
:103FE40006EB0316D4F8B03086F3100602EB031286
:103FF400238982F31002013305921B041B12013B37
:1040040003EB0113B3F5FE4FA8BF4FF4FE43B3F522
:10401400806FB8BF4FF4806383F310031BB25D035A
:1040240007EE905A05F5C0259FED3B8BB8EEE77B74
:1040340037EE087B51EC170B3DF02AFEA3890133C0
:104044001B04C4E91C011B12E917013BC4E92251FA
:10405400D4F8B81003EB0113B3F5FE4FA8BF4FF427
:10406400FE43B3F5806FB8BF4FF4806383F310034E
:104074001BB25D0307EE905A05F5C025B8EEE77B49
:1040840037EE087B51EC170B3DF002FEA36917F0E5
:10409400040F059A84F86030E36918BF012784F897
:1040A4006130236AC4E91E0184F862304FEAE57185
:1040B400636AC4E9245184F863300ABF07F001033A
:1040C4003B46C7F34007B8F1000F0BD194F8A81092
:1040D40041B9217D14480291217CCDE9007131461A
:1040E40038F01CFB114BB4F8982082F310021A60CC
:1040F400B4F89A2082F310025A60B4F89C2082F338
:1041040010029A60B4F89E2082F31002DA6006B0BE
:10411400BDEC028BBDE8F081000000000000B84156
:10412400385C0220F8E9012028EA012070110220FD
:10413400024808B52BF068FD08BD00BF0026022028
:10414400024B1B68C0F8EC30704700BF5853022084
:104154002DE9F74F0368002604464FF0010903F1E7
:1041640001083546C0F800803746013604EBC60026
:1041740036F0FCF818B109FA07F72F43BDB2042E44
:10418400F2D1002604F1280704F10C0A4FF00109CA
:10419400B3461AF83630802B0BD109FA06F2002305
:1041A4000121C7F8008092B20095204636F0F6F857
:1041B40015E07F2B40F0AC803B6809FA06F22046FC
:1041C4000095A8EB030392B2B3F5FA7F4FF0000316
:1041D40034BF0221042136F0E1F8C7F800B00136FB
:1041E4000437042ED5D14FF0844094F84C2094F831
:1041F4005C608368C3F3006343EA420394F84D2090
:10420400DBB284F84C308168C1F3C06141EA4201F9
:10421400C9B284F84D108268C2F3C05242EA460221
:1042240084F85C20826894F85D00C2F3C04242EADC
:10423400400294F8400084F85D20A26C18B112B1D9
:10424400103A22EAE27203F0030301F00301022BA5
:1042540001D100296CD002296ED1002B6CD14FF012
:10426400FF3394F8411001B15B42002862D0616CC5
:1042740099425FD1D032B2F5805FA8BF4FF480522B
:104284001112636401FB0333A2643BB11BB24FF40C
:10429400007205212046009536F080F894F850000D
:1042A400A26D18B112B1103A22EAE27294F85C30AD
:1042B40094F85D1003F0030301F00301022B01D114
:1042C40000293BD002293DD1002B3BD14FF0FF33D5
:1042D40094F8511001B15B4290B3616D99422FD1B2
:1042E400D032B2F5805FA8BF4FF4805211126365DB
:1042F40001FB0333A2653BB11BB24FF4807205216D
:104304002046009536F04AF8258703B0BDE8F08FC3
:10431400002B7FF464AF3A68A8EB0202B2F5FA7F8F
:104324007FF45DAF09FA06F20321009592B23CE7EF
:10433400012396E70022A3E70023A5E70123C7E7AB
:104344000022D3E70023D5E70548064B1B1AD90FF3
:1043540001EBA301491002D0034B03B11847704786
:10436400C07E0120C07E01200000000008B5054B7E
:104374001BB105490548AFF30080BDE80840FFF7CD
:10438400E3BF00BF000000000844022000BC056039
:10439400074A1368002B0ADB064908780649C85403
:1043A400064908780649C8544FF0FF331360704734
:1043B40040710120245C0220285C0220255C02203C
:1043C400305C022070477047F0B5002480F8384014
:1043D4004E68A5B290F83830AE4208D8B1F9002042
:1043E400426113B1131E18BF01230370F0BDD70738
:1043F40008D504355F1C0C3331F9155080F838703A
:1044040020F8135052080134E3E7000038B5074A96
:104414000024074DC2E90044C2E90244013428469D
:1044240036F0E3F94035082CF8D138BD4C0A0220A7
:10443400E40C0220034B1870034B1A68034B1A60F8
:10444400704700BF225C022080110220480A02202B
:10445400044B1A7A22B15A7A12B9034A1A6770477E
:10446400FFF796BF700C0220E1150000024B03EB2E
:104474008010408F704700BFE40C022010B5044642
:1044840012B9074A1256D201064800EB841036F0DE
:10449400B4F9054B1B5703EB430300EB432010BD5A
:1044A400305C0220E40C0220285C022010B5044693
:1044B400074800EB841036F062FA064B1B5700EBFA
:1044C400C310054B1B5703EB430300EB432010BD04
:1044D400E40C0220305C0220285C02209429A8BF4E
:1044E400942138B50446094B21EAE170154643F896
:1044F4002400074B23F8142035F020FF014605481B
:104504002A4600EB8410FFF75FFF38BD5C0A0220E7
:10451400C2530220E40C0220014B53F820007047E0
:104524005C0A0220014B1856704700BF305C022021
:104534000B29044BA8BF0B2121EAE1711954084649
:10454400704700BF305C02201C4A1368002B1C4BD0
:1045540007DA10601B4A125C1A701B4A105C1B4A73
:1045640010701A781144C8B249B20B29197009DDC8
:10457400164991F90020042ADFBF01320A70A0F124
:104584000C021A7093F90020002A0ADA0F4890F9F5
:10459400001011F1040FA1BF01F1FF310C320170C1
:1045A4001A7093F90020002A03DA00221A70FFF728
:1045B4004FBF0B2AFBDD0B22F8E700BF407101203F
:1045C400255C0220305C0220285C0220245C02204E
:1045D4000F4B1A68002A0F4A10B407DA18600E4B02
:1045E4001C5C0E4B1C700E4B1B5C1370137819442F
:1045F40049B24B1D02DAFB23137002E0052904DCE7
:1046040011705DF8044BFFF723BF0523F4E700BFE7
:1046140040710120245C0220305C0220255C0220D1
:10462400285C0220084B53F820201144942909DC0B
:104634000029B8BF942143F82010044B33F810200C
:10464400FFF74CBF0021F6E75C0A0220C2530220A8
:10465400F8B51B4E04460F461A4D56F8200035F0A7
:104664006DFE43684FF6FF7035F81420002F00FAF2
:1046740003F06FEA000080B202EA000219DAF918C6
:10468400C7F1000C42FA0CFC8A404CEA02039BB2CC
:1046940063EA000356F8240025F8143035F04EFE82
:1046A4000146094835F8142000EB8410FFF78CFE0E
:1046B400F8BDDB1B02FA07F142FA03F30B43E6E70A
:1046C4005C0A0220C2530220E40C0220034B80F354
:1046D400030001221870024B1A607047275C022005
:1046E4006C0C022038B51F4A03460D461E4C107848
:1046F4008BB91E4B53F8200035F020FE2268416828
:104704002A44002A05DD03319142A8BF11462160E5
:1047140038BD0121FBE72468012C03D1BDE83840F2
:10472400FFF780BF022C03D1BDE83840FFF70CBF70
:10473400032C03D1BDE83840FFF78ABF043C0123B2
:104744000B4A002903FA04F332F810209BB2CCBFC1
:104754001A439A43054B53F82010BDE83840FFF73D
:10476400BDBE00BF275C02206C0C02205C0A022044
:10477400C253022038B51C4C237A657A93B18DB9A3
:10478400E37A2581657343B14FF60F403CF0AAFAF2
:104794004FF60F4115483AF09BFA0120BDE8384026
:1047A400FFF748BE124B0021242212481B68C4E9BB
:1047B4000411A3613DF066FD94F8643085F00102B4
:1047C400A57283F00103627284F8643001232372BA
:1047D400002AE2D1E37A002BDFD04FF60F203CF021
:1047E40081FA4FF60F21D5E7700C0220008A0120D0
:1047F40080110220A80C0220014BC3E9010170477B
:10480400743F0220034BC3E901011146184637F0F7
:104814001BBF00BF743F0220034BC3E901011146D3
:10482400184637F015BF00BF743F02200146014807
:1048340037F00ABF743F02200146014837F008BF31
:10484400743F0220F8B506230C460025074F90FB61
:10485400F3F6AE4204DC2046BDE8F840FFF7ECBFB7
:1048640038460135FFF7E2FFF3E700BF39080120BE
:1048740038B564254FF4C063134A6FF0630168438D
:1048840090FBF3F39042B8BF5B4293FBF5F501FB59
:1048940005340E490E4B9042B4BF08461846FFF744
:1048A400C5FF2846FFF7C8FF0A48FFF7BFFF092CDA
:1048B40002DC0948FFF7BAFF2046FFF7BDFF0748AF
:1048C400BDE83840FFF7B2BF01FAFFFF50070120EF
:1048D40072400120AB100120134001206D350120EE
:1048E400CB1001F0070100EBC310044B1A6801233D
:1048F4008B40115C0B431354704700BF743F02207C
:1049040007B5009313460A460146034837F009FAEF
:1049140003B05DF804FB00BF743F022007B50093A9
:1049240013460A460146034837F0BCFA03B05DF863
:1049340004FB00BF743F022013B50124CDE9003409
:1049440013460A460146024837F0C0FB02B010BDC8
:10495400743F022013B59DF81040CDE9003413468E
:104964000A460146024837F0B1FB02B010BD00BF51
:10497400743F02202DE9FF41851802270C46984612
:10498400013D0B46009706462A46FFF7E3FF04EB7A
:104994000803611C3246013B3046009702930391A1
:1049A400FFF7D8FF029B2A46039928460097FFF792
:1049B400D1FF029B2A46304619460097FFF7CAFFEB
:1049C40004B0BDE8F0810000F0B49DF810C0BCF163
:1049D400000F02D0F0BCFFF7CDBF049313460A4684
:1049E40001460248F0BC37F01EBB00BF743F0220F2
:1049F40013460A460146014837F0F2BB743F0220D1
:104A040007B5009313460A460146034837F0ECFC09
:104A140003B05DF804FB00BF743F02201346082274
:104A2400FFF7EEBF2DE9F347DFF8E08204460E46B8
:104A3400174698F80030BBB9262319224921924819
:104A44000093362337F0CDF924231A224A21009308
:104A540034238D4837F0E7FA98F80030032B49D80F
:104A6400DFE803F030688088032B874D16D14FF0C0
:104A74001C094FF01A0A5823172214212846CDF88E
:104A8400009037F0AEF95623182215212846CDF8A8
:104A940000A037F0C8FAC5E901A9DDE717221223FF
:104AA400284611460093522337F09BF9102318220D
:104AB400284600935023114637F0B5FA1C23C5E964
:104AC4000133C9E7714A1E214E20FFF79BFE704B4C
:104AD400704A28214E20022C18BF1A46FFF792FE76
:104AE4006D4A32214E20FFF78DFE022C16D004DCD5
:104AF400012C08D902B0BDE8F087032CFAD1674A2B
:104B04003221732005E00A23654A682003FB04F17F
:104B14001E3102B0BDE8F047FFF780BF002FE9D097
:104B2400604B7220604A1978604B002908BF1A460E
:104B34002821EEE75E49544837F086FD5D4B1A7A2A
:104B44005B7A3AB163B95C494F4802B0BDE8F047BB
:104B540037F07ABD59495A4A002B08BF1146F3E78A
:104B64005649F1E75749484837F06EFD564B53F81C
:104B74002610E9E7554B564D1B68002B4CDA2B7871
:104B8400544AD756544AD45654493F4837F05CFDEA
:104B940029783D480131524E37F05AFD51493A487F
:104BA40037F052FD2B78384856F823204E4B53F8F3
:104BB400221037F049FD4D49334837F045FD4C4B41
:104BC400314853F8271037F03FFD002C03DB4949E7
:104BD4002D4837F039FD21462B4837F039FD2B7825
:104BE4000024454F56F823004FF0040835F0A6FB87
:104BF400DFF894904668B44215D1404B1B68002BF3
:104C04003FF478AF022B27DC1A203D4A232103FB13
:104C14000000FFF703FF27E03A4B93F900703A4B8B
:104C240093F90040B0E72B7804EB840037F8133095
:104C340018302341DB0706D5042328211A46FFF741
:104C44005FFE0134D7E70146042328224846CDF805
:104C5400008037F0E8F9F4E7032B0ED10623512244
:104C640027211720FFF786FE1C2358221721142022
:104C740002B0BDE8F047FFF751BE03EB8303204ABF
:104C84002C21981CC5E700BF743F02202B0B012088
:104C94001B0B0120140B012012320120850101207D
:104CA4003F040120265C02204D02012067030120FD
:104CB400300B0120700C0220370B0120200B012047
:104CC400260B01203D0B0120684C0020407101207F
:104CD400275C0220305C0220285C0220653501201C
:104CE4005C0A0220293601204049002039080120AD
:104CF400B84B002072400120C25302206C0C0220E9
:104D040005020120255C0220245C0220225C022092
:104D14000121024610B50846FFF774FD0A237F22DD
:104D240000201946FFF708FE0B237F2200201946B6
:104D3400BDE81040FFF700BE064A0020064908B54A
:104D44003CF0B4FD034A05490020BDE808403CF0AE
:104D5400ADBD00BFD072012015160000171600006B
:104D640070B500230C4C054600F1680680F85C30F1
:104D740094E80F0086E80F0005F1780686E80F0036
:104D840004F1100305F188060FCB86E80F00206AB2
:104D9400C5F89800284670BD100D002070B408496D
:104DA40041F288350479074E51F82430013BB3426F
:104DB400B8BF2B4641F82430036870BCDB68184741
:104DC400000A022078ECFFFF0368F7B504461B686D
:104DD4000D46984723790227104E014603F001033C
:104DE4003046B7609B010133736037F02DFC2179A5
:104DF4000A223046019701F001030092990101F162
:104E04003E0337F063F923682DB19B6A204603B053
:104E1400BDE8F04018471B69F8E700BF743F022063
:104E240030B562BB234B1A7A12B15A7A82F001026E
:104E3400037901EB43014B4201F0030003F0030348
:104E440058BF58421C4B53F82130D2B1194A02EBD7
:104E54004004B4F92640A4B10244127F9AB1174821
:104E640001F12204164B1E31026853F82150521BE3
:104E740043F824200268012043F8212030BD002299
:104E8400D6E7002B09DC0B4B034493F8650000289C
:104E9400F4D0002283F86520E1E7082B084AC5BF57
:104EA400093B0024D25C9B18C4BF93F8642083F8A8
:104EB4006440D3E7700C022030710120801102207D
:104EC4007C0A022038B516480025164C00F8AC5B65
:104ED400FFF746FF782242F28D03294604F12600AB
:104EE400A56184F82450C4E900234FF08073102294
:104EF400C4E90235C4E90455C4E907553DF0C2F9D3
:104F040018232422294604F13800E3863DF0BAF937
:104F14000423E565C4E91835C4E91A5538BD00BF52
:104F24007C0A0220700C0220704770470B680360F3
:104F340070470B6803607047704710B504463AF039
:104F4400AFF9204610BD03681847000008B53CF0CF
:104F540061FC054B1B7803F0FF0023B1034B187869
:104F6400003818BF012008BD355D02205F5E0220B5
:104F740003680171B3B103F1BF230B4A03F577034F
:104F84001B11D154137851788B4228BF0B4691786A
:104F9400D2788B4228BF0B46934228BF1346034A5C
:104FA40082F87A30704700BFB678012000E400E050
:104FB400094B01685A684368D21A4B689A428B6855
:104FC40038BF4A609A420B6888BF8A60C3EBC30348
:104FD4001344DB080B607047001000E038B5134C35
:104FE400206800F047FB606800F058FBA06800F000
:104FF40061FBE06800F06AFB0D490E4A0B6820680B
:10500400656822F8130003F1080022F8105003F138
:105014001000A568E46822F8105003F11800013369
:1050240022F8104003F007030B6038BD7011022012
:10503400681102206257022090F8103C10B5044613
:105044009BB100234FF4806280F8103CD0F8083CF8
:1050540003F0010303F5407350F8231000F50060DA
:105064003AF004FF012384F8113CD4F8083C0133DE
:10507400C4F8083C10BD10B5044650F8083BDB6882
:105084009847204610BD00000D4B9A4230B50546A6
:1050940087B012D818235A43541E102C0DD951F836
:1050A400083B02A800935B68984722466946284655
:1050B4003AF03AF96846FFF7DEFF07B030BD00BFAB
:1050C400AAAAAA0A38B53AF02BFD002519481A4BAA
:1050D400C0F824030360C0F84003184CC0E901552C
:1050E40039F0BCF8164B20462462236004F59F6314
:1050F400236304F5A763636304F5AF63A36304F553
:10510400B76323644023A4F846305023C4E901550F
:10511400A4F8483039F058FD0A4B0B4A0B490C48A7
:1051240023603CF0C3FB084A08490A48BDE83840FC
:105134003CF0BCBB80820120FCD40020008A01200A
:105144002CCF002010CD0020D07201208B21000034
:10515400486F0120D06E0120F0B5594C87B0322041
:10516400584E3AF037FC40F2EE272568FFF7EEFE82
:10517400002800F0978054483DF096FF90B140F627
:10518400B735FFF7E3FE10B92368AB42F9D94F49AD
:105194004D483DF0A5FF4D483AF0D3F940F2DC50BC
:1051A4003AF018FC37F07CFE00F0DAFA34F062FCD6
:1051B4003DF082FF4FF4C8703AF00CFC444800F014
:1051C400A3F800F0B7F8434800F08EFA36F074FD07
:1051D400414AD2F8081CD2F80C3C5B1A0233F8D0CE
:1051E400D2F8083C03F0010303F5407352F823108E
:1051F4000029EED00122394836F082FD354D37487A
:1052040036F08CFD3448FFF717FF354C3DF064FF52
:1052140095F8640036F072FD34F0BAFD314835F08B
:10522400EDF8A96E2F4801F0030135F03BF92E4B40
:105234003C2269462D4802930094FFF725FF6846F7
:10524400FFF719FF50212948FFF792FE284B4FF42E
:105254007A726946274802930094FFF715FF68465F
:105264000024FFF708FF80212248FFF781FE6946EA
:105274001C488DF8004035F091F903281E4B95F831
:105284006C100CBF01241870164808BF1C7035F050
:1052940013F99DF800002FF075FC0CB121F0F8FF14
:1052A40007B0F0BD236832785B1B32B1B3F5FA6FF7
:1052B4003FF661AF3CF0AEFA58E7BB42F8E700BFF7
:1052C40058530220355D0220D86E0120386F01202A
:1052D40024100220CC0F0220B8110220743F0220B7
:1052E4000CE00020541002205D000000D06E01206C
:1052F40021000000486F0120967A012010B5044671
:1053040039F084FF204610BD064B074A1860074B4E
:10531400C2E90033C2E90233054AC2E90033C2E9F3
:1053240002337047441102204811022000AA0A00E7
:105334005811022010B5052111203AF093FB0521E4
:10534400142000243AF08EFB052112203AF08AFB47
:10535400052113203AF086FB454BDFED466A6B21AD
:10536400D3ED007A2720444BF8EE677ADA8B87EE88
:10537400A67A22F008021204120CF6EE007ADA83FE
:105384000522A3F86E204122A3F87420A3F86A40F2
:10539400A3F86640E7EE277AFDEEE77A17EE902A47
:1053A40092B2A3F86020A3F8702043F22302A3F87A
:1053B4006C200222A3F87820A3F86A40DA8B92B218
:1053C40042F00802DA832D4A136F43F44003136753
:1053D4003AF090FE2A4B1A6812F0404F01D01C603C
:1053E4001C601A680021274C42F00052204642F00B
:1053F40010021A60DA6842F01002DA604FF4E642F2
:10540400C3F8B020204AC3F8B820A2F52022053AF8
:10541400C3F8BC2042F248621C4B5A649A6C42F0B6
:1054240020029A6410221A6039F0A2FE2368184AF6
:1054340018491A60184AC3E901126FF007026FF0A5
:10544400FF01DA60154A99611A61042221799A826E
:105454002022DA82DA8300229A838B0003F18043CC
:1054640003F56C231A600E4A1A600E4BD97610BDF0
:10547400DC6E012000E8804700801E4000C00F4021
:1054840000003B40841102201B101F1000800C40C0
:10549400C8003B400400020208E0FFBF00002020D7
:1054A4001700008000800E40884207DA044B081A77
:1054B4001A684FF44003B3FBF0F31381704700BF45
:1054C40044110220024A034903483CF0EFB900BFEB
:1054D400D07201204D2500008411022008B534F05B
:1054E40015F9007808BD0000032810B5044615D846
:1054F40018230B4A4343D15CFF290FD10121D15416
:1055040034F004F9074B16221B6804FB023382189B
:1055140030F8021F904223F8021BF9D110BD00BFDE
:10552400025502206C110220032810B5044615D838
:1055340016220C4910FB02F308680B49184419445D
:105544003CF086FE1821094B01FB04F2985CFF280D
:1055540001D0012803D14C43FF221A5510BD00216C
:105564009954FBE76C110220CC0F02200255022053
:10557400032810B50CD80C23064C0A2903FB00138E
:1055840004EB43035A8001BF18235843FF232354D9
:1055940010BD00BF02550220032810B516D81822EA
:1055A4000B4B002402FB00F15C54162102FB003378
:1055B400084A00FB0120023300F1140250F8041BD6
:1055C400904243F8041BF9D102881A8010BD00BF31
:1055D40002550220CC0F022008B50020FFF7DCFFA3
:1055E4000120FFF7D9FF0220FFF7D6FF0320BDE813
:1055F4000840FFF7D1BF10B50024204634F086F8E8
:10560400037833B9E0B2FFF7C7FF0134042CF4D1B7
:1056140010BDFF2BF9D1E0B2FFF766FFF5E70000FC
:10562400014B185C704700BF3B5C022003299CBF00
:10563400014B5854704700BF3B5C022010B5002258
:105644000446D300D1B2013224FA03F3D8B2FFF7EF
:10565400EDFF042AF5D110BD054A51781378D078AE
:1056640043EA0123917843EA014343EA0060704727
:105674003B5C0220084AC0F57F40136EFF3003F004
:10568400784380B243F4002340F4B01043F017038E
:1056940013665066704700BF00003A40C0F57F4073
:1056A400034BFF3080B240F4A0105866704700BF2F
:1056B40000003A40C0F57F40034BFF3080B240F415
:1056C40090105866704700BF00003A40C0F57F4014
:1056D400044B4FF48062FF305A6180B240F4801072
:1056E4005866704700003A4008B5174B1860002010
:1056F400FFF7A4FF01210A203AF0B4F90A203AF096
:1057040069F9012109203AF0ADF9012109203AF0A3
:1057140077F900210D4B40220D4819603CF0B2FD91
:105724000C4837F01FFA0C4B0322C3F83C214FF608
:10573400FF730A4A83F31003C2E90033C2E9023358
:10574400FFF74CFC08BD00BF6C1102206811022059
:1057540062570220E86E012000801F407011022071
:1057640070473AF0DDB930B581EAE17500230A24C7
:10577400A5EBE1758542BCBF0633DBB2132890FB71
:10578400F4F206DC002902DA0BB1063BDBB2184660
:1057940030BD1046EEE770477047002343717047F1
:1057A40000487047F71C01201922002378218262E7
:1057B400C2624FF0FF3201624162C363A0F850300D
:1057C40030B514251E24C0E9033584614561C461E4
:1057D400C0E90D33C0E91022C0E9123330BDC36BF8
:1057E40084B000EB8303C0681A6900929A6901923D
:1057F4001A6A02929A6A039204AA02EB800050F891
:10580400102C0A44FF2AA8BFFF22012AB8BF012294
:1058140040F8102C009A1A61019A9A61029A1A624D
:10582400039A9A6204B07047C36B00EB830010B50F
:105834008369046ADA17E1171202090442EA13625F
:1058440041EA14411B021143026943EA0443806A9A
:1058540041EAE2711343C217120642EA102243EAF4
:105864000060114310BD0000084B094A1A60094A40
:105874005A60094A9A60094ADA60094A1A61094A6F
:105884005A61094AC3E90622704700BF080A022088
:10589400FF1C0120071D01200F1D0120171D0120E1
:1058A4001F1D0120261D0120306B01200048704778
:1058B4002E1201200023C0E903333223C0E90A3346
:1058C40070474369C3F1010343617047C26A816A47
:1058D400D31741EA02201B0243EA126343EAE1714F
:1058E40070470000084B094A1A60094A5A60094A7D
:1058F4009A60094ADA60094A1A61094A5A61094AEE
:10590400C3E90622704700BF080A022034120120AE
:105914003C12012044120120473601204B12012081
:1059240052120120306B012000487047EF11012012
:10593400024B012283F80124704700BF000120209C
:10594400084B094A1A60094A5A60094A9A60094A86
:10595400DA60094AC3E90422084A9A61084ADA610A
:10596400704700BF080A0220C6320120FD11012041
:10597400C1480120041201201B3601200A12012013
:105984001F12012000487047830901203F23C0E90A
:105994000433704710B5C469826904F5807490F8C3
:1059A400203002F58072E117DB00890243EAE273DA
:1059B40041EA945142EA842204690B4340697E34EB
:1059C4007E30E11742EAC442C90441EA54310B4330
:1059D400C117C90641EA501142EAC060194310BD1B
:1059E400084B094A1A60094A5A60094A9A60094AE6
:1059F400DA60094A1A61094A5A61094A9A61094AEC
:105A0400DA617047080A0220306B01208C090120FA
:105A1400940901209B090120A2090120A709012062
:105A2400AC090120C209012000487047991D0120DA
:105A3400704770470020002170477047084B094A9F
:105A44001A60094A5A60094A9A60094ADA60094A9E
:105A54001A61094A5A61094AC3E90622704700BF1C
:105A6400080A0220A31D0120A91D0120AF1D012049
:105A7400B51D0120BB1D0120C21D0120306B01207A
:105A84000048704733360120D0F8002130B5D0F8F3
:105A9400FC50D417E917A401090344EA926441EACB
:105AA4001551920141EA0403D0F8F810D0F80441EA
:105AB40042EA053243EAE17390F908010A43E11727
:105AC400890442EA844241EA94310B43C11709062E
:105AD40041EA102142EA0060194330BD084B094AEB
:105AE4001A60094A5A60094A9A60094ADA60094AFE
:105AF4001A61094A5A61094A9A61094ADA61704786
:105B0400080A02205B360120633601206B3601202F
:105B1400733601206036012068360120306B012085
:105B24007B360120004870479D3301203223C36037
:105B34000023436170474369C3F101034361704724
:105B4400C3680B44642BA8BF642323EAE373C360D4
:105B54007047C068C1177047074B084A08491A6064
:105B6400084AC3E9021208495A6019610749C3E99E
:105B74000512074ADA617047080A0220AD33012092
:105B8400B5330120306B0120BB330120C033012029
:105B9400C633012000487047D5330120D0F85C2279
:105BA40010B5D0F86442D117E31789011B0341EA09
:105BB400926143EA145392010B43D0F8541242EA1F
:105BC4000432D0F86C4243EAE1730A43E1178904D2
:105BD40042EA844241EA9431D0F874420B43E1171B
:105BE40042EA0462090641EA1421D0F87C420B43DC
:105BF400E117890741EA94010B43D0F8841243EA80
:105C04000113D0F88C1243EA812390F8C01243EABE
:105C1400014390F8C11243EA015390F8941242EA06
:105C2400847043EA016110BD10B590F8C0220E4B98
:105C3400A6320E4C0E4950F822201C609A6090F84F
:105C4400C122596000EB820290F89402D2F8AC228F
:105C5400C3E90324074A002808BF0A465A61064AD2
:105C6400C3E9062210BD00BF080A02201034012037
:105C74000A34012002340120306B012000487047AF
:105C84007B120120322204210023C0E90A120122DE
:105C9400C360436103774362026383867047C26AC9
:105CA40030B590F93550D417E9172402090644EAAF
:105CB400126441EA1521120241EA0403816A42EAAC
:105CC400056243EAE1730A4390F93410006B0B4315
:105CD4000830C117090441EA104142EA004019435F
:105CE40030BD0000074B084A08491A609960084A09
:105CF40008495A60C3E90312074A5A61074AC3E9CB
:105D040006227047080A0220C63201208E120120A2
:105D14007B12012095120120741E0120306B01209A
:105D240000487047C81D012000230361704700200C
:105D3400002170477047000070B50F4A457D0F4C35
:105D44000F4B807D002D14BF11462146002808BF4B
:105D5400224619600B495A60002D14BF0E46264690
:105D6400094A002808BF21461E61DA61C3E90222FC
:105D7400C3E9051270BD00BFD01D0120D71D01204D
:105D8400080A0220741E0120306B0120037D0344A5
:105D94009A7B82F001029A7301221A7340F28363A0
:105DA4000361704700487047A33101200023C3609A
:105DB4000374037643757047437D0021427CDB0006
:105DC40043EAC213027C807C134343EA40307047A9
:105DD400074B084A1A60084A5A60084A9A60084AF7
:105DE400DA60084AC3E90422074AC3E90622704775
:105DF400080A0220C6320120AB310120B231012051
:105E0400B831012066070120306B0120004870473B
:105E140041310120B0F99616CB174A025B0210B546
:105E240090F88C4643EAD153B0F9941642EA84427E
:105E340042EA010043EAE17110BD0000084B094A3F
:105E44001A60094A5A60094A9A60094ADA60094A9A
:105E54001A61094A5A61094AC3E90622704700BF18
:105E6400080A0220C6320120E40B01204E31012031
:105E7400543101205A31012061310120306B01205D
:105E84008842A8BF084670478842B8BF0846704792
:105E94000844054BB0F5105FA8BF4FF4105098426A
:105EA400B8BF1846704700BF00DCFFFF88420346B6
:105EB400A8BF0B468842ACBFC3EB0000C3EB010094
:105EC4007047084400EBD07040107047004870479A
:105ED4008F360120002301224365A0F85830C0E921
:105EE40013327047026DC16CD31741EA02201B02C2
:105EF40043EA126343EAE171704700000B4B0C4A1A
:105F04001A600C4A5A600C4A9A600C4ADA60C26CF5
:105F140000EB8202D2681A61026D00EB8200C26853
:105F24005A61074AC3E90622704700BF080A0220E3
:105F340099360120A13601203E4E01200F5A01203E
:105F4400306B01200048704768310120002303743E
:105F540083717047826910B5C46902F5FA726434BA
:105F6400D117E31789021B0541EA925143EA14331E
:105F740092020B43416942EA0452046A01F5FA7140
:105F840064340A4343EAE173E117090741EA14114F
:105F94000B43416A243143EA0113816A42EA0470E3
:105FA400243143EAC12110BD074B0849084A9960CE
:105FB40008491A60D9600849084A196108495A60B1
:105FC400DA61C3E905127047080A02207031012022
:105FD400C6320120773101207E310120306B01204F
:105FE4008531012000487047EC360120C26B816B7B
:105FF4001832D31741EA02201B0243EA126343EA30
:10600400E1717047084B094A1A60094A5A60094A03
:106014009A60094ADA60094A1A61094A5A61094AC6
:10602400C3E90622704700BF080A0220C6320120D5
:10603400E40B0120D75A0120933B0120F6360120BE
:10604400FC360120306B012000487047C207012054
:10605400084B094A1A60094A5A60094A9A60094A6F
:10606400DA60094A1A61094A5A61094AC3E90622EF
:10607400704700BF080A0220CC070120D407012082
:10608400DC0701205E060120E3070120EB07012065
:10609400306B0120004870476C0801200223037311
:1060A400042380F82C307047002343730361437743
:1060B400036280F82D30036380F83D300364704739
:1060C400036DC26C20332032D91710B5090290F940
:1060D4001C4090F93C00203441EA136142EA032356
:1060E400203041EAE271E21743EA0443120442EA2F
:1060F40014421143C217120642EA102243EA006016
:10610400114310BD074B0849084A596008491A60F1
:10611400996008495A61C3E90312074A9A61074A18
:10612400DA617047080A0220E40B0120C63201201C
:10613400970901209E0901207C0801208F08012075
:10614400004870476305012070470000184910B5E6
:1061540091F95C000A6EC317B1F926405B02203442
:1061640043EAD05343EA02230A8842EA4022E01772
:1061740042EA0442000440EA1440B1F928402034C1
:106184000343E01742EA8452800540EA9420034323
:10619400B1F92A00B1F92C1020302031C41724079A
:1061A40044EA101442EA0070234343EA810110BD1B
:1061B400700C0220034B044A1A609A601A619A61B7
:1061C400704700BF080A0220306B01200048704766
:1061D40003370120034BC0E903330023C0E905332F
:1061E400704700BF64004B00B0F90E20B0F90C10EA
:1061F400D31741EAC210DB0143EA526343EAE17177
:1062040070470000074B084A084809495A609860DB
:106214005A610848084A1960C3E90301C3E9062220
:10622400704700BF080A0220143701201B370120E1
:106234000D37012021370120306B012000487047C1
:106244008C31012080220023C0E90323704770476A
:10625400C368194481F30801C1607047C068C1175D
:1062640070470000074B0849084A99600849DA61F9
:10627400D960084919610849C3E90022C3E9051234
:10628400704700BF080A0220C1480120306B01207A
:10629400313A0120943101209B310120004870479C
:1062A400DC1D012003689B6818474FF0FF33002270
:1062B40000F16401C0E9033200F114038B4204D0FD
:1062C4005A70103343F80C2CF8E74FF0FF33C0E951
:1062D4001B3200F174030022C430984204D05A7077
:1062E400103343F80C2CF8E77047D0F8CC10052392
:1062F400602291FBF3F302FB030203EB8303C91A4D
:1063040001238B4092F864104B4082F864300023E0
:1063140043717047084B094A1A60094A5A60094A8E
:106324009A60094ADA60094A1A61094A5A61094AB3
:106334009A61094ADA617047080A0220C6320120CC
:10634400E40B0120E31D0120E91D0120EF1D0120C4
:10635400F61D0120FD1D0120111E0120004870477B
:10636400BE310120002380F85830024B1B68C366FD
:10637400704700BF80110220826F10B5D0F88440AE
:10638400D117E31709021B0441EA126143EA1443DB
:1063940012020B43416F42EA0442D0F88C4043EAB4
:1063A400E1730A43E117090641EA14210B43D0F8CB
:1063B40094100B4390F9701043EA012390F9711083
:1063C40043EA014390F99C1042EA046043EA016104
:1063D40010BD0000134B144A90F99C1010B511F035
:1063E400010F124C1A60124A5A60124A08BF224620
:1063F4009A60A9B1104A114C012918BF2246DA60EB
:1064040090F970200C3250F822201A6190F9712012
:106414000C3250F822205A61094AC3E9062210BD01
:10642400084AECE7080A0220C6320120C6310120DE
:10643400E40B0120D75A0120933B0120CD310120E8
:10644400306B0120D3310120002380F8583070478D
:10645400004870472737012000238361C0E90333D4
:1064640040F2011383827047084B094A1A60094AB3
:106474005A60094A9A60094ADA60094A1A61094A63
:106484005A61094A9A61094ADA617047080A022086
:106494003137012039370120940901209B0901205B
:1064A400413701204937012051370120633701204A
:1064B400004870476B1E012090F8743090F87520E6
:1064C4005B04816C43EA4253026D013910B543EA1F
:1064D400020490F876305B0044EAC11443EAE273A4
:1064E40090F8772043EA4213026E43EA4223826B18
:1064F40043EA0243C26B43EA025390F8252043EA7D
:106504000263CA17D20142EA51621343826D013A0F
:10651400D11744EA0230090341EA1251194310BD6C
:106524000F4B104A90F876101A600F4A5A600F4ABF
:1065340052F82110996090F8771052F8212090F8C1
:106544007410DA600A4A52F82110196190F8751033
:1065540052F821205A61074A9A61074ADA61704762
:10656400080A0220C6320120721E01202C55002088
:106574004C550020791E01208E1E012000487047D2
:10658400743701200023C0F81C31012380F85930EE
:1065940080F85B307047426B10B5D117846B0904E7
:1065A400E31741EA1241DB05120443EA542342EAA9
:1065B400C452C46B0B43E11742EA8472890741EA6F
:1065C4009401B0F930400B4390F8081104F50044ED
:1065D40043EA411390F8091143EA412390F8581013
:1065E40043EA4133016C43EA813390F85A1043EA99
:1065F4004153B0F9321042EA040043EAE4738031B3
:1066040043EA815110BD0000154B164A164910B5D6
:1066140090F858401A60154A002C08BF0A465A6080
:1066240090F8092102F00C0102F0030200EB82024F
:106634000144D269C969DA6090F80821996002F0CE
:106644000C0102F00302014400EB8200C268C96835
:106654005A61074A19619A61064ADA6110BD00BF9E
:10666400080A0220C6320120E40B0120A9370120C8
:10667400B0370120C137012000487047153401208C
:1066840090F8613090F8B120DB0190F9111090F886
:10669400B40043EAC2230B43C91743EAC03070472E
:1066A4000C4B0D4A90F861101A600C4A5A600C4A5F
:1066B4009A600C4ADA600C4A52F82110196190F879
:1066C400B11052F821205A61084A9A61084ADA61E5
:1066D400704700BF080A0220C6320120E40B0120E3
:1066E4001F34012025340120947301202D3401200E
:1066F4004234012000487047D13701200023C0E90B
:106704000433024BC362A623037670470A0A0001CE
:1067140090F82D3090F82E205B0143EA822390F804
:106724002C20134390F82F2043EAC223026B013A32
:10673400D11743EA0230090341EA125170470000BD
:106744000E4B0F4A0F4910B5C3E900220E4A90F8C8
:106754002E409A600D4A90F82F00DA600C4A002C03
:1067640008BF0A460B491A610B4A002808BF0A46AB
:106774005A610A4A9A610A4ADA6110BD080A02207B
:10678400306B0120EC370120033801200B38012045
:10679400E5370120FB370120F437012013380120AD
:1067A4002438012000487047DA3101200023C360F7
:1067B400704790F82020837F1203C17F42EA83123E
:1067C40090F8223042EA834290F82C3042EA036285
:1067D40090F821309B0243EA011390F8231043EA16
:1067E400014390F82D1043EA8153017F407F013922
:1067F40001380A4343EAE173C117890741EA90016A
:1068040042EA8070194370470C4B0D4A90F82C10E3
:106814001A600C4A5A600C4A52F82110996090F898
:106824002D1052F82120DA60084A1A61084A5A6188
:10683400084A9A61084ADA61704700BF080A0220D0
:10684400C6320120E40B01204C6F0020E23101200C
:10685400E8310120EE310120043201200048704764
:10686400310601204FF42072002110303BF00ABDA4
:10687400D0F890320B44642BA8BF642323EAE3735B
:10688400C0F890327047D0F89002C11770470000EA
:10689400084B094A1A60094A5A60094A9A60094A27
:1068A400DA60094A1A61094A5A61094A9A61094A2D
:1068B400DA617047080A0220C63201203B06012033
:1068C40040060120460601204C0601205306012003
:1068D4005906012065060120004870472F38012021
:1068E40010B504464FF4807200210C303BF0CAFC12
:1068F4004FF48072002104F586703BF0C3FC4FF422
:106904007A73C4E983330023C4E98533C4E9873344
:10691400A4F8243210BDD0F81022D0F80C12D317EA
:1069240041EAC220DB0243EA525343EAE171704771
:10693400084B094A1A60094A5A60094A9A60094A86
:10694400DA60094A1A61094A5A61094A9A61094A8C
:10695400DA617047080A02203938012040380120E2
:10696400473801204E380120553801205D38012078
:1069740065380120633701200048704754340120F2
:106984000023C0E90333704770470020002170479B
:1069940070470000084B094A1A60094A5A60094ABC
:1069A4009A60094ADA60094A1A61094A5A61094A2D
:1069B4009A61094ADA617047080A022039380120CD
:1069C40066340120DC0701206D340120713401207C
:1069D400783401207D340120306B01200048704759
:1069E400231E01200423437601230362704710B55C
:1069F40090F91710847ECB17CA01DB0142EA843276
:106A040043EA516390F91610C0690A4343EAE173FB
:106A1400C117C90441EA503142EAC040194310BDCC
:106A2400084B094A09491A60094A5A60094A9A6096
:106A3400C3E90312084A5A61084A9A61084ADA61AA
:106A4400704700BF080A02202C1E0120391E0120B5
:106A5400321E0120DC0701203C120120411E0120CE
:106A6400561E01200840704708437047484070474D
:106A7400084080F001007047084380F0010070472F
:106A8400484080F00100704700207047004870477C
:106A94009D120120002383654364022383647047AD
:106AA400826C416CD31741EA02201B0243EA126351
:106AB40043EAE171704700000F4B104A104930B5AA
:106AC4001A60104A104D5A60426C846C062A18BF32
:106AD400294600EB820200EB8400D26899601A61B7
:106AE400C2680A495A610A4A062C18BF29469A61A3
:106AF400084AD960DA6130BD080A0220AD120120CB
:106B0400A3120120B2120120F5050120A8120120D0
:106B1400B7120120306B01200048704789380120EA
:106B240080224023C0E904237047027D0021007CB9
:106B340040EA022070470000084B094A1A60094ADB
:106B44005A60094A9A60094ADA60094A1A61094A8C
:106B54005A61094AC3E90622704700BF080A0220A5
:106B6400E40B0120FD110120933801209838012005
:106B7400D75A0120933B0120306B01200048704715
:106B84009C38012070477047084B1A881144084A02
:106B940089B2B1F5967F28BF4FF49671012938BFA9
:106BA4000121B2FBF1F219805A607047700C022087
:106BB40040420F000020002170477047064B0749F0
:106BC400074A1961074959610749C3E90022C3E922
:106BD4000222C3E906127047080A02208212012029
:106BE400306B0120A6380120AB38012000487047E3
:106BF4008D3401207F230361704770470369194472
:106C040081F30801016170470069C11770470000F2
:106C1400074B0849084A99600849D960084919612D
:106C2400084959610849C3E90022C3E906127047BB
:106C3400080A022097340120306B01209D34012082
