:1000000000800020BD01000009670200C1660200F7
:10001000C1660200C1660200C1660200C16602003C
:10002000C1660200C1660200C166020009670200E3
:1000300009670200C166020009670200B16602009A
:1000400009670200096702000967020009670200E8
:1000500009670200096702000967020009670200D8
:1000600009670200096702000967020009670200C8
:1000700009670200096702000967020009670200B8
:1000800009670200096702000967020009670200A8
:100090000967020009670200096702000967020098
:1000A0000967020009670200096702000967020088
:1000B0000967020009670200096702000967020078
:1000C0000967020009670200096702000967020068
:1000D0000967020009670200096702000967020058
:1000E0000967020009670200096702000967020048
:1000F000096702005575020009670200B17C020021
:10010000096702002D8202000967020009670200E8
:100110000967020009670200096702000967020017
:100120000967020009670200096702000967020007
:10013000096702000967020009670200C56302003F
:1001400009670200096702000967020009670200E7
:10015000E96C0200016D0200196D0200316D0200B0
:1001600009670200096702000967020009670200C7
:1001700009670200096702000967020009670200B7
:1001800009670200096702000967020009670200A7
:100190000967020009670200096702000967020097
:1001A0000967020009670200096702000967020087
:1001B000096702000967020009670200574B4CF209
:1001C000205210B51A804DF628121A8000BF00BFC9
:1001D00026F09EFA524B4FF010621A60514A9A6014
:1001E000514ADA60A3F53043203B1A6812F480725A
:1001F00004D14E490A604FF4A8521A604C4B1A7849
:10020000110703D51A7842F008021A70494B4A4C7C
:100210004A482A221A704A4A00239918A14203D256
:10022000195899500433F8E7464B474900228B424E
:1002300002D243F8042BFAE74448454900235A58B0
:100240001A500433B3F5DE7FF9D1424B424A802184
:1002500003F8011B9342FBD1404B3C4A1A60404BD0
:100260008A221A70A3F5805324225A70A0221A7091
:100270009A799207FCD59A79D406FCD4394A9379B5
:1002800003F00C03082B374BF9D103221A714622D5
:100290005A719A799006FCD5324A9179314B4906C8
:1002A000FBD5314A4FF08271116009215160202243
:1002B0001A709A7902F00C020C2AFAD12B4B2C4AB4
:1002C0001A602C4B2C4A1A6000225A60072243F80D
:1002D000042C2A4AC3F80C2D62B626F089FB134B76
:1002E0001B68DA0705D5264826F026FB254B264A4B
:1002F0001A60264B1B785B0609D5224C224A2368DC
:10030000934204D11E4826F017FB002323602AF0F5
:1003100087FD26F003FA26F055FDFEE70E20054086
:1003200030800440823F04000100002B14D00340C1
:1003300002D0074000E007408CDAFF1F1C9C03003E
:100340000084FF1F90DAFF1F9C3900200082FF1FEE
:100350000000000000E400E05FE400E008ED00E0E1
:1003600000500640004006404480044004800440A1
:10037000C010050014E000E0BFD401000000202000
:10038000876877631CE00340A5C3945A00F00740D8
:10039000FFFFFFFFFFFFFFFFFFFFFFFFFFFFFFFF6D
:1003A000FFFFFFFFFFFFFFFFFFFFFFFFFFFFFFFF5D
:1003B000FFFFFFFFFFFFFFFFFFFFFFFFFFFFFFFF4D
:1003C000FFFFFFFFFFFFFFFFFFFFFFFFFFFFFFFF3D
:1003D000FFFFFFFFFFFFFFFFFFFFFFFFFFFFFFFF2D
:1003E000FFFFFFFFFFFFFFFFFFFFFFFFFFFFFFFF1D
:1003F000FFFFFFFFFFFFFFFFFFFFFFFFFFFFFFFF0D
:10040000FFFFFFFFFFFFFFFFFFFFFFFFDEF9FFFF23
:1004100010B5054C237833B9044B13B10448AFF33E
:1004200000800123237010BD90DAFF1F0000000040
:10043000149C030008B5064B1BB106480649AFF3F0
:1004400000800648036813B1054B03B1984708BD07
:1004500000000000149C030094DAFF1F8CDAFF1FD9
:1004600000000000074B08481B6808491A6830B4B0
:10047000074C01252570146910611B790B7030BC85
:10048000704700BFACDAFF1F0080FF1F1F800040D5
:10049000B0DAFF1F10B5002104464FF0FF321E48AE
:1004A00025F0B0FE1C4810214FF0FF3225F0B4FEBD
:1004B000194804214FF0FF3225F0B8FE16480321F9
:1004C0004FF0FF3225F0BCFE04214FF0FF321248FE
:1004D00025F0C0FE114B124A1C600021A2F110034E
:1004E00043F8041B9342FBD10E4A0021A2F11003F2
:1004F00043F8041B9342FBD10B4A0021A2F12003D5
:1005000023F8021B9342FBD103484FF0FF31BDE8B3
:10051000104025F0A9BE00BFC8DAFF1F2CDCFF1F6A
:10052000C8DAFF1F40DCFF1F2080FF1F2DE9F047C6
:10053000DFF8A891634DD9F80000634F012126F040
:10054000E1FAD9F8002061491368DFF894E11868EE
:10055000196001269E71DE7110685D4900244FF01C
:1005600002081C715C7144728472C47280F8088045
:1005700013684FF0100C18691D61D88BA3F81EC0CA
:1005800010681C734FF0FF356FF01F0A5C739C738B
:10059000DC735C7583F818A083F81480B0F816A09B
:1005A0005D769D76DD76A0F816C0137903F1804361
:1005B00003F50433A8221C701A70D9F8002038689B
:1005C0001368B3F81CC0B3F81CA01FFA8CFC4CF0E5
:1005D000080CA3F81CC0B3F81CC0B3F81CA01FFA89
:1005E0008CFC4CEA080CA3F81CC01279531103FAD6
:1005F00008F303F1604302F1100C03F5614302F0CC
:100600001F0206FA02F241F82CE031461A6026F089
:1006100079FA3A68DFF8CCC01168D9F800008E7119
:10062000CE7113680E68C1F800C004264C7181F8C1
:100630000480D98BDE8311685D736FF0070C9D73A6
:10064000DD7383F80CC0CB8ACE821368214E5C72B6
:100650009C72DC7283F8088001681568D3F810C0BA
:100660001C765C769C76DC761E612C756C75CD8B69
:100670001379CC8B184CADB225F4F05503F00F0371
:100680006FEA45455B0263EA55439BB2CB8303683F
:10069000D98BDD8A89B2D982036811799A8B9D8BB7
:1006A00092B222F4786201F00F0142F0200242EA95
:1006B00001229A83037923703B681B792370BDE87C
:1006C000F08700BF0080FF1FB4DAFF1F10B00340A7
:1006D0000082FF1F00B003401B800040ACDAFF1F08
:1006E0006504000074EF0200884207DA044B081A20
:1006F0001B684FF4400191FBF0F11981704700BF76
:100700002CDCFF1F08B5074825F04EFD082026F019
:1007100061FB054B1860082026F05CFB034B18605A
:1007200008BD00BFC8DAFF1FACDAFF1FB4DAFF1F35
:1007300030B400EB4004E400094A0A4900EB8005AC
:10074000002300EB4500A35401EB40001444E218E1
:10075000C15A51800233162BF9D130BC704700BF0B
:100760009CDCFF1F7823002008B500F037FB0078E1
:1007700008BD00BF032810B5044606D800EB4002B0
:10078000D2000C4BD15CFF2900D010BD0121D15407
:1007900000F024FB084B04EB84021B6804EB4204CA
:1007A00003EB44040023C2185288E2520233162B92
:1007B000F9D110BD9CDCFF1F98DCFF1F032810B48B
:1007C0001AD8114B114C1B6800EB800100EB410162
:1007D00049000C4419440023E25ACA520233162B32
:1007E000FAD100EB4000C000094BC25CFF2A06D0E2
:1007F000012A04D00022C2545DF8044B7047FF2246
:10080000C2545DF8044B704798DCFF1F782300202A
:100810009CDCFF1F032810B40BD8074B00EB4000F3
:10082000C000C41804EB41040A29628004BFFF22FF
:10083000C2545DF8044B70479CDCFF1F08B50020D4
:10084000FFF776FF0120FFF773FF0220FFF770FF2D
:100850000320BDE80840FFF76BBF00BF10B50024C0
:10086000204600F0BBFA0378E0B22BB9FFF760FF37
:100870000134042CF4D110BDFF2BF9D1E0B2FFF705
:1008800079FFF5E7014B185C704700BF40DCFF1FA4
:1008900003299CBF014B5854704700BF40DCFF1F29
:1008A000054B10B4010C040A020E5C7018709970AC
:1008B000DA705DF8044B704740DCFF1F10B4002372
:1008C000064C1846E15CDA00013301FA02F2042B0F
:1008D00040EA0200F6D15DF8044B704740DCFF1F90
:1008E00070B42B4C2378C0F57F40FF301904002BE7
:1008F0003AD041F00043274A43F010035363D36AD0
:1009000003F47043B3F5405FF9D8D1B180B240F041
:100910008050204A01435163D36A03F47043B3F516
:10092000405FF9D81B49CB6A1A4A13F0F00FFAD08E
:10093000936BD36A174913F0F00FFAD08B6B70BC2E
:100940007047154C134B226880B240F0C0504FF0F6
:1009500080551170DD621A465863D36ADB00FCD5FE
:10096000236801221A70DDE70B4A0A4B12684FF028
:10097000805610251170DE621A465D63D36A03F457
:100980007043B3F5405FF9D821780904BDE700BF93
:100990008C37002000C002408837002070B42B4CF8
:1009A0002378C0F57F40FF301904002B3AD041F086
:1009B0000043274A43F012035363D36A03F470439E
:1009C000B3F5405FF9D8D1B180B240F08050204AF1
:1009D00001435163D36A03F47043B3F5405FF9D820
:1009E0001B49CB6A1A4A13F0F00FFAD0936BD36A03
:1009F000174913F0F00FFAD08B6B70BC7047154C91
:100A0000134B226880B240F0C0504FF080551170F7
:100A1000DD621A465863D36ADB00FCD523680122E5
:100A20001A70DDE70B4A0A4B12684FF08056122508
:100A30001170DE621A465D63D36A03F47043B3F546
:100A4000405FF9D821780904BDE700BF8C3700204A
:100A500000C002408837002070B42B4C2378C0F5CA
:100A60007F40FF301904002B3AD041F00043274A61
:100A700043F014035363D36A03F47043B3F5405F48
:100A8000F9D8D1B180B240F08050204A014351637F
:100A9000D36A03F47043B3F5405FF9D81B49CB6ABE
:100AA0001A4A13F0F00FFAD0936BD36A174913F078
:100AB000F00FFAD08B6B70BC7047154C134B22684B
:100AC00080B240F0C0504FF080551170DD621A4680
:100AD0005863D36ADB00FCD5236801221A70DDE776
:100AE0000B4A0A4B12684FF0805614251170DE62D3
:100AF0001A465D63D36A03F47043B3F5405FF9D8D7
:100B000021780904BDE700BF8C37002000C00240F7
:100B10008837002070B42B4C2378C0F57F40FF301D
:100B20001904002B3AD041F00043274A43F0160342
:100B30005363D36A03F47043B3F5405FF9D8D1B17E
:100B400080B240F08050204A01435163D36A03F4DD
:100B50007043B3F5405FF9D81B49CB6A1A4A13F0CA
:100B6000F00FFAD0936BD36A174913F0F00FFAD055
:100B70008B6B70BC7047154C134B226880B240F0F1
:100B8000C0504FF080551170DD621A465863D36A29
:100B9000DB00FCD5236801221A70DDE70B4A0A4B03
:100BA00012684FF0805616251170DE621A465D639A
:100BB000D36A03F47043B3F5405FF9D82178090490
:100BC000BDE700BF8C37002000C0024088370020FE
:100BD000494B4A4A596D2DE9F047494C1E6D20603A
:100BE000012500244FF4A07086F8805214705470D0
:100BF0009470D47008600F68DA6C9B6C414EDFF81B
:100C0000389127F020070F6083F880521060136836
:100C10003D4F23F0200313602946092025F09EFE56
:100C200021464022394834602AF026FC384A394BA4
:100C30001168DFF808E13848384C41F4805A4FF029
:100C400038484FF400714FF0784CC2F800A0C3F858
:100C50000090C3F80C80C3F810C0CEF800103D70AF
:100C60001C600378D8075BBF02F53F521C322C4A48
:100C70004FF4107111609A0754BF2A4A2A4A4FF460
:100C800000715B07116032D4284B4FF410721A6068
:100C9000274C4FF6FF7383F31003184623606360FD
:100CA000A360E360FFF71CFE6068FFF777FEA068B3
:100CB000FFF7D2FEE068FFF72DFF94E802103368DB
:100CC000124AA56822F81310E06803F1080703F13F
:100CD000100403F11801013303F0070322F817C0D1
:100CE000336022F8145022F81100BDE8F087114B50
:100CF0004FF400721A60CBE7F494030040DCFF1F4E
:100D000098DCFF1F84DCFF1F8C37002044DCFF1FB2
:100D10003C80044000C0024084370020000C1F804B
:100D200008C004401CB004400CC0044014B004408F
:100D300088DCFF1F04C0044001401F8010B0044045
:100D40001549164B164870B40E68164D164C4FF4E4
:100D5000107246F480560E602A60226018601A688D
:100D600042F440621A601A6851040DD442F4804182
:100D70004FF0384441F001014FF078401960DC60D9
:100D8000186170BC1A6070474FF038414FF07842DC
:100D9000D96070BC1A6170473C80044000C00240BA
:100DA00000001F8018B0044014B0044025F0EEBBD2
:100DB000F0B4084F0026084C0FCCBD19B85169603B
:100DC00003CC1836602EAA60EB6028616961F2D10D
:100DD000F0BC70479CDCFF1F7CEF0200024B00EB75
:100DE000400003EBC00070479CDCFF1F074B084A24
:100DF000187910B41C680023D118D4500533A02BE7
:100E00000871F9D15DF8044B704700BFDCEF0200B8
:100E1000FCDCFF1F00EBC101C9B203481F299CBFC6
:100E200001EB810140187047FCDCFF1FF0B5264C38
:100E30002649274D83B04FF47A73022600930C277E
:100E4000204678229E23A760666024F0ABFD2149EE
:100E500066601623A3600B68A3FB05234A68A2FB08
:100E600005028968A1FB05171B480097642101FB57
:100E700003F1A0FB0171C90901912046174924F033
:100E800091FD174966602023A3604A68A2FB0532E2
:100E90000B68A3FB05038968A1FB0550114900906D
:100EA000204624F07FFD104A104B12681B68104941
:100EB00066602A252046A56024F074FD3423666010
:100EC000A36003B0F0BD00BF28370020ECEF0200A4
:100ED00022222202BCDDFF1FA97464CFFCEF0200B6
:100EE000ACDDFF1F14F00200A8DDFF1FB8DDFF1FFF
:100EF00024F002002DE9F041DFF8AC80234F244EAE
:100F0000D8F80030234C18883A6833682249022503
:100F1000A0EB12224FF00C0E20461B0AC4F808E08A
:100F2000656024F03FFDD8F800307A68588873680F
:100F30001A4965604FF0160EA0EB12221B0A2046DC
:100F4000C4F808E024F02EFDD8F80030BA6898887C
:100F5000B368134965604FF0200EA0EB12221B0A04
:100F60002046C4F808E024F01DFDD8F80030FA68E7
:100F7000D888F36865602A25A0EB1222A560204678
:100F800008491B0ABDE8F04124F00CBD30DCFF1F0E
:100F9000B8DAFF1F2837002034F0020040F00200CA
:100FA0004CF0020058F002002CDCFF1F30B5144C4E
:100FB00083B000214023204600930A46802324F07A
:100FC00019FA00220C2320460E496260A36024F027
:100FD00085FC0D480D494268022516236560A36013
:100FE000A2FB01320368A3FB01538068A0FB011040
:100FF00007490090204624F0D5FC03B030BD00BF67
:101000002837002064F002009CDDFF1F222222020C
:1010100068F002001648174B174AD3F8C410F0B412
:101020000468164F164E44F0807404601068012462
:1010300040EA04051560D3F8C0204FF4A07082F890
:10104000804208600D68D3F8CC20D3F8C83025F072
:1010500020050D6083F8804210601068202120F088
:1010600020004FF40023106039603360F0BC7047FB
:10107000FCED00E0F4940300001000E008F00F40E5
:1010800048F00F402DE9F043374FDFF8E88083B098
:1010900004463D464646D8F80828D8F80C38D31AF6
:1010A000022B2AD0D6F8083803F0010303F50073A9
:1010B00056F8231009B3DFF8C0900122484623F008
:1010C0008BFFEA1BD2104FF0020E01320323484679
:1010D0002649C9F804E0C9F808E024F063FC484652
:1010E000296824F0FBFB6B689847484623F082FF91
:1010F000D6F808380133C6F80838002004F160013A
:10110000D4F8E020D4F8E4309A4219D0D4F8E4308E
:1011100003F00F0201EBC20201335288C4F8E4303D
:10112000082A1DD0042AEBD1AB68DBB1EB68CBB148
:10113000D4F8E020D4F8E4309A4205F10805E5D16E
:101140000028A8D000230A4AC4F8E430C4F8E030EC
:1011500013680193019BC4F8EC3003B0BDE8F08341
:101160000120CDE7004DCBE79CF002007CF00200AF
:1011700078370020182F00202837002010B40948A5
:10118000094C0A4A00234FF0FF312360A3606160DD
:101190000360416083605160136093605DF8044BAD
:1011A000704700BFACDDFF1FBCDDFF1F9CDDFF1FD4
:1011B0002DE9F041154C164E04F120054FF00008C2
:1011C00040F2031723786168212B18464FF0020282
:1011D00004F108040FD925F02DFBAC42F2D10D4BE0
:1011E0000D4A00211960A2F1100343F8041B934239
:1011F000FBD1BDE8F08106EBC30C56F833E0DCF818
:1012000004308EF880821F60E5E700BFBCF002006A
:10121000F4940300C8DDFF1FDCDDFF1F084B094904
:101220009869DA6910B4002480F8804240F2031310
:101230001360032002225DF8044B25F0FBBA00BFC7
:10124000F49403003585FF1F104B196810B411B1D9
:1012500000221A60012158680C4A10B10020506029
:1012600002209A68094C014312B10022A2600422B4
:10127000DB6806480A4313B10023C3600823044C0B
:10128000134323605DF8044B704700BFCCDDFF1FA4
:10129000C8DDFF1F00230F22012180F823200170E9
:1012A000437080F8223043628362821ED901023289
:1012B0000133102B5180F9D1704700BF70B4141C5A
:1012C00018BF0124047074B132F8136000231A4669
:1012D000C51802339419202B6A80A2B2F8D10123D9
:1012E00080F82310437070BC704700BFF0B40678DC
:1012F000002E6AD04378002B70D0841D0D250FB2CC
:10130000002D11DD6A1004EB420634F91230BB42A5
:1013100005DC5DE034F91350BD425BDD1A46531025
:1013200004EB4306002AF5D100F1020CCCEB040CCF
:101330004FEA6C0CACF102039BB20FFA8CFC1AB2B0
:10134000944556DB4FF6FF764FF4007400EB4202F3
:1013500027B2B2F902504D1B002DB8BF6D42ADB29D
:101360002AB2BA4203F10102B8BF1E4693B21AB2C2
:10137000B8BF2C469445E9DA36B23346741E721C67
:1013800000EB430300EB42025B88B2F9021000EB72
:1013900044041AB2658801EBC1010727C2EBC202FF
:1013A000092413FB071315FB04221B111211002E35
:1013B000836242621BDB90F923309E42A8BF1E4627
:1013C000F6B2002380F82260437070B2F0BC704720
:1013D00013462A46D31A5D1EB41C91E7436A8B421A
:1013E0008BDC836A994288DC90F82260EDE7002666
:1013F000E7E74FF0FF331E4600226FF00104BFE71E
:101400002DE9F84F26A7D7E90067DFF8A8A0DFF895
:10141000A8B0254D4FF00A094FF000084FF0FF34F7
:1014200014E029F031FA214929F082FA28F0ECFD84
:1014300004460D4627F00AF906460F46204629467F
:1014400027F03EF909F1010904460D460022184B28
:101450003046394628F02CFE29F00CF929F02EFCF4
:101460000022134B4AF808002946204628F020FEA7
:1014700029F000F929F022FC8BFB09234FEAE972DD
:10148000C2EB63030AEB080208F1080803EB43030D
:10149000B8F1600F5060A9EB8300C2D1BDE8F88FAE
:1014A000ADB161B9C59B493EFFFFEFBF920A063F50
:1014B00000003C40DCDDFF1FABAAAA2AAFF300808E
:1014C0002DE9F04F83461C2385B02B482B4D8A46CF
:1014D000914624F06FF89BF8003005EBC30155F8F6
:1014E00033204B680AEB020C09EB03084746012442
:1014F000E046234900912048A8F10301FA1E082381
:1015000023F09EFF1BF804601B4855F8362005EBBE
:10151000C6030AEB02065B6809EB030CCDF800C0BA
:1015200041463A4601343346CDF80CC023F0D8FF8B
:10153000032CDDF80CC002D0B0466746D9E79BF813
:1015400000200E490C4851F8323001EBC2023746F8
:1015500052684A445344009239466246664623F034
:10156000BFFF074B0093F91EF21E0348082323F028
:1015700067FF05B0BDE8F08F28370020DCDDFF1FD6
:10158000D4EF02007A4A137870B4032B40D8DFE816
:1015900003F0B77C41027749774B0D6877480135F6
:1015A00005F0070505F1180103EB4101C5F107033B
:1015B000013B31F8024B20F8024F5E1CF8D1704B12
:1015C000C5F1080003EB40006B1E3DB16D4931F8D9
:1015D000024F20F8024B013B5C1CF8D16A4D6B4C6A
:1015E0002E68A4F11003002133F8020FA342014436
:1015F000FAD1674B06F1C00081F4F821C1F38431C0
:10160000013623F8101006F03F0600232E601370F9
:1016100070BC70475749584B0D685848013505F064
:10162000070505F1100103EB4101C5F10703013B7B
:1016300031F8024B20F8024F5E1CF8D1504BC5F137
:10164000080003EB40006B1E3DB1524931F8024FD8
:1016500020F8024B013B5C1CF8D14B4B4B4C1D68F6
:101660000021A4F1100333F8020FA3420144FAD180
:1016700005F1800481F4F8214548C1F38431032346
:1016800020F81410137070BC70473A493A4B0D683B
:101690003A48013505F0070505F1080103EB410162
:1016A000C5F10703013B31F8024B20F8024F5E1CE5
:1016B000F8D1334BC5F1080003EB40006B1E3DB180
:1016C000354931F8024F20F8024B013B5C1CF8D140
:1016D0002D4B2E4C1D680021A4F1100333F8020F8E
:1016E000A3420144FAD105F1400481F4F8212848CD
:1016F000C1F38431022320F81410137070BC7047BA
:101700001C4B1D491D681D48013505F0070501EBFF
:101710004501C5F10703013B31F8024B20F8024FA8
:101720005E1CF8D1164BC5F1080003EB40006B1EA0
:101730003DB11A4931F8024F20F8024B013B5C1CC5
:10174000F8D1114B114C1D680021A4F1100333F89E
:10175000020FA3420144FAD181F4F8210C48C1F3ED
:101760008431012320F81510137070BC704700BF3E
:101770004CE0FF1F84DCFF1F44DCFF1F3AE0FF1F2B
:101780003CE0FF1F72DCFF1F50E0FF1F4AE0FF1F1D
:101790003CDEFF1F62DCFF1F52DCFF1F42DCFF1F2D
:1017A0002DE9F843FFF7EEFEDFF8B8802B4C2C480C
:1017B00000230121D8F80020066801321A4402F003
:1017C0003F0202F1400C34F81270FD1003EBC51516
:1017D00007F0070716F8059001FA07F749EA070727
:1017E000775534F81CC0066803F140074FEAEC0552
:1017F00007EBC5150CF0070C16F8059001FA0CFC68
:1018000049EA0C0C06F805C002F18005066834F8B8
:1018100015C00CF1200C4FEAEC0503EBC5150CF0DC
:10182000070C16F8059001FA0CFC49EA0C0C06F8B6
:1018300005C0C032056834F812602036F21007EB9C
:10184000C21206F00706AF5C01FA06F601333E430A
:101850003F2BAE54AED1BDE8F88300BF3CDEFF1F86
:101860002837002050E0FF1F7A4A137870B4032B0A
:1018700040D8DFE803F0B77C41027749774B0D6829
:101880007748013505F0070505F1180103EB410123
:10189000C5F10703013B31F8024B20F8024F5E1CF3
:1018A000F8D1704BC5F1080003EB40006B1E3DB151
:1018B0006D4931F8024F20F8024B013B5C1CF8D116
:1018C0006A4D6B4C2E68A4F11003002133F8020F0F
:1018D000A3420144FAD1674B06F1C00081F4FC2118
:1018E000C1F34531013623F8101006F03F060023FE
:1018F0002E60137070BC70475749584B0D6858489C
:10190000013505F0070505F1100103EB4101C5F1B3
:101910000703013B31F8024B20F8024F5E1CF8D15F
:10192000504BC5F1080003EB40006B1E3DB152491E
:1019300031F8024F20F8024B013B5C1CF8D14B4BB5
:101940004B4C1D680021A4F1100333F8020FA34291
:101950000144FAD105F1800481F4FC214548C1F32A
:101960004531032320F81410137070BC70473A49B6
:101970003A4B0D683A48013505F0070505F10801B5
:1019800003EB4101C5F10703013B31F8024B20F89D
:10199000024F5E1CF8D1334BC5F1080003EB400049
:1019A0006B1E3DB1354931F8024F20F8024B013B27
:1019B0005C1CF8D12D4B2E4C1D680021A4F11003A6
:1019C00033F8020FA3420144FAD105F1400481F437
:1019D000FC212848C1F34531022320F8141013706C
:1019E00070BC70471C4B1D491D681D48013505F032
:1019F000070501EB4501C5F10703013B31F8024B37
:101A000020F8024F5E1CF8D1164BC5F1080003EB1D
:101A100040006B1E3DB11A4931F8024F20F8024BCD
:101A2000013B5C1CF8D1114B114C1D680021A4F145
:101A3000100333F8020FA3420144FAD181F4FC21D0
:101A40000C48C1F34531012320F81510137070BC08
:101A5000704700BF4CE0FF1F84DCFF1F44DCFF1F0A
:101A60003AE0FF1F3CE0FF1F72DCFF1F50E0FF1F4A
:101A70004AE0FF1F3CDEFF1F62DCFF1F52DCFF1F3E
:101A800042DCFF1F2DE9F041FFF7EEFE1B4FDFF8B0
:101A900074C01B4900220126DCF800303C68013389
:101AA000134403F03F0303F1400531F8130031F80C
:101AB00015504FEAE50800EBC81005F0070514F8CB
:101AC000008006FA05F548EA0505255403F1C00033
:101AD000803331F8104031F813303868E510403366
:101AE00003EBC51304F00704C55C06FA04F40132E5
:101AF0002C433F2AC454CFD1BDE8F08128370020C1
:101B00003CDEFF1F50E0FF1FF0B4084F0026084DD9
:101B10000FCDBC190FC40FCD0FC495E803002836B4
:101B2000A02E84E80300F2D1F0BC70479CE1FF1FB7
:101B300084F102000328D2BF034B044B043800EBAE
:101B4000800003EBC00070479CE1FF1F5CF10200C6
:101B5000704700BF2DE9F0412F4B304E1B6882B01B
:101B6000002146F2A812019380E80600019BC0F80C
:101B7000EC300446054606F11008FF2756F8040F1E
:101B8000C0B2A860022124F0EFFE46452F7305F194
:101B90000805F3D104F1280304F13801002243F8C9
:101BA000042B99424FF00005F9D12587658784F809
:101BB0003C5084F83D5010200221FF2624F0D4FE32
:101BC0000F20022124F0D0FE84F8405084F84150C8
:101BD0006564A56484F84D6084F84C601620022189
:101BE00024F0C2FE1520022124F0BEFEC4F8E85005
:101BF00084F85D60C4F8E45084F85C6084F8505068
:101C000084F851506565A565C4F8E050C4F8EC50FF
:101C100002B0BDE8F08100BF783700204017030014
:101C200001F00103C1F3400180F8413080F8511008
:101C3000704700BF094B82B01B6801934FF47A7262
:101C400002FB01F1B1F5FA6F019BC0F8EC3038BF2F
:101C50004FF4FA61416002B0704700BF783700204E
:101C600080F83D10704700BF2DE9F043DFF8D480C5
:101C700083B0044689466E460127D4F8E020D4F8A4
:101C8000E4309A4225D0D4F8E430658F03F00F0297
:101C900004EBC202603292E8030086E80300BDF85C
:101CA000022001331542C4F8E43094F83C3021D1CD
:101CB0002BBB9DF80000022825D003282CD001283A
:101CC00025D0D4F8E020D4F8E430C8F800709A4267
:101CD000D9D11B4BD4F8EC201B68009300996368A2
:101CE0008A1A9A4224D9012384F83C30002003B098
:101CF000BDE8F08325EA02026287002BBDD00023F5
:101D000084F83C30B9E7012A0BD0082AEFD0D9F883
:101D1000283068469847D4E7D9F82C306846984769
:101D2000CFE794F83D30002BCBD184F83C20C8E7B6
:101D300094F83C0080F0010003B0BDE8F08300BFE0
:101D400078370020BCC8FF1F2DE9F04F6F4A704D57
:101D50001368704E87B08A460493049B0393AB4686
:101D60008146B9F83830694913F0040F0A680592C2
:101D700014BF0327012703F0030213F0080F18BF55
:101D80000227033A53425341059C8AF80030D5F8A4
:101D90000828D5F80C38D31A022BF8D0DBF808380D
:101DA00003F0010303F500735BF823100029EED064
:101DB0005848012223F010F90020FEF763FD0028A7
:101DC00073D0544800210C22802323F08DFA4FF069
:101DD000020850485049C6F80480C6F8088023F02D
:101DE0007DFD11234B484D49C6F80480B36023F0B4
:101DF00075FD032F79D047484949C0F804801D2359
:101E0000836023F06BFD022F66D09AF80030022128
:101E100029227160B260002B42D102227260039AC3
:101E20003C4840493523C2EB0408B36023F056FD1B
:101E3000B8F57A7F32D3039901F6E8331B1BC3F35D
:101E400014130222009233483E22002123F0D6F8D8
:101E5000D9F8E020D9F8E4309A420AD0D9F8E43031
:101E60000133C9F8E430D9F8E020D9F8E4309A42D7
:101E7000F4D1284823F0BEF8D5F8082840F6E73317
:101E800001329845C5F808287FF66BAFB9F83830AD
:101E9000A9F83A30384607B0BDE8F08F8023D0E784
:101EA0001C48214923F01AFDB7E70120FEF7EAFCA0
:101EB000002886D10220FEF7E5FC002881D103200E
:101EC000FEF7E0FC014600287FF47BAF11480C22AE
:101ED000802323F0E1F97AE70C2300930D4839467B
:101EE0001B22802323F06CF98FE70C2300934146DB
:101EF00008480F22802323F063F906480849C0F8F8
:101F000004801D23836023F0E9FC7EE778370020FE
:101F1000182F0020283700205417030068170300EB
:101F20007C170300A41703009017030008B524F0E2
:101F30002DFB03480349044ABDE8084028F05ABF76
:101F40003CE2FF1F511B0000F8B2FF1F70B4441C9D
:101F5000A14200F1FF35C8BFE1B205EB45152944A8
:101F6000104E56F821107AB14FF0FF3592FBF4F67F
:101F700004FB162205FA00F021EA0000A51A20FA57
:101F800005F100FA02F21143B3FBF4F204FB123341
:101F9000012404FA03F319420CBF0020012070BC95
:101FA000704700BFAC170300431C30B4994200F1E6
:101FB000FF34C8BFD9B204EB441421440B4D55F88B
:101FC00021107AB192FBF3F54FF0FF3403FB152299
:101FD00004FA00F09B1A21EA000020FA03F100FA4B
:101FE00002F21143084630BC704700BFAC17030033
:101FF000002301220270C0F82431C0F82831C0F853
:102000002C31C0F8303100F120026FF03F03D901CC
:102010000133402B22F8021FF9D170472DE9F0035C
:102020000478002C00F09480891AD0F82C41A1F596
:10203000406CA4457FDA00F128057B260FFA8CF866
:10204000002E11DD741005EB440735F914104145DD
:1020500005DC6AE035F91160464568DD0C46611023
:1020600005EB4107002CF5D100F12209C9EB050968
:102070004FEA6909A9F1020189B20FFA89F90CB294
:10208000A1456BDB4FF6FF774FF4804500EB44042E
:102090000FFA85F8B4F92260C6EB0C06002EB8BF23
:1020A0007642B6B234B2444501F10104B8BF0F46DE
:1020B000A1B20CB2B8BF3546A145E7DA39B2BEB21B
:1020C0004C1C4F1E00EB410100EB4404498CB4F959
:1020D000225000EB47070CB2B7F8228005EBC5058C
:1020E0004FF00709C4EBC4044FF0090C1E4411FB68
:1020F000095118FB0C4436B209112411002EC0F806
:102100003011C0F82C4127DD7E2EA8BF7E2600EBC3
:102110004606B6F92210C0F82411C0F8283111443F
:1021200001F54060BDE8F003704721463446611A6E
:102130004E1EBD1C84E7D0F830118C453FF77BAFB5
:10214000D0F8281199427FF476AFD0F82411E6E751
:102150000846BDE8F00370470126D8E74FF6FF7642
:1021600000246FF001074FF0FF31ABE7002908DBD7
:102170007F29D6BF00EB4101B0F92001B1F922005F
:102180007047B0F92200704710B4002313224FF4B7
:1021900066410924016183604380838083814361B8
:1021A0008377C37780F8203080F82130836580F80A
:1021B0005430C0F8E43019468276427602760480C4
:1021C00000F1220200F12A0322F8021B9342FBD104
:1021D00000F13201002223F8022B9942FBD100F1D9
:1021E000340300F14404002143F8041B9C424FF0E7
:1021F0000002F9D1C0F8F020C0F8E020C0F8DC20DF
:1022000000F15C03DC3043F8042B9842FBD15DF80D
:10221000044B7047444B454A10B483FB00430344CE
:10222000C417C4EB233302FB030044110B2907D866
:10223000DFE801F0172029323B444D565F067168F4
:102240003B4A611C52F8211052F82420891A00F0F0
:102250001F0000FB01F002EB501098405DF8044BAA
:102260007047334A611C52F8211052F82420C90AE1
:10227000D20AEBE72E4A611C52F8211052F82420B2
:10228000490A520AE2E72A4A611C52F8211052F820
:102290002420C909D209D9E7254A611C52F8211026
:1022A00052F8242089099209D0E7214A611C52F88A
:1022B000211052F8242049095209C7E71C4A611C21
:1022C00052F8211052F8242009091209BEE7184AD1
:1022D000611C52F8211052F82420C908D208B5E731
:1022E000134A611C52F8211052F8242089089208E0
:1022F000ACE70F4A611C52F8211052F8242049081B
:102300005208A3E70A4A611C52F8211052F824200F
:10231000890092009AE7064A611C52F8211052F88F
:1023200024204900520091E7D1000DD050ECFFFF6E
:10233000583A03002DE9F04F0446806D8FB001300C
:102340009DF86090A06523B194F85430002B40F0C4
:102350007E8122B994F82130002B00F0078104F12E
:10236000340304F14400002143F8041B98424FF069
:102370000002F9D1616B84F82120B4F80CA0CDF8EB
:1023800028A0226907920A9AB4F814A0CDF820A0D8
:1023900012B20692DDF818A094F81B8094F8203051
:1023A00094F81CC0677FA67FE07F65884FF0000926
:1023B000CDF83090CAF1000A8DF83180B4F804806D
:1023C000CDF834904A468DF83730CDF82CA0CDF8B2
:1023D0001090CDF80C90CDF824808DF832C08DF897
:1023E00033708DF835608DF83600A3462346069F7E
:1023F000561C06F00300002F04EB400040F3A680BB
:10240000408CDDF8288010FB0811AF4F4FEA253CC7
:102410000CEB0C2C080EBC440CF20118471C1CF8E9
:1024200000901CF807A018F800C018F80780CDF835
:10243000148021F07F414FEA0C28C9EB0A0A01FB06
:102440000AFACDF80480CDF808A0DDF81480DDF894
:1024500004A0CCEB080C4FEA0929AAF50048DDF8E6
:1024600008A0CDF814C0A9F500490CFB01FC09EB4C
:102470002A4908EB2C481FFA89F90FFA88F80FFA55
:1024800089FC4FEA051ACCEB080C1FFA8AFA0AFB02
:102490000CFC09EB2C491FFA89F9DFF834821FFA8A
:1024A00089FCA3F82AC018F8000018F807700FFA82
:1024B0008CFC3F1A000207FB01F72244A0F5004004
:1024C0000CF5004C039900EB27474FEA2C2C5F8456
:1024D000A9F5004882F848C0A9B3B4F92A2002F54A
:1024E00000420A418A4088EA02091FFA89F9B3F8D2
:1024F0004A10049A079FDDF82480DDF820A0C1F57A
:102500007F41FF3102FB01F10912C1F57F41FF312B
:1025100001FB09F1090C07FB01F145440AEB2141DC
:10252000042EA3F84C103246ADB20BF1040B03F1AC
:10253000020318D00DA80CAFDBF83410BF5D865D28
:102540000397049653E789F40049D0E7D01C00F0C4
:10255000030004EB4000DDF82CA0B0F92200561C6B
:102560000AFB001151E70FB0BDE8F08F94F854302A
:10257000002B40F0848008462188FFF74BFE606402
:10258000B9F1FF0F0BD0B9F1020F95BFC9F10309E3
:10259000A9F1020920FA09F000FA09F06064267E28
:1025A000636B94F819C0A77EDFF828818DF8356039
:1025B000314603441322132963638DF834208DF8C8
:1025C00036C08DF8377023464FF0000214D058F80B
:1025D0002110A0FB01919D6B4FEA196949EA012185
:1025E00001320D44032A9D6303F104030CD00DA9AD
:1025F000114449781329EAD1996B01320144032A25
:10260000996303F10403F2D1A368002B3BDBDB03E6
:10261000132EC4F8EC3052D0A06BD4F8F020616BCC
:10262000821A1A44A263BCF1130F44D0E06BD4F8B1
:10263000F020821A1A44E263132F37D0206CD4F8AA
:10264000F020821A1A442264C4F8F03095E61F4B39
:10265000984211D8A6283FD8D4F8E43003EB4305BC
:1026600028448008984207D04FF0FF33B3FBF0F3C3
:10267000C4F8E400C4F8E8300023A36569E6D4F8A0
:10268000E80060647CE7000C03FB00F52946234664
:102690000022986B0432401A0C2A9863294403F1F3
:1026A0000403F6D1D4F8EC30616BCDE703EB4302C1
:1026B0000A442264C8E701EB4302E263BCE7616BB2
:1026C0005A18A263AFE700BF44280300D7080200EE
:1026D00055390300A8270300D4F8DC300493049F85
:1026E000059004EB8303002507F1400B07F1200858
:1026F0000395D865AA4601275FFA87FC5B4600264A
:10270000DD1B03F01F0005F01F0504EB850504EB3E
:102710008000ED6DC06D451B002DB8BF6D42B5EB5F
:10272000101F38BF013603F1FF3338BFF6B24345FF
:10273000E6D1B24507F101079CBFCDF80CC0B24607
:10274000082FD9D1049BDDF80C800598D4F8E060FF
:102750005D1C05F01F05C8EB050707F01F07C4F84F
:10276000DC5004EB8705861BED6DD4F8E430C4F82B
:10277000E050002EB8BF7642B6EB101F38BF284697
:1027800070E700BF2DE9F00F4FF07F48B8FBF3F87A
:10279000581EC3B30B131D4C03EB03231F194FEA41
:1027A00001191FFA89F907F2011C0023190E4C1CAC
:1027B0007E5C17F804B01CF801501CF804A0C6EBAE
:1027C0000B0123F07F443602A6F50046C5EB0A0A4A
:1027D00004FB01F12D0206EB2141A5F500450AFBA2
:1027E00004F489B205EB24440EB224B2A41B09FB05
:1027F00004F4A1F5004101EB2441013822F8021B49
:10280000411C4344D2D1BDE8F00F70474428030077
:10281000014B1868704700BFD4240020704700BFE8
:10282000044B054A1B68106803EB830303EB830327
:1028300018447047A8250020D0EAFF1F704700BF4A
:10284000014B1868400070471CF2FF1F704700BF23
:10285000014B186880007047DC030020012802D17A
:10286000014B00221A74704778E8FF1F704700BFC1
:10287000014B186880007047FC030020012802D13A
:10288000014B00221A747047A0130020704700BF4C
:10289000014B1868704700BF640D0020704700BFEF
:1028A000014B18684000704798130020704700BF24
:1028B000014B18688000704708090020704700BF6E
:1028C000704700BF014B1868704700BF9C13002081
:1028D000704700BF014B1868704700BF60FAFF1FC8
:1028E000704700BF704700BF014B1868704700BFBA
:1028F00018040020704700BF012802D1014B0022BC
:102900001A717047F0080020014B1868800070476A
:1029100094130020704700BF014B18688000704777
:1029200074000020704700BF2DE9F001294B2A4EAA
:102930000021A6F864100D468C46044603F5167770
:102940001A7D062A0FD8DFE802F0321D1D04042884
:1029500028001DB104F8015BA6F864C0725824F881
:10296000022BB6F864501833BB4201F10401E7D1E1
:1029700025B1002304F8015BA6F86430201ABDE8F5
:10298000F00170471DB104F8015BA6F864C07258ED
:1029900004F8012BB6F86450E5E71DB104F8015BBB
:1029A000A6F864C0725844F8042B0025DBE772587F
:1029B00045B102F00F02154304F8015B0025A6F8AB
:1029C00064C0D0E71501EDB245F47045A6F8645037
:1029D000C9E700BFC8CBFF1F88E3FF1F2DE9F00F39
:1029E000564D574A0023AB8380461C461E46117D38
:1029F00006290DD8DFE801F0882E2E0404373700B1
:102A000014B100F8014BAE83E95820F8021BAC8BDF
:102A100004331C2B02F11802E9D11CB1002300F889
:102A2000014BAB83474DC8EB000005F1100405F5E1
:102A30000179002608EB000C0023434A26826146F8
:102A40009A46177D062F22D8DFE807F04F37371652
:102A50001643430014B100F8014BAE83E95800F867
:102A6000011BAC8BD4E714B100F8014BAE83E958DD
:102A700040F8041B0024CBE7BAF1000F02D001F8A4
:102A800001AB2E84E75821F8027BB4F810A0043380
:102A9000102B02F11802D4D1BAF1000F02D001F8C4
:102AA00001AB2E841434CCEB01014C45084405F1F4
:102AB0001405BFD1BDE8F00F7047BAF1000F02D086
:102AC00001F801AB2E84E75801F8017BB4F810A09F
:102AD000DDE7BAF1000F02D001F801AB2E84E75810
:102AE00041F8047B4FF0000AD1E7E758BAF1000F34
:102AF00014D007F00F0747EA0A0727824FF0000AB1
:102B000001F8017B2E84C2E7E95884B101F00F017E
:102B10000C4300F8014B0024AE8379E74FEA071A13
:102B20005FFA8AFA4AF4704AA4F810A0AFE70901E4
:102B3000CCB244F47044AC836AE700BF20090020A3
:102B40005443030030090020586F03002DE9F00FB3
:102B5000304C314D4FF0000C834604F5E969664670
:102B60000BEB0C0800222D4BA4F8E0604146104608
:102B70001F7D062F0FD8DFE807F038232304042E2B
:102B80002E0018B101F8010BA4F8E060A75821F855
:102B9000027BB4F8E0001833AB4202F10402E7D143
:102BA00018B101F8010BA4F8E06004F56974C8EBF2
:102BB00001014C458C44D3D16046BDE8F00F70470D
:102BC00018B101F8010BA4F8E060A75801F8017BE7
:102BD000B4F8E000DFE718B101F8010BA4F8E060F9
:102BE000A75841F8047B0020D5E7A75848B107F063
:102BF0000F0747EA000A01F801AB0020A4F8E060E3
:102C0000C9E74FEA071A5FFA8AFA4AF47040A4F853
:102C1000E000C0E7D4EAFF1FFCC0FF1FBCBBFF1FE2
:102C20002DE9F00F304C314D82B0002301938346E3
:102C300004F5F0781E46DDF804C02D4BA685DC4473
:102C400000226146104693F81490B9F1060F0DD892
:102C5000DFE809F036242404042D2D0010B101F81A
:102C6000010BA685A75821F8027BA08D1833AB4233
:102C700002F10402E7D110B101F8010BA685DDF8DD
:102C800004A0CCEB010178348A444445CDF804A07B
:102C9000D1D1504602B0BDE8F00F704710B101F835
:102CA000010BA685A75801F8017BA08DDEE710B1C6
:102CB00001F8010BA685A75841F8047B0020D5E751
:102CC000A75840B107F00F0949EA000A01F801AB23
:102CD0000020A685CAE74FEA071A5FFA8AFA4AF483
:102CE0007040A085C2E700BFA0E8FF1F586B03003B
:102CF000506A03002DE9F00F384ADFF8EC80384DB8
:102D00004FF0000C58F8044C402C08EB0403C4F1BD
:102D10003F065FD033491E44013B13F8010F01F811
:102D2000010FB342F9D1C4F140032B44414634B101
:102D30001C4411F8010B03F8010BA342F9D10CF16B
:102D40000804E4104FEAEC00E401C00104F17F073D
:102D500000F17F063F23116815F80390C3EB070AC3
:102D600009F0020B01F80A904FEAD91A11684AEAF1
:102D7000C91A4AEA4B1A09F0040B19444AEACB0A69
:102D800009F0080B4AEA4B0A09F0100B01F804900D
:102D90004AEA5B0109F0200A41EADA0109F0400938
:102DA00041EA5919C3EB060A11685FFA89F901F87B
:102DB0000A9011681944013B01F80090591CCAD1CE
:102DC0000CF1100CBCF1400F08F584789AD1BDE8E5
:102DD000F00F70474146024BAAE700BF283700209A
:102DE00090EAFF1F8FEAFF1F8C1400202DE9F00FDF
:102DF000304C314D4FF0000C834604F58469664633
:102E00000BEB0C0800222D4BA4F84C6041461046F9
:102E10001F7D062F0FD8DFE807F038232304042E88
:102E20002E0018B101F8010BA4F84C60A75821F846
:102E3000027BB4F84C001833AB4202F10402E7D134
:102E400018B101F8010BA4F84C6004F58474C8EBC8
:102E500001014C458C44D3D16046BDE8F00F70476A
:102E600018B101F8010BA4F84C60A75801F8017BD8
:102E7000B4F84C00DFE718B101F8010BA4F84C607E
:102E8000A75841F8047B0020D5E7A75848B107F0C0
:102E90000F0747EA000A01F801AB0020A4F84C60D4
:102EA000C9E74FEA071A5FFA8AFA4AF47040A4F8B1
:102EB0004C00C0E7C4130020C03F0300F83D0300EE
:102EC0002DE9F001294B2A4E0021A6F87C100D4671
:102ED0008C46044603F53A771A7D062A0FD8DFE8B8
:102EE00002F0321D1D04042828001DB104F8015B06
:102EF000A6F87CC0725824F8022BB6F87C50183320
:102F0000BB4201F10401E7D125B1002304F8015BC4
:102F1000A6F87C30201ABDE8F00170471DB104F816
:102F2000015BA6F87CC0725804F8012BB6F87C50FF
:102F3000E5E71DB104F8015BA6F87CC0725844F8BF
:102F4000042B0025DBE7725845B102F00F02154350
:102F500004F8015B0025A6F87CC0D0E71501EDB2AE
:102F600045F47045A6F87C50C9E700BFA4C5FF1F13
:102F7000680D00202DE9F00F304C314D4FF0000C62
:102F8000834604F59C6966460BEB0C0800222D4B2A
:102F9000A4F87C60414610461F7D062F0FD8DFE85D
:102FA00007F038232304042E2E0018B101F8010B7A
:102FB000A4F87C60A75821F8027BB4F87C00183391
:102FC000AB4202F10402E7D118B101F8010BA4F8F9
:102FD0007C6004F51C74C8EB01014C458C44D3D1D2
:102FE0006046BDE8F00F704718B101F8010BA4F876
:102FF0007C60A75801F8017BB4F87C00DFE718B1CA
:1030000001F8010BA4F87C60A75841F8047B00206C
:10301000D5E7A75848B107F00F0747EA000A01F8BB
:1030200001AB0020A4F87C60C9E74FEA071A5FFAF9
:103030008AFA4AF47040A4F87C00C0E7B029002066
:10304000C8CBFF1FE0C8FF1F2DE9F00F304C314DFA
:103050004FF0000C834604F5006966460BEB0C0844
:1030600000222D4BA4F88460414610461F7D062F98
:103070000FD8DFE807F038232304042E2E0018B100
:1030800001F8010BA4F88460A75821F8027BB4F87A
:1030900084001833AB4202F10402E7D118B101F801
:1030A000010BA4F8846004F50074C8EB01014C45E1
:1030B0008C44D3D16046BDE8F00F704718B101F8D9
:1030C000010BA4F88460A75801F8017BB4F88400D0
:1030D000DFE718B101F8010BA4F88460A75841F8A4
:1030E000047B0020D5E7A75848B107F00F0747EA4F
:1030F000000A01F801AB0020A4F88460C9E74FEA98
:10310000071A5FFA8AFA4AF47040A4F88400C0E70C
:1031100050F2FF1FC4470300AC4403002DE9F00147
:10312000294B2A4E0021A6F894100D468C460446E1
:1031300003F55E771A7D062A0FD8DFE802F0321D0C
:103140001D04042828001DB104F8015BA6F894C0F2
:10315000725824F8022BB6F894501833BB4201F190
:103160000401E7D125B1002304F8015BA6F89430EF
:10317000201ABDE8F00170471DB104F8015BA6F804
:1031800094C0725804F8012BB6F89450E5E71DB1CD
:1031900004F8015BA6F894C0725844F8042B00258B
:1031A000DBE7725845B102F00F02154304F8015BEA
:1031B0000025A6F894C0D0E71501EDB245F470459E
:1031C000A6F89450C9E700BFDC3F0300E4240020C8
:1031D0002DE9F001264B274E0022328515469446F4
:1031E000044603F1F007197D06290ED8DFE801F047
:1031F0002F1B1B04042525001DB104F8015BA6F854
:1032000028C0B15824F8021B358D1833BB4202F197
:103210000402E8D11DB1002304F8015B3385201AB4
:10322000BDE8F00170471DB104F8015BA6F828C0A5
:10323000B15804F8011B358DE7E71DB104F8015BB7
:10324000A6F828C0B15844F8041B0025DDE7B158A2
:1032500045B101F00F010D4304F8015B0025A6F80C
:1032600028C0D2E70D01EDB245F470453585CCE7B5
:10327000B86F030068FAFF1F2DE9F001294B2A4EB1
:103280000022A6F8542015469446044603F5FC7720
:10329000197D06290FD8DFE801F0321D1D0404282E
:1032A00028001DB104F8015BA6F854C0B15824F8F9
:1032B000021BB6F854501833BB4202F10402E7D1A6
:1032C00025B1002304F8015BA6F85430201ABDE8AC
:1032D000F00170471DB104F8015BA6F854C0B15865
:1032E00004F8011BB6F85450E5E71DB104F8015B82
:1032F000A6F854C0B15844F8041B0025DBE7B158C8
:1033000045B101F00F010D4304F8015B0025A6F85B
:1033100054C0D0E70D01EDB245F47045A6F8545005
:10332000C9E700BFE4650300040C00202DE9F00F9D
:10333000304C314D4FF0000C834604F53869664639
:103340000BEB0C0800222D4BA4F8BC604146104644
:103350001F7D062F0FD8DFE807F038232304042E43
:103360002E0018B101F8010BA4F8BC60A75821F891
:10337000027BB4F8BC001833AB4202F10402E7D17F
:1033800018B101F8010BA4F8BC6004F53874C8EB5F
:1033900001014C458C44D3D16046BDE8F00F704725
:1033A00018B101F8010BA4F8BC60A75801F8017B23
:1033B000B4F8BC00DFE718B101F8010BA4F8BC6059
:1033C000A75841F8047B0020D5E7A75848B107F07B
:1033D0000F0747EA000A01F801AB0020A4F8BC601F
:1033E000C9E74FEA071A5FFA8AFA4AF47040A4F86C
:1033F000BC00C0E7F8170020A4C5FF1F3CC1FF1F99
:103400002DE9F00F434E444D82B04FF0000C019077
:10341000344606F57079DDF80480404B4FF000002B
:10342000E044002220854146104693F814B0BBF1D9
:10343000060F10D8DFE80BF04E5E433A2F2704004A
:1034400028B14FF0000A01F8010BA6F828A0A758F0
:1034500041F8047B00201833AB4202F10402E4D1AE
:1034600020B101F8010B4FF000003085F034C8EBBB
:1034700001014C458C4406F1F006CCD1604602B007
:10348000BDE8F00F70470028E1D04FF0000701F8C9
:10349000010B3785DBE720B101F8010B4FF000008D
:1034A0003085A75821F8027B208DD4E70028F8D07A
:1034B0004FF0000A01F8010BA6F828A0F1E720B1AF
:1034C0004FF0000701F8010B3785A75801F8017B81
:1034D000208DC0E7A758A8B107F00F0B4BEA000BEF
:1034E0004FF0000AA4F828B0002001F801BBA6F8AC
:1034F00028A0B0E70028E8D001F8010B4FF0000049
:103500003085E2E74FEA071A5FFA8AFA4AF4704018
:103510002085A0E7D8250020786E0300886D030081
:10352000704700BF704700BF704700BF704700BFC3
:10353000704700BF704700BF704700BF704700BFB3
:10354000704700BF704700BF704700BF704700BFA3
:10355000704700BF704700BF704700BF704700BF93
:10356000704700BF704700BF704700BF704700BF83
:103570002DE9F8434FF00008534C544F00264546C0
:103580005FFA88F0221F0023F95842F8041F18330D
:10359000F02BF9D1FF23A4F8A030E5622563656321
:1035A00084F8385084F8395084F8AA00E56326641A
:1035B000C4F88860C4F89050C4F8945084F88E50D1
:1035C000C4F8985084F88C5084F88F5084F8A25036
:1035D000A4F8A450A4F8A65022460023E118023310
:1035E000162BA1F8705002F1040216644FF000018E
:1035F000F4D103224FF0010C4FF0020E0823904249
:1036000084F8E41084F8E5C084F8E6E084F8E72064
:1036100084F8E83049D0092384F8E93084F8EA30A6
:1036200004F1EB0204F1E403D31A4FF0000904F1B2
:10363000B800C4F8AC50C4F8E03008F101084946BD
:10364000282227F019FFB8F1040FC4F8B060C4F8BD
:10365000B4504FF0000004F1F00491D11C49D1F8AE
:10366000D84381F80C900023002201F57A75C5E952
:103670000023013C032381F80D9081F80E9081F81E
:103680001490C1F81890C1F82090C1F82490C1F8A6
:10369000F093C1F8F403C1F80090C1F80490C1F8A8
:1036A00008900B61CC61BDE8F88306220420052157
:1036B000072384F8EB2084F8E90084F8EA1084F802
:1036C000EC3004F1ED02ADE7D8250020886D030051
:1036D000B02500202DE9F04FDFF85891524F85B00A
:1036E0004FF000084C4657F8045C052D07EB4502E7
:1036F000C5F1040300F094804C4932F8020B21F824
:10370000020F013B581CF8D1C5F1050204EB42023F
:1037100038466B1E35B130F8021B22F8021B013B04
:10372000591CF8D1B4F800C057F80C3C4048414C43
:103730005B0F4FEA9C2CCCF13F0A1E465246414695
:103740004644039321F0A8FD5246314638480323EE
:1037500021F0FCFD06F1180BA14639F8025F344850
:10376000AD0AC5F13F052A463146082321F094FDF4
:10377000CAEB05035545314652462D4803F1010376
:1037800043D00CDAC5EB0A030133294831462A46F7
:1037900021F0DCFD08365E4506D0AA46DDE7083696
:1037A00021F0D4FD5E45F8D1224A2148B2F80890B4
:1037B000039A4FEA9929C9F13F090221C2F108038E
:1037C00000914A46314621F019FC4D4521D0A945CA
:1037D00012DAC9EB0503013331464A46144821F099
:1037E000B5FD08F12008B8F1800F07F118077FF444
:1037F0007AAF05B0BDE8F08FC5EB09030133314660
:103800002A460B4821F0A2FDEBE7022321F09EFDA2
:10381000C0E731462A460648032321F097FDE0E73A
:103820003846044A042376E7A4E7FF1FD624002085
:1038300028370020D82400202DE9F04F2D4987B0EB
:103840004C6D00230DF1080CCA18526C4CF8032083
:103850000433102BF8D1284EDFF8A0A0DFF8A080A9
:10386000E1460DF1030B082559F8047F2248B560A5
:1038700007F178025A23736088FB0231D317C3EB38
:10388000610303EB4303A2EB83030BF8013F5AF8F8
:10389000231022F023F888FB0731FF17C7EB6101E3
:1038A00010350131144822F0D7F8382DDCD1DFF87B
:1038B00054800025422714F0800F0CBF2D212B21AE
:1038C0000D48B560776021F0C7FF04F07F03103525
:1038D00018F80310084821F0BFFF402D4FEA1424C8
:1038E000E9D120210A4601A8FDF7EAFD07B0BDE8AD
:1038F000F08F00BF28FBFF1F283700202015030092
:10390000ABAAAA2A8C6E03002DE9F04F404C8BB075
:10391000002306A8E2183E49D2F83822C2500433E8
:10392000102BF7D1D1F88C623A4F0DF113020DF143
:10393000160550F8043F783387FB0314D917C1EB01
:10394000640101EB4101A3EB810302F8013FAA42AC
:10395000EFD1202205A860212F4CFDF7B1FDF3B275
:10396000A4FB0327BF0807EB8708C8EB03084FEA4F
:10397000480C4FEA470B0CEB08020BEB0701274BF7
:10398000009392008900053203312548CDF80CC020
:10399000082321F055FDDDF80CC0360A4FF003096D
:1039A000424659461C48F3B2A0FB0304A40804EBAA
:1039B00084055D1B4FEA450808EB05034FEA440BFD
:1039C000624439440BEB040A9F0007F108034FEAF5
:1039D0008A0A8900920006310832009310480AF1E1
:1039E000060321F07DFD0F4B00937A1D08230AF199
:1039F00003010B48DE4021F023FDB9F1010904D099
:103A000027462A465946C446CCE70BB0BDE8F08F9E
:103A100020090020ABAAAA2ACDCCCCCCD4EF02003E
:103A200028370020C8EF0200FDF7BABEFDF7B8BE88
:103A3000FEF728B810B5044623F040F9204610BD23
:103A40000B4B10B401EB410403EBC40463689342D5
:103A500003DCA3689A42B8BF134650F821205DF8F2
:103A6000044B9A4216BF40F82130002001207047D5
:103A7000BCBBFF1F0B4B10B401EB410403EBC404B0
:103A80006368934203DCA3689A42B8BF134650F8B8
:103A900021205DF8044B9A4216BF40F821300020E7
:103AA00001207047A4C5FF1F012870B511D1094D31
:103AB000094E2B8F6B870024284621463470FEF771
:103AC000CFF82B8F746186F8344086F83640F46363
:103AD0006B8770BD3CE2FF1F2CE3FF1F012838B548
:103AE0000DD1074D07480024038F2C7121464387D1
:103AF000FEF7B6F8AC6185F8384085F83A4038BD35
:103B00002C0700203CE2FF1F0B4B10B401EB4104DB
:103B100003EBC4046368934203DCA3689A42B8BF12
:103B2000134650F821205DF8044B9A4216BF40F826
:103B30002130002001207047AC440300012838B533
:103B40000DD1074D07480024038F2C712146438770
:103B5000FEF786F8AC6185F8384085F83A4038BD04
:103B600018E8FF1F3CE2FF1FF8B503280CD8DFE878
:103B700000F00C020C0C1D4C0025257522F07EFB7C
:103B80001B4B25601A8F5A87F8BD1A49002501F58D
:103B900070770020FF26C1F898000D64C1F88850A6
:103BA00081F88D0081F88E0081F8380081F83900A5
:103BB000A1F8A06081F8A200A1F8A400A1F8A600D5
:103BC000A1F8A800C1F89C00C86381F88F000A46DC
:103BD0000023CC180233162BA4F8700002F1040263
:103BE0001564F6D1F031B942D5D1F8BDB025002029
:103BF0003CE2FF1FD82500200B4B10B401EB410421
:103C000003EBC4046368934203DCA3689A42B8BF21
:103C1000134650F821205DF8044B9A4216BF40F835
:103C20002130002001207047E46503000378012B58
:103C300010B5044609D0022B06D16388022B03D1AC
:103C4000204B012283F8792010BD4388013B072BCC
:103C5000FAD801A252F823F0AD3C0000993C0000D4
:103C6000493C0000853C0000493C0000493C000004
:103C7000493C0000793C0000134B1A7982F00102A4
:103C80001A7110BD0F4B9B68002BDDD10E4A1178C5
:103C9000B1B90123137010BD0A4881680029D3D13E
:103CA0000268203AFFF7A8FF2378C4E70548816837
:103CB0000029C9D102682032FFF79EFF2378BAE7B6
:103CC000137010BD040C0020F0080020012800D063
:103CD00070470C4B93F850201AB1002283F8502003
:103CE0009A65094BD3F8D42202F0030103EB81015A
:103CF00001320020C3F8D422C1F8C402C3F8DC2288
:103D0000704700BF3CE2FF1F2009002090F82631D9
:103D100090F8E220022BF0B46ED0032B67D0012B79
:103D200060D0D0F82CC0032B03D8DFE803F0025D8D
:103D3000676290F840703D460AB1334A12783349C1
:103D4000134401EB4316002F5BD000F5A8727C00F2
:103D50000023F15E42F8041F0233A342F9D11FFA97
:103D60008CF100F5AA7600234FF6FF7441FA03F2B6
:103D7000D20758BF46F8234001339F42F6DC341F78
:103D800000276B1E9F4219DA05F18043023B06EBC8
:103D9000830304E0BCBF59609A60A3420ED0596807
:103DA00053F804299142F5D105F18042013AA3422A
:103DB00056F822209A6005F1FF35F0D10137BD4257
:103DC00004F10404DDDC05F18043013B4FF6FF7292
:103DD00056F82330934208BF05F1FF3580F84E5165
:103DE000F0BC7047D0F830C090F84470A3E7D0F82A
:103DF00038C090F84C709EE7D0F834C090F8487006
:103E000099E700F5AA76DEE7DCF0020074E0FF1F18
:103E1000F8B50378012B438802D0042B4AD0F8BDB3
:103E2000013B072BFBD801A252F823F0953E00007E
:103E3000753E00001F3E0000653E00001F3E000072
:103E40001F3E00001F3E00004D3E0000444B93F813
:103E50005022002A69D093F8682282F0010283F888
:103E60006822F8BD3E4B93F8502282F0010283F89D
:103E70005022F8BD3A4BD3F8D42202F0030103EBF1
:103E8000810101320120C3F8D422C1F8C402C3F871
:103E9000DC22F8BD324BD3F8D42202F0030103EB4D
:103EA000810101320020C3F8D422C1F8C402C3F852
:103EB000DC22F8BD2A4E06F538721146284D52E82C
:103EC000003F002BFAD141E80034002CF6D1BFF3BB
:103ED0005F8F2F7E05F1200021464FF4FA7227F004
:103EE000CBFA012F28D0022F0CD105F1200301229B
:103EF00005F5057500E0DC68012C18BFDA601433A5
:103F0000AB42F8D1BFF35F8F0022C6F8E022D6F8AB
:103F1000D43203F0030106EB81010133C6F8D43239
:103F2000C1F8C422C6F8DC32F8BD93F8542282F0FE
:103F3000010283F85422F8BD05F1340405F50A7531
:103F4000082022F007FF54F8143C80F30300984245
:103F500018BF44F8140C1434AC42F1D1D2E700BFBE
:103F6000200900200378012B438818D0042B00D0AF
:103F70007047314A31480023C15842F8041F1833B2
:103F8000B3F55E7FF8D12E4B9A6E02F0030103EB7E
:103F90008101013201209A6688651A677047013BEA
:103FA000072BE5D801A252F823F000BF1D40000006
:103FB000E93F0000713F0000D93F0000713F000061
:103FC000713F0000713F0000CD3F00001C4B1A788C
:103FD00082F001021A707047194B93F8282082F082
:103FE000010283F82820704716498A68531E032B64
:103FF000A8BF03236FF002008342B8BF0346934279
:10400000B6D00F4A8B60936E03F0030102EB81017F
:1040100001330020936688651367704709498A68F1
:10402000531C032BA8BF03236FF002008342B8BFC9
:1040300003469A42E5D19BE7E0240020DC3F0300E1
:1040400028FBFF1FE42400202DE9F00F6B496C4C86
:104050004FF0000C82B0804601F58469654608EB9C
:104060000C07684BA1F84C503846002201971E7D82
:10407000062E15D8DFE806F096AA857D6C040400AC
:10408000D0F800B05E68A1F84C50B34503DB9E68E1
:10409000B345B8BF5E468F58B74218BF8E50043044
:1040A0001833A34202F10402E1D1019F8B6981F828
:1040B000AC50C01B4FF0010A4FF002024FF0030753
:1040C00081F8ADA081F8AE2081F8AF704FF0040AFE
:1040D0004FF005024FF00607844481F8B0A081F844
:1040E000B12081F8B270002B00F0848007220823F1
:1040F00081F8B32081F8B43009220A2381F8B52071
:1041000081F8B6300B220C2381F8B83081F8B72043
:1041100001F1B9030D260E205A1A1E7058700F2691
:1041200010209E70D870A63A112612201E71587168
:1041300001F5847141F8602C494590D1324BD3F898
:10414000CC206046013A9A6102B0BDE8F00F70479A
:10415000A1F84C50B0F800B05E68B34503DB9E6830
:10416000B345B8BF5E468F58B74218BF8E50023075
:1041700096E7A1F84C50B0F900B05E68B345F2DBA9
:10418000EDE7A1F84C5090F800B05E68B34503DB52
:104190009E68B345B8BF5E468F58B74218BF8E5071
:1041A00001307DE7B1F84C60C6B106F00F0BA1F805
:1041B0004C505E68B34503DB9E68B345B8BF5E46AE
:1041C0008F58B7423FF46CAF8E5069E7A1F84C505E
:1041D00090F900B05E68B345DEDBD9E790F800B037
:1041E0006FEA0B5A6FEA1A5A0130A1F84CA04FEA55
:1041F0001B1BDEE701F1B3038CE700BFC4130020F3
:10420000C03F0300F83D0300A01300202DE9F00F8C
:104210004349444D82B000230193804601F5F07973
:104220001E46DDF804C0404B8E85C444644600221F
:10423000187D062814D8DFE800F04E5F3E372704CB
:104240000400D4F800B058688E85834503DB986875
:104250008345B8BF58468F58874218BF88500434EA
:104260001833AB4202F10402E2D1DDF804A0CCEB3A
:1042700004047831A2444945CDF804A0D1D1504678
:1042800002B0BDE8F00F70478E85B4F800B05868F2
:10429000834503DB98688345B8BF58468F588742EB
:1042A00018BF88500234DBE78E85B4F900B0586837
:1042B0008345F3DBEEE78E8594F800B058688345BC
:1042C00003DB98688345B8BF58468F58874218BFAC
:1042D00088500134C4E7888DA8B100F00F0B8E859B
:1042E0005868834503DB98688345B8BF58468F58A4
:1042F0008742B5D08850B3E78E8594F900B05868EE
:104300008345E2DBDDE794F800B06FEA0B5A6FEA11
:104310001A5A0134A1F82CA04FEA1B1BE0E700BF9A
:10432000A0E8FF1F586B0300506A03002DE9F00F4F
:10433000DFF83892DFF838C28CB0042109F1E902C5
:1043400009F1EA0309F1EC0701914FF0000803922B
:10435000029309F1EB0409F1E40A09F1E50109F11D
:10436000E60209F1E70309F1E8060B900A974846CF
:104370000994CDF818A00591049207934546374655
:104380000B9C794BA0F850504444089421460022DD
:1043900000F1280400971E7D062E15D8DFE806F0F0
:1043A000A7BB968E7D040400D1F800B05E68A0F82B
:1043B0005050B34503DB9E68B345B8BF5E46A7586F
:1043C000B74218BFA65004311833634502F1040206
:1043D000E1D1DDF818A0059B8AF828504FF00102C2
:1043E000DDF810A083F828204FF00204079B009FFF
:1043F0008AF828404FF003024FF0080483F8282081
:1044000087F8284090F8D230DDF820A0032BCAEBC3
:104410000101884400F09380039CDDF808A04FF070
:10442000090384F8283000F213128AF8283003991F
:10443000099CDDF828A000F58673F031D31A0391AA
:10444000029A0699C0F80831F032F0340AF1F00A05
:10445000F03102920994059A049CCDF828A00691A7
:10446000DDF81CA00199F032F0340AF1F00A0139AC
:1044700005920494CDF81CA007F1F00700F1F000BC
:1044800001917FF47DAFD9F808314046013BC9F86E
:104490001C300CB0BDE8F00F7047A0F85050B1F8D8
:1044A00000B05E68B34503DB9E68B345B8BF5E46A7
:1044B000A758B74218BFA650023185E7A0F8505060
:1044C000B1F900B05E68B345F2DBEDE7A0F85050FB
:1044D00091F800B05E68B34503DB9E68B345B8BF92
:1044E0005E46A758B74218BFA65001316CE7B0F836
:1044F0005060C6B106F00F0BA0F850505E68B3458F
:1045000003DB9E68B345B8BF5E46A758B7423FF489
:104510005BAFA65058E7A0F8505091F900B05E6824
:10452000B345DEDBD9E791F800B06FEA0B5A6FEACA
:104530001A5A0131A0F850A04FEA1B1BDEE7039C7A
:10454000DDF808A04FF0040184F82810099905232C
:1045500006228AF8283081F828200A9A072382F850
:10456000283000F2151262E7886D0300B0250020A4
:10457000786E03004249434B00222DE9F003844644
:104580000A8515460E4603F1F0041F7D062F17D845
:10459000DFE807F04E623B3320040400D0F80090BF
:1045A000D3F804800D85C14504DB9F68B945B4BFCD
:1045B000C846B8468F58474518BF42F806800430B1
:1045C0001833A34202F10402DFD1CCEB0000BDE8B6
:1045D000F00370470D85B0F80090D3F80480C14512
:1045E00004DB9F68B945B4BFC846B8468F584745F5
:1045F00018BF42F806800230E2E70D85B0F900905E
:10460000D3F80480C145F1DBEBE70D8590F800900D
:10461000D3F80480C14504DB9F68B945B4BFC846E0
:10462000B8468F58474518BF42F806800130C7E7A3
:104630000F8DCFB107F00F093585D3F80480C14540
:1046400004DB9F68B945B4BFC846B8468F58474594
:10465000B6D042F80680B3E70D8590F90090D3F804
:104660000480C145DDDBD7E790F800906FEA095878
:104670006FEA18580130A6F828804FEA1919DCE7CC
:1046800068FAFF1FB86F03002DE9F843032832D8FA
:10469000DFE800F0023302023B4B1A6A4FF00209D6
:1046A0004FF003084FF0010C0427072606250524C8
:1046B000092008214A4583F8749483F8758483F8A7
:1046C00076C483F8777483F8786483F8795483F830
:1046D0007A4483F87B0483F87C1436D042451CD09E
:1046E000624544D003F27D40284A2949821A501E6F
:1046F000C3F87024C860BDE8F883254D2548002420
:10470000038F2C7121464387FDF7AAFA85F84C40A8
:1047100085F84E40EC62BDE8F88316201227132678
:10472000142515241721182283F8810483F87D7439
:1047300083F87E6483F87F5483F8804483F882147E
:1047400083F8832403F28440CEE70F200D250E2446
:104750001021112283F87F0483F87D5483F87E446E
:1047600083F8801483F8812403F28240BCE70A2096
:104770000B210C2283F87D0483F87E1483F87F24B8
:1047800003F59060B0E700BF88E3FF1FFCE7FF1F61
:10479000D80600203CE2FF1F2DE9F00F904982B0BF
:1047A00091F838300193042781F8A1700E2781F821
:1047B000AB70019F4FF0010A4FF002094FF0030860
:1047C0004FF0000B052606250724082209238446FE
:1047D00081F89EA00A204FF00B0A81F89F9081F883
:1047E000A0804FF00C094FF00D08022F81F89DB00A
:1047F00081F8A26081F8A35081F8A44081F8A52037
:1048000081F8A63081F8A70081F8A8A081F8A990C6
:1048100081F8AA8040F0E0804FF00F0B4FF0100AB3
:104820004FF011094FF012081327142615251624EE
:1048300017201822192381F8ACB081F8ADA04FF0F1
:104840001A0B4FF01B0A81F8AE9081F8AF804FF041
:104850001C094FF01D0881F8B07081F8B1601E2767
:104860001F2681F8B25081F8B3402025212481F819
:10487000B40081F8B5202220232281F8B630242309
:1048800081F8BE4081F8B7B081F8B8A081F8B9903E
:1048900081F8BA8081F8BB7081F8BC6081F8BD50A6
:1048A00081F8BF0081F8C02081F8C13001F1C20455
:1048B0004C4E4D4D4D4BA41B0020671E0246C1F8C7
:1048C0009840AF60A1F8940005469D3E03F55E74E4
:1048D00060461F7D062F18D8DFE807F053693F3682
:1048E00022040400D0F80090D3F80480A1F894507A
:1048F000C14504DB9F68B945B4BFC846B8468F5868
:10490000474518BF42F8068004301833A34202F12D
:104910000402DED1CCEB000002B0BDE8F00F70471E
:10492000A1F89450B0F80090D3F80480C14504DB9E
:104930009F68B945B4BFC846B8468F58474518BFA9
:1049400042F806800230E0E7A1F89450B0F90090F8
:10495000D3F80480C145F0DBEAE7A1F8945090F861
:104960000090D3F80480C14504DB9F68B945B4BF0B
:10497000C846B8468F58474518BF42F806800130F0
:10498000C3E7B1F89470DFB107F00F09A6F89450AF
:10499000D3F80480C14504DB9F68B945B4BFC8465D
:1049A000B8468F584745B0D042F80680ADE7A1F829
:1049B000945090F90090D3F80480C145DADBD4E735
:1049C00090F800906FEA09586FEA18580130A6F87D
:1049D00094804FEA1919DBE701F1AC0468E700BFE6
:1049E000E42400208125002028FBFF1FDC3F03007A
:1049F0004649474B00222DE9F0038446A1F8542094
:104A000015460E4603F5FC741F7D062F18D8DFE807
:104A100007F052683E3521040400D0F80090D3F826
:104A20000480A1F85450C14504DB9F68B945B4BF68
:104A3000C846B8468F58474518BF42F8068004302C
:104A40001833A34202F10402DED1CCEB0000BDE832
:104A5000F0037047A1F85450B0F80090D3F80480E8
:104A6000C14504DB9F68B945B4BFC846B8468F58F6
:104A7000474518BF42F806800230E1E7A1F85450DC
:104A8000B0F90090D3F80480C145F0DBEAE7A1F863
:104A9000545090F80090D3F80480C14504DB9F681F
:104AA000B945B4BFC846B8468F58474518BF42F805
:104AB00006800130C4E7B1F85470DFB107F00F0988
:104AC000A6F85450D3F80480C14504DB9F68B9456B
:104AD000B4BFC846B8468F584745B1D042F80680A3
:104AE000AEE7A1F8545090F90090D3F80480C14586
:104AF000DADBD4E790F800906FEA09586FEA1858AB
:104B00000130A6F854804FEA1919DBE7040C0020A5
:104B1000E46503002DE9F00F032800F28E80DFE842
:104B200000F0028F0202574B93F838200025012431
:104B3000022003214FF0040B4FF0050A4FF0060945
:104B40004FF007084FF0080C09270A2683F89D50FC
:104B500083F89E400B250C2483F89F0083F8A01057
:104B60000D200E21022A83F8A1B083F8A2A083F8B9
:104B7000A39083F8A48083F8A5C083F8A67083F877
:104B8000A76083F8A85083F8A94083F8AA0083F8A7
:104B9000AB1074D14FF00F094FF010084FF0110C0B
:104BA00012271326142515241620172118224FF03A
:104BB000190B4FF01A0A83F8AC9083F8AD804FF0D0
:104BC0001B094FF01C0883F8AEC083F8AF704FF09C
:104BD0001D0C1E2783F8B06083F8B1501F262025D6
:104BE00083F8B24083F8B3002124222083F8B41064
:104BF00083F8B5202321242283F8BF0083F8B6B0C0
:104C000083F8B7A083F8B89083F8B98083F8BAC066
:104C100083F8BB7083F8BC6083F8BD5083F8BE4056
:104C200083F8C01083F8C12003F1C200164A174967
:104C3000821A501EC3F898208860BDE8F00F7047B4
:104C4000104A124B127C12485C6D83F8342002EB40
:104C500042018900002A00EB01020CBF80260026D9
:104C60004558506891689D6346EA042400225C65BB
:104C7000D86319641A701A63BDE8F00F704703F126
:104C8000AC00D3E7E42400208125002028FBFF1F8F
:104C9000D43C03002DE9F007814C824A0023A38312
:104CA00084461D462646117D062916D8DFE811F0F8
:104CB000C000D700B500A5009A00070007000168F2
:104CC0005768A583B94203DB9768B942B8BF0F465E
:104CD000E158B94218BF9F51043004331C2B02F134
:104CE0001802E0D17049CCEB000001F5FA780025FC
:104CF0000CEB00066D4A0D8234460023177D062F0B
:104D000017D8DFE807F02367544C39040400D4F8BF
:104D100000A0D2F804900D82CA4504DB9768BA451A
:104D2000B4BFD146B946CF584F4518BF41F803909C
:104D300004340433102B02F11802DFD11431A41B08
:104D400041452044D4D1BDE8F00770470F8A002FB9
:104D500000F0958007F00F0A0D82D2F80490CA4542
:104D600004DB9768BA45B4BFD146B946CF584F4522
:104D7000DFD041F80390DCE70D82B4F800A0D2F850
:104D80000490CA4504DB9768BA45B4BFD146B9461A
:104D9000CF584F4518BF41F803900234C9E70D8240
:104DA000B4F900A0D2F80490CA45F1DBEBE70D821C
:104DB00094F800A0D2F80490CA4504DB9768BA457D
:104DC000B4BFD146B946CF584F4518BF41F80390FC
:104DD0000134AEE70D8294F900A0D2F80490CA45E0
:104DE000F1DBEBE7A58301885768B9420BDAE1589C
:104DF000B94218BF9F5102306FE7A583B0F9001088
:104E00005768B942F3DB9768B942B8BF0F46E1581B
:104E1000B94218BF9F5102305FE7A58301785768F8
:104E2000B94222DAE158B94218BF9F51013054E724
:104E3000A18B81BB01786FEA01576FEA17570130E8
:104E4000B78309095768B94203DB9768B942B8BF0D
:104E50000F46E158B9423FF440AF9F513DE7A5836B
:104E600090F900105768B942DCDB9768B942B8BFC7
:104E70000F46E158B94218BF9F5101302DE794F811
:104E800000A06FEA0A596FEA19590134A1F810908D
:104E90004FEA1A1A61E701F00F01B583D2E700BFAC
:104EA000200900205443030040090020586F0300EC
:104EB0008249834B00222DE9F00F8446A1F864203B
:104EC00015460E4603F516741F7D062F18D8DFE829
:104ED00007F08EA57A715D040400D0F80090D3F835
:104EE0000480A1F86450C14504DB9F68B945B4BF94
:104EF000C846B8468F58474518BF42F80680043068
:104F00001833A34202F10402DED16E4C0A6A0D6826
:104F1000CB6825604FF0000B4FF0020A4FF00309F9
:104F20004FF00108042707260625CCEB000081F886
:104F300069B04FF0050C4FF0090BA1F870305245E5
:104F40004FF0080381F87C3481F874A481F87594DB
:104F500081F8768481F8777481F8786481F87954DF
:104F600081F87AC481F87BB4544B00F093804A45B1
:104F700075D0424567D003F27D43534A9B1A5A1EAF
:104F8000E260C1F87034BDE8F00F7047A1F86450DA
:104F9000B0F80090D3F80480C14504DB9F68B945A0
:104FA000B4BFC846B8468F58474518BF42F8068078
:104FB0000230A5E7A1F86450B0F90090D3F804805E
:104FC000C145F0DBEAE7A1F8645090F80090D3F80F
:104FD0000480C14504DB9F68B945B4BFC846B846E4
:104FE0008F58474518BF42F80680013088E7B1F86E
:104FF0006470E7B107F00F09A6F86450D3F8048095
:10500000C14504DB9F68B945B4BFC846B8468F5850
:1050100047453FF475AF42F8068071E7A1F8645048
:1050200090F90090D3F80480C145D9DBD3E790F81C
:1050300000906FEA09586FEA18580130A6F86480AA
:105040004FEA1919DAE70A260B250C2283F87D644A
:1050500083F87E5483F87F2403F590638DE74FF047
:1050600012094FF013084FF0140C152716261725B8
:10507000182283F87D9483F87E8483F87FC483F8B4
:10508000807483F8816483F8825483F8832403F264
:10509000844372E74FF00D0C0E270F2610251122C6
:1050A00083F87DC483F87E7483F87F6483F880542A
:1050B00083F8812403F282435FE700BF88E3FF1F88
:1050C000C8CBFF1FD8060020FCE7FF1F2DE9F00F1B
:1050D0007849794C4FF0000C82B0804601F50069A8
:1050E000654608EB0C07754BA1F884503846002242
:1050F00001971E7D062E15D8DFE806F09CB08B8345
:1051000072040400D0F800B05E68A1F88450B34582
:1051100003DB9E68B345B8BF5E468F58B74218BFE1
:105120008E5004301833A34202F10402E1D1019FF2
:105130000B7E81F8D851C01B4FF0050A4FF00602D4
:10514000844481F8D9A181F8DA21002B40F09A80BB
:1051500001F2DB134FF00A021A7091F82820002A9E
:1051600000F0A6800C225A700D200E229870DA7082
:105170000433172618201E70587019261A209E70A6
:10518000D8701B261C201E7158710F2610209E718E
:10519000D871112612201E725872132614209E7286
:1051A000D872152616205A1A1E7358731D261E20F3
:1051B0009E73D873A2F5E3721F2620201E745874C4
:1051C00001F5007141F82C2C49458AD13C4BD3F8AC
:1051D00004226046013A9A6102B0BDE8F00F7047C0
:1051E000A1F88450B0F800B05E68B34503DB9E6858
:1051F000B345B8BF5E468F58B74218BF8E500230D5
:1052000090E7A1F88450B0F900B05E68B345F2DBD6
:10521000EDE7A1F8845090F800B05E68B34503DB79
:105220009E68B345B8BF5E468F58B74218BF8E50D0
:10523000013077E7B1F88460C6B106F00F0BA1F832
:1052400084505E68B34503DB9E68B345B8BF5E46D5
:105250008F58B7423FF466AF8E5063E7A1F8845091
:1052600090F900B05E68B345DEDBD9E790F800B096
:105270006FEA0B5A6FEA1A5A0130A1F884A04FEA7C
:105280001B1BDEE74FF0070381F8DB3101F5EF73FD
:105290004FF00A024FF008074FF0090A81F8DC715D
:1052A00081F8DDA11A7091F82820002A7FF45AAF06
:1052B00001335EE750F2FF1FC4470300AC44030014
:1052C00020F2FF1F2DE9F00F9A4A9B480023C15896
:1052D00042F8041F1833B3F55E7FF8D1974991F86F
:1052E000387000240120022203234FF0040B4FF0FA
:1052F000050A4FF006094FF007084FF0080C092681
:105300000A2581F89D4081F89E000B240C2081F82D
:105310009F2081F8A0300D220E23022F81F8A1B02A
:1053200081F8A2A081F8A39081F8A48081F8A5C09B
:1053300081F8A66081F8A75081F8A84081F8A900FB
:1053400081F8AA2081F8AB304BD14FF00F0B4FF012
:10535000100A4FF011094FF012084FF0130C1426E9
:105360001525162417201822192381F8ACB081F8CE
:10537000ADA04FF01A0B4FF01B0A81F8AE9081F8E8
:10538000AF804FF01C094FF01D0881F8B0C081F8C4
:10539000B1604FF01E0C1F2681F8B25081F8B34067
:1053A0002025212481F8B40081F8B5202220232271
:1053B00081F8B630242381F8B7B081F8B8A081F81D
:1053C000B99081F8BA8081F8BBC081F8BC6081F8DF
:1053D000BD5081F8BE4081F8BF0081F8C02081F83F
:1053E000C1305748DFF864C1002404220125072397
:1053F000C26380F828500364047081F89C404460C4
:10540000C4600461C46280F834408463046344650A
:1054100000F1740200F1A40613460C3243F8044B69
:1054200042F8084CB2424FF000055C60F4D108230A
:10543000022FC0F8A45080F8A850C0F8AC5080F8F3
:10544000B15080F8B25080F8B45080F8B55080F870
:10545000B75080F8B85080F8BA5080F8BB5080F848
:10546000BD5080F8BE5080F8C05080F8C15080F820
:10547000B03080F8B33080F8B63080F8B93080F8BA
:10548000BC3080F8BF3053D110230F2281F8AD30EB
:105490001A234FF0110B4FF0120A4FF013094FF07F
:1054A0001408152716261725182481F8AC2081F832
:1054B000B7301922242381F8AEB081F8AFA04FF0A5
:1054C0001B0B4FF01C0A81F8B09081F8B1804FF0AF
:1054D0001D094FF01E0881F8B27081F8B3601F27D4
:1054E000202681F8B45081F8B5402125222481F886
:1054F000B62081F8C1302322124B81F8B8B081F870
:10550000B9A081F8BA9081F8BB8081F8BC7081F8AD
:10551000BD6081F8BE5081F8BF4081F8C020CCEB5F
:1055200003035A1EC1F898308260BDE8F00F70473F
:10553000054BF4E7E0240020DC3F0300E4240020D6
:1055400028FBFF1FA6250020902500208125002094
:105550004388202B30B421D0402B01D030BC704781
:10556000274B1A7C22B39968DA698088C1EB011154
:1055700003EBC10328330A2A53F82210EED8214C3A
:1055800002EB420504EBC50501FA80F06C68A0420D
:105590002ADAA142E2D043F82240DFE7184BB0F903
:1055A00004109A680A4482F302029A6030BC704781
:1055B000B0F90420D8695C691044A04212DB9969F3
:1055C0008842A8BF0846196AD861002A11440C4DC8
:1055D0000FDB012904DDA9698842ACBF0321022148
:1055E0001962BBE72046EEE7AC68A042B8BF0446AC
:1055F000CFE70129F4DC8442ACBF00210121EFE7B1
:1056000078E8FF1F506A03004388202B30B41CD079
:10561000402B01D030BC7047284B1A7932B31B693C
:10562000274A808852F82310142BF3D8254C03EB1B
:10563000430504EBC50501FA80F06C68A04231DA3D
:10564000A142E7D042F82340E4E71D4B9A68002AC4
:10565000E0D11A4984880978142953F82120D9D82F
:1056600002FA84F2184630BCFEF7C6BAB0F904203C
:1056700018699C681044A04212DBD9688842A8BF10
:10568000084659691861002A11440C4D0FDB0129A5
:1056900004DDE9688842ACBF032102215961B9E702
:1056A0002046EEE7AC68A042B8BF0446C8E701292F
:1056B000F4DC8442ACBF00210121EFE7F0080020B8
:1056C000040C0020E46503004388202B30B42ED066
:1056D000402B01D030BC7047554B93F85022002A24
:1056E00034D093F86822002A6ED0D3F84C22D3F835
:1056F0001C12D3F87432808802EB820201EB820222
:10570000032B52F82310E5D84A4C03EB430504EB76
:10571000C50501FA80F06C68A04203DBAC68A042CA
:10572000B8BF0446A142D5D042F82340D2E7404B4F
:10573000B0F90410D3F84C220A44182AA8BF182242
:1057400022EAE272C3F84C2230BC704793F854222C
:10575000CAB1D3F86022808853F82210062AB9D83B
:10576000354C02EB420504EBC50501FA80F06C688C
:10577000A04203DBAC68A042B8BF0446A142A9D056
:1057800043F82240A6E7B0F90420D3F86012D3F81A
:1057900058421144A14238DBD3F85C028142B8BFC1
:1057A0000846D3F86412C3F86002002A1144204D61
:1057B0002FDB012905DDD5F85C128842ACBF03213F
:1057C0000221C3F8641285E7B0F90420D3F87412FB
:1057D000D3F86C421144A14219DBD3F87002814224
:1057E000B8BF0846D3F87812C3F87402002A1144EF
:1057F0000F4D15DB012905DDD5F870128842ACBFCD
:1058000003210221C3F8781264E72046C9E7204645
:10581000E8E70129D5DC8442ACBF00210121D0E7B3
:105820000129EFDC8442ACBF00210121EAE700BF7F
:1058300020090020586F0300544303004388202BA5
:1058400030B41CD0402B01D030BC70472D4B1A799E
:105850007AB31B692C4A808852F82310092BF3D89D
:105860002A4C03EB430504EBC50501FA80F06C6894
:10587000A0423ADAA142E7D042F82340E4E7214BC4
:1058800021491B7853B14A68B0F90430134483F3BB
:1058900008039A42D8D04B6030BC70470A68B0F910
:1058A0000430134483F308039A42CDD00B6030BC1C
:1058B0007047B0F9042018699C681044A04212DBBC
:1058C000D9688842A8BF084659691861002A11445E
:1058D0000C4D0FDB012904DDE9688842ACBF0321D0
:1058E00002215961B0E72046EEE7AC68A042B8BF9C
:1058F0000446BFE70129F4DC8442ACBF002101214A
:10590000EFE700BF0004002068FAFF1FB86F030034
:105910004388202B2DE9F0035FD0402B02D0BDE857
:10592000F0037047534B1A7C002A69D09A68D969F2
:10593000848802EB421203EBC2022432114491F834
:10594000AC10122952F8210074D90629E7D19069C8
:1059500082F8B2104FF0000C012702260325042420
:10596000052182F8ACC082F8AD7082F8AE6082F892
:10597000AF5082F8B04082F8B110002870D00C21EE
:105980000727082609250A240B2082F8B81082F878
:10599000B37082F8B46082F8B55082F8B64082F8ED
:1059A000B70002F1B901881AA0F1A7044FF00D0960
:1059B0004FF00E084FF00F0C102711261225A638B5
:1059C00081F8009081F8018081F802C0CF700E71DB
:1059D0004D71C2F8A8009C61A1E7264BB0F90410F4
:1059E0009A680A4482F3020202EB421103EBC101FE
:1059F0009A60D1F8CC20013A9A61BDE8F003704773
:105A0000B0F90420D8695C691044A04221DB99698F
:105A10008842A8BF0846196AD861002A1144154D6A
:105A200021DB012904DDA9698842ACBF03210221E1
:105A3000196274E7104D01EB410605EBC60600FA4A
:105A400084F47568AC4206DAA84218BF42F82150C7
:105A50007BE72046DFE7B568AC42B8BF2546F3E7F1
:105A600002F1B3019FE70129E2DC8442ACBF0021CF
:105A70000121DDE7A0130020F83D03002DE9F84FD8
:105A80004388202B7ED0402B01D0BDE8F88FC04C3E
:105A90002378002B00F0CB80237C002B00F02E819C
:105AA0006568E36904EB452530352B4493F8D861EC
:105AB0000C2E00F0D180202E828855F8263040F23E
:105AC0000481062E02D00A2E40F0D5802B7E0020C5
:105AD0000521062285F8D80185F8D91185F8DA2143
